:100000000C94F4000C941C010C941C010C941C0125
:100010000C94A6170C941C010C941C010C941C014C
:100020000C941C010C941C010C941C010C941C01DC
:100030000C941C010C941C010C941C010C941C01CC
:100040000C941D340C941C010C9422260C94A226B2
:100050000C941C010C946D180C941C010C941C0144
:100060000C941C010C941C011F101F101F10191060
:10007000191015101D102710171029102D102F10F2
:100080003110A62BF02B362C4029702CB82BB22B1C
:100090000D2C802CB92CB92CB92C642CB92CED2B3F
:1000A000E62BB92CE129B92C032CB92C0429E7291A
:1000B000B92CB92CB92CB92CB92CB92CB92CB92C18
:1000C000B92CB92CB92CB92CB92CB92CB92CAC2B16
:1000D000B92CB92CB92CB92CB92C682CB92CB92C49
:1000E000B92CB92CE32B6B02036E0203710203756A
:1000F00002037802037B02038002068602068C025A
:10010000039202038F02039502037E020299020109
:100110009802019B02019A0201CF0203D20201D38D
:100120000201BF0201C002069C02019D02019E0263
:1001300001D40202740201A20201A30201F302032C
:10014000A40203F602016B02036E0203710203753F
:1001500002037802037B02038002068602068C02F9
:10016000039202038F02039502037E0202990201A9
:100170009802019B02019A0201CF0203D20201D32D
:100180000201BF0201C002069C02019D02019E0203
:1001900001BF0601D40202740201A20201A30201FE
:1001A000B90201BA0201BB0201BC0201A70206ADFD
:1001B0000206B30206C60203C90206DE0206EF0209
:1001C00003BD0201BE02019F0203D60202D8020251
:1001D000DA0202DC0202F20201EE020102FFFDFF7E
:1001E000FE039A042712A91F11241FBECFEFD8E0E7
:1001F000DEBFCDBF11E0A0E0B1E0E8ECF0E702C067
:1002000005900D92A036B107D9F726E0A0E6B1E03F
:1002100001C01D92A23DB207E1F711E0C8EED1E0A6
:1002200004C02297FE010E94F737C23ED107C9F7EA
:100230000E944E330C9462380C9400002D9808955F
:100240005A980895259A0E941E01109263011092F7
:1002500067011092660110926201529A0C9420017B
:1002600090936701809366016093650160936401D8
:1002700081E0809363010C941E0181E08093620110
:1002800064E18FEF9FEF0C94300182E08093620174
:1002900064E08AE090E00C94300182E08093620197
:1002A0006FE082E090E00C9430018091C301807C8B
:1002B00011F08CE001C084E08093620166E08FEF72
:1002C0009FEF0C943001809166019091670120911D
:1002D0006401892B91F180916501281710F18091BB
:1002E0006301882361F00E941E01109263018091D6
:1002F00062019091F202892389F05A9A0FC02D9AD7
:1003000081E080936301809166019091670101977C
:1003100090936701809366010E942001109264010E
:100320002DC02F5F20936401263040F1809162013F
:1003300083FD24C00E94200121C0222379F0215096
:100340002093640121111AC02D9A8091CA019091C5
:10035000CB01909361018093600110C02091CA018C
:100360003091CB018091600190916101281739078C
:1003700029F00E941E0186E0809364018091C301F0
:100380008F7D90916201882321F092FD05C00C942D
:10039000550192FD0C944D010895FC011382608378
:1003A0008EE0828740E050E060EE7DE34387548733
:1003B0006587768745E259E462E171E44787508BAF
:1003C000618B728B138A148A158A168A12821182A3
:1003D000118610860895CF92DF92FF920F931F939C
:1003E000CF93DF931F92CDB7DEB7109219010FEEB6
:1003F00012E09BE6C92E91E0D92E21E0FF24F39470
:10040000D801ED918D018FEF8E0F8330D0F4F0E0A5
:10041000EE0FFF1FEA5FFE4F80819181F601329758
:1004200091838083DC01ED91FC910190F081E02DBE
:10043000298309952981882321F0F601F0822093F0
:1004400019012F5FF9E1CF0ED11C2430C9F60F90AE
:10045000DF91CF911F910F91FF90DF90CF90089582
:10046000CF92DF92EF92FF92CF93DF93EC016A87F6
:1004700070E080E090E00E9473366B017C0120E028
:1004800030E040E05CE30E9429376B877C878D87F2
:100490009E87A701960160E070E080E093E40E94EF
:1004A000DA356F87788B898B9A8BDF91CF91FF90AC
:1004B000EF90DF90CF900895CF93DF9310920001DB
:1004C000C0E0D9E180911901C81798F4DC9FF001D0
:1004D0001124E859FE4F8381882349F0818192815C
:1004E000DC01ED91FC910480F581E02D0995CF5F51
:1004F000E9CFDF91CF91089580910001882329F001
:100500000E945C0281E0809300010895CF93DF9305
:1005100081E080930001C0E0D9E180911901C81702
:1005200098F4DC9FF0011124E859FE4F8381882361
:1005300049F081819281DC01ED91FC910280F3818F
:10054000E02D0995CF5FE9CFDF91CF910895CF934B
:10055000DF93C0E0D9E180911901C81770F4DC9FE6
:10056000F0011124E859FE4F8381882321F0818115
:1005700092810E94BE11CF5FEECFDF91CF9108959F
:10058000CF93DF93EC016F89788D882777FD809575
:10059000982F0E9475362F85388949895A890E947B
:1005A00029370E94423628853985260F371FC90111
:1005B000DF91CF910895CF93DF93EC010E94C002A9
:1005C000E881F0E0EE0FFF1FEA5BFD4F20813181F3
:1005D000A901481B590BCA01DF91CF910895CF9310
:1005E000DF93EC017D836C83882777FD8095982FBE
:1005F0000E9475362F85388949895A890E94293782
:100600000E9442367F836E83DF91CF9108952F92AF
:100610003F924F925F926F927F928F929F92AF9292
:10062000BF92CF92DF92EF92FF920F931F93CF93DF
:10063000DF93CDB7DEB729970FB6F894DEBF0FBEB4
:10064000CDBF1F82809119019F81981708F0D6C0F5
:100650008F81082F10E099E1909FF001919FF00D9C
:100660001124E859FE4F8381882309F4C3C086E032
:10067000809FF001819FF00D1124E55EFE4F4080C8
:100680005180420157FE03C09FEF891A990A959441
:1006900087949194819491089A82898286E0809FC0
:1006A000F001819FF00D1124E55EFE4F62807380A2
:1006B000530177FE03C09FEFA91AB90AB594A79416
:1006C000B194A194B108BC82AB8286E0809FF00116
:1006D000819FF00D1124E55EFE4FC480D580160188
:1006E000D7FE03C09FEF291A390A35942794319415
:1006F000219431083E822D8260E27EE4CE01019693
:100700000E945333811102C0712C5DC07801EE0C40
:10071000FF1CF701EA5BFD4F7F01208131815A8286
:1007200049827C826B82DE82CD8260E27EE4CE01F1
:100730000196288739870E94533328853985882375
:1007400019F3F70160817181621B730B882777FDB4
:100750008095982F0E9475369B01AC0160E070E097
:1007600080E097E40E94DA356B017C0120E030E004
:10077000A9010E94D63587FF07C0F7FAF094F7F871
:10078000F0947724739401C0712C20E030E040E2B3
:1007900051E4C701B6010E94253787FD14C020E04F
:1007A00030E04FE753E4C701B6010E94D635181672
:1007B00054F0C80185599D4F2C01C701B6010E9414
:1007C0004736F201608B9A828982BC82AB823E827C
:1007D0002D8260E27EE4CE0101960E945333F1E067
:1007E0007F1208C0F801E559FD4F81E09585911110
:1007F00080E085878F818F5F8F8324CF8BE692E0A7
:100800000E9499130E94E02D8091EE020E942827F9
:100810001092C40629960FB6F894DEBF0FBECDBF66
:10082000DF91CF911F910F91FF90EF90DF90CF90CC
:10083000BF90AF909F908F907F906F905F904F9000
:100840003F902F9008950F931F93CF93DF93DC0178
:1008500011968D919C911297EC012A81222329F106
:10086000AB01662757FD6095762F53960D911D912C
:100870002D913C915697400F511F621F731F539645
:100880004D935D936D937C935697452F562F672F0D
:10089000772767FD7A9514962D913C911597240F33
:1008A000351F58963C932E935797EC01E881F981B8
:1008B0000680F781E02DCC91D0E0C559DD4F2D8524
:1008C00057966C9121116195DF91CF911F910F91F6
:1008D0000994CF93DF93EC0188859985681B790B88
:1008E000882777FD8095982F0E9475362B853C854B
:1008F0004D855E850E9429370E9442364F89461BEE
:10090000552747FD5095460F571F588F4F8B8C81A9
:100910009D81481B590B662757FD6095762F762FD2
:10092000652F542F44274B8B5C8B6D8B7E8BDF9117
:10093000CF91089560E088E691E00E94CD0161E0EA
:1009400081E891E00E94CD0162E08AE991E00C9497
:10095000CD0183E08093BE01809101018F3F29F496
:1009600086E00E94FD34809301012091DA023091EB
:10097000DB02C90164E170E00E94A037620F731FBF
:100980007093B7016093B6018091DC029091DD0213
:10099000880F991F880F991F65E070E00E94A037AB
:1009A0007093B5016093B4011092B30108954F9212
:1009B0005F926F927F929F92AF92BF92CF92DF929F
:1009C000EF92FF920F931F93CF93DF9380910101DA
:1009D00018160CF0A8C08FB7F8946091C1017091FF
:1009E000C2018FBF8AEB91E00E940006A091BF0177
:1009F000B091C0012091D6023091D7020E941238E6
:100A00004CE096958795779567954A95D1F79B0128
:100A10007093B9016093B8018091DA029091DB0282
:100A200028173907A4F480910001882321F181E07F
:100A30008093B3010E945C028091B8019091B9014A
:100A400087329240C4F08091C301806812C08091C7
:100A5000B301882381F08091B6019091B70182178C
:100A600093074CF40E9486021092B3018091C30157
:100A70008F778093C3018091B8019091B90186323C
:100A8000E2E09E070CF44FC02091D8023091D902C9
:100A90004091C3018217930714F4406401C04F7B57
:100AA0004093C3012091DC023091DD02121613063F
:100AB000D4F54090B4015090B501841595052CF003
:100AC0002901821793070CF42C01909019010BE671
:100AD00011E035E7C32E32E0D32EE601662457FC41
:100AE0006094762C8C2F8C198915E8F4F80180819C
:100AF0008823A9F0E880A091DC02B091DD02329752
:100B0000A080B180F12C97010E941238A3019201BC
:100B10000E94B4372E193F09F50135832483075EFF
:100B20001F4F2196DFCFDF91CF911F910F91FF9043
:100B3000EF90DF90CF90BF90AF909F907F906F909D
:100B40005F904F9008952091BF013091C00112161F
:100B50001306CCF418161906B4F4BC01882777FDE7
:100B60008095982F5CE0660F771F881F991F5A9514
:100B7000D1F7442737FD4095542F0E94B437309366
:100B8000D7022093D60208951092C30180914204A7
:100B9000811103C081E08093C3018091A7029091ED
:100BA000A802892B89F48091A9029091AA02892B2D
:100BB00059F48091AB029091AC02892B29F4809179
:100BC000C30182608093C3018091C301EFEEF2E024
:100BD0009191992371F0DF01AB57B1099C9191116B
:100BE00001C08460DF01A557B1099C91911101C03A
:100BF000886092E0E23FF90759F78093C3010895B6
:100C00000F931F93FC0185819681681B790BAB01C3
:100C1000662757FD6095762F0081118122813381EF
:100C2000400F511F621F731F408351836283738380
:100C3000048004C075956795579547950A94D2F737
:100C4000568345831F910F910895FC017683658338
:100C5000AB01662757FD6095762F048004C0440FD2
:100C6000551F661F771F0A94D2F740835183628312
:100C7000738308958F929F92AF92BF92CF92DF922B
:100C8000EF92FF92B82E8093C901C0902C04D090AF
:100C90002D04E0902E04F0902F04682F70E080E087
:100CA00090E00E94753620EB3FE041E257E30E945E
:100CB0002937A70196010E94DA350E9447367093C2
:100CC000C8016093C7016B2D70E080E090E00E9446
:100CD000733620E030E041E655E40E9429374B01AD
:100CE0005C01A7019601C701B6010E9429372AECD1
:100CF00032EB4BE85AE50E9429379B01AC01C50154
:100D0000B4010E94DA350E9447367093C6016093A1
:100D1000C5018091BC028F5F8093C401FF90EF906A
:100D2000DF90CF90BF90AF909F908F900895EF92FB
:100D3000FF920F931F93CF93DF93EC01A885B985A2
:100D400008811981109721F40115110509F489C052
:100D5000EA80FB80E11488E0F806ACF4C70100905B
:100D6000C40102C0880F991F0A94E2F72227332793
:100D7000281B390B021713072CF0801791071CF45E
:100D80008C0101C089018091C901882309F462C0E6
:100D90009D010E94FB372091C5013091C60140E0C2
:100DA00050E00E94D637C701AA2797FDA095BA2F19
:100DB000281739074A075B0714F000E010E0A80184
:100DC000662757FD6095762F762F652F542F442781
:100DD0000C811D812E813F810417150726073707D7
:100DE00094F48091C7019091C801080F191F211D2B
:100DF000311D0C831D832E833F83401751076207EB
:100E00007307BCF01AC04017510762077307ACF4B0
:100E10008091C7019091C801081B190B2109310964
:100E20000C831D832E833F8304171507260737077E
:100E300024F44C835D836E837F834C815D816E815E
:100E40007F81452F562F672F772767FD7A95598722
:100E5000488707C01E141F0414F000E010E0198733
:100E60000887DF91CF911F910F91FF90EF90089528
:100E7000FC0111821082148215821682178211865B
:100E8000108608958091BD02882319F088B180638F
:100E900002C088B18F7C88B91092B9008CE0809331
:100EA000B80084E08093BC008AE090E00E94713436
:100EB0001092CB011092CA0108959AEC2091BC00C7
:100EC00027FD0EC09150D1F71092BC002091CA01AD
:100ED0003091CB012F5F3F4F3093CB012093CA015C
:100EE0009091B900981749F08091CA019091CB0177
:100EF00001969093CB018093CA010895CF93C82F98
:100F000084EA8093BC00C0FF0AC080E10E945D07B4
:100F1000C093BB0084E88093BC0080E409C088E0F3
:100F20000E945D07C093BB0084E88093BC0088E109
:100F3000CF910C945D078093BB0084E88093BC0044
:100F400088E20C945D07CF93C82F882329F084ECA6
:100F50008093BC0080E504C084E88093BC0088E5F1
:100F60000E945D078091BB00C11103C094E990937A
:100F7000BC00CF910895CF92DF92EF92FF920F9332
:100F80001F93CF93DF9300D0CDB7DEB76A01E09017
:100F9000CA01F090CB01880F816069837A830E9437
:100FA0007E0781E0C81AD1086981062F7A81172F40
:100FB0008FEFC816D80671F081E0C114D10409F48E
:100FC00080E00E94A307F80181938F01F1E0CF1A1E
:100FD000D108EECF81E02091CA013091CB01E21619
:100FE000F30609F080E00F900F90DF91CF911F91F1
:100FF0000F91FF90EF90DF90CF900895CF92DF9206
:10100000FF920F931F93CF93DF931F92CDB7DEB75D
:10101000F82E6A018901880F69830E947E07698121
:10102000862F0E949B07A801B6018F2D0F90DF919C
:10103000CF911F910F91FF90DF90CF900C94BB0741
:10104000CF93DF931F92CDB7DEB721E030E0AE0142
:101050004F5F5F4F0E94FE0789810F90DF91CF9114
:1010600008950F931F93CF93DF9300D0CDB7DEB7D2
:101070000091CA011091CB01880F4A8369830E94B5
:101080007E076981862F0E949B074A81842F0E94D8
:101090009B0784E98093BC0081E02091CA013091D4
:1010A000CB010217130709F080E00F900F90DF913A
:1010B000CF911F910F910895EF92FF920F931F937D
:1010C000CF93DF930E9434349093FF018093FE010D
:1010D000C3E4D4E086E1E82E82E0F82E02EF11E0CE
:1010E00069917991882777FD8095982F0E947536B0
:1010F000F70161937193819391937F01F8011192AC
:101100001192119211928F01F4E0C934DF0741F777
:1011100082EE94E09093030280930202DF91CF91DC
:101120001F910F91FF90EF9008958230A8F0682FE3
:1011300070E080E090E00E94753620E030E040EA08
:1011400051E40E9429379B01AC0160E070E080E827
:101150009FE30E94DA3504C06DEC7CEC8CE49DE3E7
:101160006093EE017093EF018093F0019093F10191
:101170002FE632E143E05AE30E9429376093EA0107
:101180007093EB018093EC019093ED0108952F9201
:101190003F924F925F926F927F928F929F92AF9207
:1011A000BF92CF92DF92EF92FF920F931F93CF9354
:1011B000DF93CDB7DEB7A2970FB6F894DEBF0FBEB0
:1011C000CDBF4091490450914A04662757FD609570
:1011D000762F8091DE019091DF01A091E001B09126
:1011E000E101840F951FA61FB71F8093DE01909326
:1011F000DF01A093E001B093E10140914B045091D5
:101200004C04662757FD6095762F8091E2019091FE
:10121000E301A091E401B091E501840F951FA61FA1
:10122000B71F8093E2019093E301A093E401B09390
:10123000E50140914D0450914E04662757FD60959D
:10124000762F8091E6019091E701A091E801B0919D
:10125000E901840F951FA61FB71F8093E6019093A5
:10126000E701A093E801B093E901E091D106F0E035
:10127000EB5AFE4F80818130D1F4A2960FB6F894DC
:10128000DEBF0FBECDBFDF91CF911F910F91FF90B9
:10129000EF90DF90CF90BF90AF909F908F907F9016
:1012A0006F905F904F903F902F900C94D222893096
:1012B00009F0AFC18091C406843009F43FC443E40F
:1012C000642E44E0742E50E1852E52E0952E68ED98
:1012D000A62E61E0B62E7AE0E72E72E0F72EE6E168
:1012E000CE2EE2E0DE2E512CD3010D911D913D0159
:1012F000F401819191914F01080F191FD5010D93B0
:101300001D935D01F60161917191819191916F0140
:101310000E944236061B170BD7010D931D937D01CA
:101320005394B3E05B12E0CF8091020290910302EC
:10133000009779F10197909303028093020236E1BE
:10134000E32E32E0F32E0AE012E0F8016191719190
:101350008F01882777FD8095982F0E9475362AE0A7
:1013600037ED43EA5BE30E9429379B01AC01D701CB
:101370006D917D918D919C910E947235F7016193E1
:101380007193819391937F01F2E000311F07E9F699
:10139000D5C38091160290911702A0911802B091C6
:1013A00019028D879E87AF87B88B6091DC017091A1
:1013B000DD01882777FD8095982F0E9475364B01B7
:1013C0005C01C0901E02D0901F02E0902002F090BD
:1013D00021026091D8017091D901882777FD80950D
:1013E000982F0E947536698B7A8B8B8B9C8BA5010D
:1013F00094016D857E858F8598890E9429372B0100
:101400003C0129893A894B895C89C701B6010E9450
:1014100029379B01AC01C301B2010E947135698378
:101420007A838B839C8340901A0250901B026090B9
:101430001C0270901D026091DA017091DB01882717
:1014400077FD8095982F0E9475366D8B7E8B8F8BE4
:10145000988FA5019401C301B2010E9429374B0165
:101460005C012D893E894F89588DC701B6010E94C4
:1014700029379B01AC01C501B4010E9471356D8310
:101480007E838F83988729893A894B895C89C30138
:10149000B2010E9429376B017C012D893E894F8959
:1014A000588D6D857E858F8598890E9429379B018F
:1014B000AC01C701B6010E94713569877A878B87B5
:1014C0009C874090EE015090EF016090F001709089
:1014D000F1018091EA019091EB01A091EC01B091B2
:1014E000ED018F8F98A3A9A3BAA302EF11E0DE014B
:1014F0001196BE8FAD8FE3EBF2E0FE8BED8B8FE4A8
:1015000094E09A8B898BAAE0B2E0BA8FA98F26E18A
:10151000222E22E0322E1D86E98DFA8D6191719185
:10152000FA8FE98F882777FD8095982F0E9475366E
:10153000A30192010E9429379B01AC01D1016D9159
:101540007D918D919C910E947235F1016083718330
:1015500082839383D8018D909D90AD90BC90ED8D4A
:10156000FE8DC190D190E190F190FE8FED8F20E043
:1015700030E44CE955ECC701B6010E94D63587FD31
:101580000FC020E030E44CE955E4C701B6010E94E9
:101590002537181654F4B0E0A0E4FCE9E5E409C0EE
:1015A000B0E0A0E4FCE9E5EC04C0BC2DAD2DFE2DBF
:1015B000EF2D2F8D38A149A15AA16B2F7A2F8F2F94
:1015C0009E2F0E9429379B01AC01C501B4010E94E6
:1015D0007235D8016D937D938D939D938D01ED8927
:1015E000FE89E190F190FE8BED8B0E9442366E0DEC
:1015F0007F1DA989BA896D937D93BA8BA98BBD850F
:10160000BF5FBD87E4E02E0E311CB33009F084CFFC
:1016100095C2863009F03BC10E9434342091FE010E
:101620003091FF01BC01621B730B70934D026093FC
:101630004C029093FF018093FE0180E090E00E94B5
:10164000733620913004309131044091320450912E
:1016500033040E9429376B017C018E010F5F1F4FFD
:101660009EEDA92E91E0B92E4E01FDE08F0E911C4A
:10167000D5016D917D918D919C910E947536A70148
:1016800096010E942937F801619371938193919398
:101690008F01D5011D921D921D921D925D01E815CD
:1016A000F90531F78091160290911702A091180266
:1016B000B09119028D879E87AF87B88B40901A0230
:1016C00050901B0260901C0270901D0289809A80CD
:1016D000AB80BC8080911E0290911F02A0912002DD
:1016E000B0912102898B9A8BAB8BBC8B89859A85B3
:1016F000AB85BC858D8B9E8BAF8BB88F29893A8942
:101700004B895C89C501B4010E9429376B017C01BA
:10171000A30192016D897E898F89988D0E94293756
:101720009B01AC01C701B6010E9471359B01AC0160
:101730006D857E858F8598890E947235609316022B
:10174000709317028093180290931902CD80DE8067
:10175000EF80F88429893A894B895C89C701B601F1
:101760000E942937698F7A8F8B8F9C8F2D853E85BC
:101770004F8558896D897E898F89988D0E94293778
:101780009B01AC01698D7A8D8B8D9C8D0E94723589
:101790009B01AC01C301B2010E94723560931A0231
:1017A00070931B0280931C0290931D02A30192016F
:1017B000C701B6010E9429372B013C012D853E85CA
:1017C0004F855889C501B4010E9429379B01AC019E
:1017D000C301B2010E9472359B01AC0169897A890B
:1017E0008B899C890E94713560931E0270931F0241
:1017F00080932002909321022091260230912702AB
:101800004091280250912902C501B4010E94293754
:101810004B015C012091220230912302409124026D
:1018200050912502C701B6010E9429379B01AC01E6
:10183000C501B4010E9471356B017C0120912A021F
:1018400030912B0240912C0250912D026D897E899E
:101850008F89988D0E9429379B01AC01C701B60181
:101860000E9472359B01AC016091D4017091D50149
:101870008091D6019091D7010E9472356093D40176
:101880007093D5018093D6019093D70157C18330CF
:1018900009F079C060911A0270911B0280911C02BC
:1018A00090911D02C0901E02D0901F02E090200275
:1018B000F09021029B01AC010E9429374B015C0191
:1018C000A7019601C701B6010E9429379B01AC010F
:1018D000C501B4010E9472356093D0017093D101AB
:1018E0008093D2019093D3010E94B10E6B017C01D1
:1018F0006093CC017093CD018093CE019093CF0182
:1019000020911E0230911F0240912002509121022D
:1019100060911A0270911B0280911C0290911D022D
:101920000E94030E9093490280934802A7019601FA
:1019300060E070E080E89FE30E94DA359B01AC0133
:10194000609116027091170280911802909119020D
:101950000E94030E909347028093460223E839EFDA
:1019600042E255E46091D4017091D5018091D60195
:101970009091D7010E9429370E94423670934B0202
:1019800060934A02DBC0843009F0D8C0609116022F
:101990007091170280911802909119029B01AC017D
:1019A0000E9429372091D0013091D1014091D2017C
:1019B0005091D3010E9472350E94B10E6B017C01DF
:1019C00060930201709303018093040190930501D9
:1019D00080911E0290911F02A0912002B0912102DD
:1019E0008D8B9E8BAF8BB88F8090CC019090CD016A
:1019F000A090CE01B090CF01A5019401BC01CD0112
:101A00000E9429376D877E878F87988B609332027B
:101A100070933302809334029093350240901A02FF
:101A200050901B0260901C0270901D02C301B20115
:101A30009058A50194010E9429374B015C016093E5
:101A400036027093370280933802909339022091C6
:101A50001602309117024091180250911902C701E5
:101A6000B6010E942937698B7A8B8B8B9C8B609394
:101A70002202709323028093240290932502A701EF
:101A80009601C301B2010E9429372B013C016093EA
:101A90002602709327028093280290932902A701BF
:101AA00096016D897E898F89988D0E942937609370
:101AB0002A0270932B0280932C0290932D022D8585
:101AC0003E854F8558890E9429376B017C01A5010D
:101AD0009401C301B2010E9429379B01AC01C701E7
:101AE000B6010E94713560933A0270933B02809375
:101AF0003C0290933D02A501940169897A898B8902
:101B00009C890E94293760933E0270933F02809324
:101B100040029093410269897A898B899C89905807
:101B20002D853E854F8558890E9429376093420252
:101B3000709343028093440290934502A2960FB69D
:101B4000F894DEBF0FBECDBFDF91CF911F910F91F3
:101B5000FF90EF90DF90CF90BF90AF909F908F90CD
:101B60007F906F905F904F903F902F900895CF920D
:101B7000DF92EF92FF92AB01A0910601E09101028A
:101B80009C01BB27A7FDB0950E94FB376B017C0130
:101B90009A01AE2FBB27A7FDB0950E94FB37C60E5A
:101BA000D71EE81EF91EF7E0F594E794D794C79482
:101BB000FA95D1F7C601FF90EF90DF90CF9008958E
:101BC000A6E095958795AA95E1F7FC01FF27E655D4
:101BD000F64894919F5790930102805CE82FF0E0C3
:101BE000E655F648E491EF57E0930601E92FFF2709
:101BF000E7FDF095F7FF03C0F195E195F109E0935A
:101C00000002089508954F925F926F927F928F9293
:101C10009F92AF92BF92CF92DF92EF92FF920F937B
:101C20001F93CF93DF9300D000D0CDB7DEB72B0149
:101C30003C0149015A0120E030E0A9010E9425370A
:101C400073016201181624F0F7FAF094F7F8F09493
:101C500020E030E0A901C501B4010E942537A701A9
:101C6000960187FD1BC0C501B4010E9471356983CF
:101C70007A838B839C83A7019601C501B4010E94DE
:101C800072359B01AC0169817A818B819C810E94B4
:101C9000DA356B017C0100E018E01AC0C501B4011F
:101CA0000E94723569837A838B839C83A50194019A
:101CB000C701B6010E9471359B01AC0169817A812F
:101CC0008B819C810E94DA356B017C0100E018E178
:101CD00026E73FEE4FEF53E4C701B6010E942937D4
:101CE000A70196010E942937A70196010E94293772
:101CF0004B015C0122E03EEF4FE155E4C701B60124
:101D00000E9429379B01AC01C501B4010E947135C5
:101D10000E9442367801E60EF71E20E030E0A9016D
:101D2000C301B2010E94D63587FF05C088279927D5
:101D30008E199F0901C0C7010F900F900F900F904F
:101D4000DF91CF911F910F91FF90EF90DF90CF9097
:101D5000BF90AF909F908F907F906F905F904F90CB
:101D60000895CF92DF92EF92FF920F931F938B0112
:101D70009C01359527951795079556E8C52E5AE588
:101D8000D52E57E3E52E5FE5F52EC01AD10AE20AFB
:101D9000F30A20E030E040E05FE30E942937A7012A
:101DA00096010E942937A70196010E9429379B01BD
:101DB000AC0160E070E080EC9FE30E9471359B0114
:101DC000AC01C701B6010E9429371F910F91FF9006
:101DD000EF90DF90CF900895FC01CB016AE070E0B6
:101DE0000E948C37668B8AE0689FB0011124758B46
:101DF000648B08952F923F924F925F926F927F92E1
:101E00008F929F92AF92BF92CF92DF92EF92FF920A
:101E10000F931F93CF93DF9300D000D0CDB7DEB7E1
:101E2000653608F064E6FC01678B062F10E024E6B7
:101E300030E0201B310B44E6429FB001439F700D00
:101E400011247A83698384889588A12CB12C1C0184
:101E5000C12CD12C76011C821B8260EA462E66E8DA
:101E6000562E66246394712CEB81FC81EE9FC00199
:101E7000EF9F900D900D1124809FD001819FB00D98
:101E8000909FB00D112429813A81A20FB31FA701A1
:101E900096010E941938A30192010E94B437F10102
:101EA000219331931F012B813C812F5F3F4F3C8356
:101EB0002B83C80CD91CEA1CFB1C2A303105A1F667
:101EC0000F900F900F900F90DF91CF911F910F9176
:101ED000FF90EF90DF90CF90BF90AF909F908F904A
:101EE0007F906F905F904F903F902F900895EF926A
:101EF000FF920F931F93CF93DF93FC019B01878980
:101F0000882309F458C06115710509F456C08B0186
:101F100077FF04C000271127061B170B4689C42F23
:101F2000D0E0C801BE010E948C376930C0F0E28861
:101F3000F38889E0489F00191109112444895589C3
:101F40004E195F09049FC001059F900D149F900DCD
:101F50001124BE010E948C376E0D7F1D25C077278E
:101F6000AB01440F551F4E0F5F1FDA010D911C91FD
:101F7000DB011196AA0FBB1FAE0FBF1F4D915C91E5
:101F8000401B510B489FB001499F700D589F700D29
:101F90001124CB01BE010E948C37600F711F1616F1
:101FA000170614F061E070E037FF0AC08827992710
:101FB000861B970B06C0CB0104C080E090E001C0F7
:101FC000CB01DF91CF911F910F91FF90EF9008957A
:101FD0000E945C02F89428E088E190E00FB6F89443
:101FE000A895809360000FBE20936000FFCF2498D7
:101FF0002C9A8AE090E00E948B3483B182958170A4
:1020000091E0892780935302089581E08093000135
:102010000C94E02D482F50E0FA013197ED30F10596
:1020200058F5EC5CFF4F0C94F5370C947E210C9422
:1020300064240E94BB180C944D010E94E80F6FEFBE
:10204000680F8BE692E00E94DD140C94E02D0C9456
:102050006B1A80910001811102C00C9405100C9440
:102060005C0281E090917A02911180E080937A0283
:102070008BE692E00C94991308958091510290910F
:1020800052021C9B27C00697A0F080915302811139
:1020900005C0809150028F5F8093500210925302CE
:1020A000109252021092510210924F0210924E0260
:1020B0000895E0915002EE23A9F180914E02909193
:1020C0004F02019690934F0280934E0287399105FB
:1020D00088F40895019690935202809351021092D1
:1020E0004F0210924E0281399140E0F08091E3025C
:1020F0000C940A10E73038F4F0E0E352FD4F808191
:102100000E940A100CC0EA3051F48BE692E00E9463
:10211000D3148BE692E00E9499130E94E80F10926C
:10212000500208950895E0E8F0E08081806A80839D
:10213000E0EBF0E08081806880830895E0EBF0E0E0
:1021400080818062808384B5806A84BD0895CF9346
:1021500084B18E6084B98AB188668AB985B1817F7D
:1021600085B98BB187798BB910928B0010928A0058
:1021700010928900109288001092B4001092B3005F
:1021800018BC17BC80918000C091B000C0728078EC
:10219000C82B80910701813051F480938000809397
:1021A00081008093B0008093B10084BD12C089E0AB
:1021B0008093800088E0809381008091810082601C
:1021C0008093810093E09093B00082E08093B1000F
:1021D00094BD85BD45B5309181002091B10015BCFD
:1021E000109281001092B10016BC82E090E09093B2
:1021F00085008093840084E08093B20045BD3093D5
:1022000081002093B1000E949234CC2329F00E94D7
:102210009310CF910C949E10CF9108959091070147
:10222000891721F0809307010C94A7100895E0E826
:10223000F0E080818F758083E0EBF0E080818F7724
:1022400080830895E0EBF0E080818F7D808384B50A
:102250008F7584BD089581E00895CF93DF93EC01DD
:102260008F81811103C00E94171102C00E942211A8
:102270001A82DF91CF910895CF93C4E663E080E1A5
:102280000E942008863859F084E190E00E94713461
:10229000C150A1F71092CB011092CA0101C0C1E058
:1022A0008C2FCF910895CF93DF93EC01462F62E0FE
:1022B00080E10E9431088091C2068F3F39F44A8143
:1022C00061E080E1DF91CF910C943108DF91CF91F3
:1022D0000895DC0117964C911797862F90E012967F
:1022E0003C91129725E5260F6655FC01E655F64808
:1022F000411120C08491839FC001112490938800D4
:10230000E22FF0E0E655F648E49112968C91129790
:10231000E89FC00111249093B300E62FF0E0E6554A
:10232000F648E49112968C91E89FF0011124F09305
:102330008A0008958491839FC0011124892F80957C
:102340008093B400E22FF0E0E655F648E49112964F
:102350008C911297E89FC0011124892F809587BD29
:10236000E62FF0E0E655F648E49112968C91E89F4E
:10237000F00111248F2F809588BD0895FC01828182
:10238000882381F08381268130E0280F311D8481EC
:102390009581280F391F2F3F310519F010F02FEFCD
:1023A00030E022830895CF93DF93EC018F81811178
:1023B00003C00E94931002C00E949E108B818A83EA
:1023C000CE01DF91CF910C94BE11FC0187E0DF01BB
:1023D0001D928A95E9F781E391E091838083678379
:1023E000089527E0FC0111922A95E9F72DE331E0E9
:1023F000FC013183208308950F931F93CF93DF93C4
:10240000EC0165E080E10E94200815E601E0080F7C
:102410004A8161E080E10E943108811103C01150BE
:10242000B9F707C0402F62E080E10E94310888239D
:10243000B1F3DF91CF911F910F910895FC0123819A
:1024400022830C94FC11FC0112820C94FC1160E0BC
:1024500083E692E00E94E51161E08BE592E00E9444
:10246000E51184E592E00C94F111BF92CF92DF92D6
:10247000EF92FF920F931F93CF93DF9300D01F92A1
:10248000CDB7DEB7B62E8A017C01C12C85E2D82EED
:10249000CB1439F143E050E0B701CE0101960E9420
:1024A00024384B8150E0F8016081718189819A81E3
:1024B0000E943A388B81F80120813181280F311D2B
:1024C000318320839981E92FFA812E2F291B281728
:1024D00018F42191D20EF9CFC394F3E0EF0EF11C62
:1024E000D7CF8D2D0F900F900F90DF91CF911F912F
:1024F0000F91FF90EF90DF90CF90BF9008950F93D2
:102500001F93CF93DF931F92CDB7DEB78C01FC01F1
:102510006081718141E050E0CE0101960E943A381D
:10252000F8018081918101969183808389810F9048
:10253000DF91CF911F910F910895BF92CF92DF92BB
:10254000EF92FF920F931F93CF93DF9300D01F92D0
:10255000CDB7DEB7B62E8A017C01C12C95E2D92E0B
:10256000CB1439F143E050E0B701CE0101960E944F
:1025700024384B8150E0F8016081718189819A8112
:102580000E944A388B81F80120813181280F311D4A
:10259000318320839981E92FFA812E2F291B281757
:1025A00018F42191D20EF9CFC394F3E0EF0EF11C91
:1025B000D7CF8D2D0F900F900F90DF91CF911F915E
:1025C0000F91FF90EF90DF90CF90BF9008950F9301
:1025D0001F93CF93DF931F92CDB7DEB789838B0113
:1025E000FB016081718141E050E0CE0101960E94C3
:1025F0004A38F801808191810196918380830F9000
:10260000DF91CF911F910F9108950F931F93CF9357
:10261000DF93FC01DC0140E060E153E091968C9196
:102620009197833020F491965C93919705C0813106
:1026300018F091966C9391978D010C571F4FE801FC
:102640008881843008F05883E801888181110CC0AA
:102650004F5F1196433011F79F012A5F3F4FCF0123
:10266000EF01CC5ADF4F1BC0CF01282F2E1B2417A0
:1026700078F79C012C573F4FE9013881E801288108
:10268000321301C018820196F0CF453008F044E0C3
:10269000507E542B5C9301968217930789F0DC01DE
:1026A000AB5ABF4F5C91452F4F7156FFEECF6881FB
:1026B000613021F4493060F348E0EACF40E0E8CFF0
:1026C000DF01AD57BF4F8C91833010F082E08C93C7
:1026D00080A9823010F081E080ABDF01A859BF4FA4
:1026E0008C91853610F084E68C93DF01AF5ABF4F92
:1026F0008C91823010F081E08C9380AD8B3510F09E
:102700008AE580AF40AD27A930E08AE590E0841BE0
:102710009109821793071CF48AE5841B87AB82A971
:102720008A3010F48AE082ABDF91CF911F910F9134
:1027300008950F931F93CF93DF9300D0CDB7DEB7EB
:102740008C010E9405131A821982BE016F5F7F4FB0
:1027500080E00E94E712AE014F5F5F4F64E180EAC4
:1027600091E00E949D12BE016F5F7F4F0E94E712B1
:10277000F801ED57FF4F808190E001969695982FD4
:102780008827979587959A838983BE016F5F7F4FCE
:1027900081E00E94E712AE014F5F5F4F60E286EE7C
:1027A00090E00E949D12BE016F5F7F4F0E94E71272
:1027B0000E9445010F900F90DF91CF911F910F91D3
:1027C000089523E0FC01E25AFF4F11821082FC01C0
:1027D00015AE14AEEE5BFF4F118210823696118259
:1027E0001082215002962111EDCF1092BE02089561
:1027F0006F927F929F92AF92BF92CF92DF92EF92B1
:10280000FF920F931F93CF93DF93FC013C019C0138
:1028100080E090E04AE0F42E53E0E52E65E0962E4D
:1028200072E3A72EAEE0BA2E0EE31EEF62EC71E06B
:10283000B4E1CB2EDD24D394D301FC92DF01A80FA9
:10284000B91F1396EC92139716969C9216971A96A8
:10285000AC921A97A30148575F4FEA0118821D9660
:102860001C921D975096BC925097E9011E8B0D8BC0
:102870007C8F6B8F9196EC9291979796CC929797CD
:102880009496DC9294979A961C929A974452510986
:10289000EA011882D996FC920196DFEF6D1A7D0A43
:1028A0002E5F3F4F8330910539F617A684E6818766
:1028B000138A148ADF01AC5ABF4F1C92119691E023
:1028C0009C93119692E09C9311961C9211961C92E7
:1028D000119693E09C93119694E09C931F961C9202
:1028E00011961C9213979FE09C9311961C9286A7B9
:1028F00015A610AA11AA82E382AB13AA88E287ABBD
:1029000084E180AFE557FF4F1082DF91CF911F9197
:102910000F91FF90EF90DF90CF90BF90AF909F907E
:102920007F906F900895CF93DF93EC010E94E113A5
:10293000FE01E55AFF4F108211821282789686E0DE
:10294000DF01982F1D929A95E9F78083359687E0ED
:1029500080831CAA1DAA1EAAB897108231961082E5
:10296000339783E08083319681E0808333961082B1
:10297000F2968083319682E080833196108275973B
:102980001182108236978AE192E291838083329697
:1029900011821082329611821082C957DF4F18823D
:1029A000DF91CF910895CF93DF93EC010E949314B0
:1029B000CE01DF91CF910C94F813CF92DF92EF927A
:1029C000FF920F931F93CF93DF9300D0CDB7DEB765
:1029D0008C01D62E7C0183E8E80EF11CF7011082F1
:1029E000C8010E94D3141A821982CE0101960E9456
:1029F0007F12811118C0AE014F5F5F4F64E180EA22
:102A000091E00E943512C82ECE0101960E947F12DD
:102A1000C81619F0C8010E949314F7018081833011
:102A200010F082E08083D7FC06C06D2D63300CF07F
:102A300062E0F7016083F701808190E0019696954E
:102A4000982F8827979587959A838983CE01019639
:102A50000E947F128230D0F490E0FC01EE0FFF1F45
:102A6000E80FF91FEB5BFE4FAE014F5F5F4F6281D6
:102A7000808191810E943512F82ECE0101960E942C
:102A80007F12F81619F0C8010E94F813C8010E94BD
:102A900005130F900F90DF91CF911F910F91FF9031
:102AA000EF90DF90CF900895CF93DF9300D0CDB714
:102AB000DEB71A82198289819A818115924038F491
:102AC000BE016F5F7F4F80E00E94E712F4CF0F904E
:102AD0000F90DF91CF9108952F923F924F925F9286
:102AE0006F927F928F929F92AF92BF92CF92DF921E
:102AF000EF92FF920F931F93CF93DF93CDB7DEB783
:102B00002B970FB6F894DEBF0FBECDBF85E0E7E38D
:102B1000F3E0DF011D928A95E9F710927E00109292
:102B20006C00F4E04F2EF4E05F2E00EC12E0F801B0
:102B300080E090E0A4E6DA2EB2E0CB2E99249394C4
:102B400010E4A12EEE24E394F12C30E2B32E60EFDA
:102B500078ED2E2F201B233020F4DF01D4972C9109
:102B600001C023E0DC01A652BC4F14962C933081A7
:102B7000232F2F7109F46CC0215035FF27C024305A
:102B800008F066C030E0A901495C5C4F1A01DA0127
:102B90004C9141115DC088B0A901415F5E4FDA01DF
:102BA0004C914095482148B940917E002D5E3E4FA2
:102BB0003701D9010C9002C0660C771C0A94E2F729
:102BC000462940937E00D101BC9243C036FF1EC00F
:102BD00020913703222319F02034D1F53AC02091F7
:102BE000BF022130A9F528B130910F01232B28B95C
:102BF00020916C0030910F01232B20936C00D09218
:102C00003C03C0926800A092370323C0243000F533
:102C100030E0A901495C5C4F1A01DA014C91411185
:102C200017C088B0A901415F5E4FDA017C90872808
:102C300088B880906C004C91842A80926C00245C4F
:102C40003C4FD901DC92C0926800D1019C9201C036
:102C50001082D2016D937D932D01319607968A32B1
:102C6000910509F076CF80E280933B0358E1852EF1
:102C700053E0952E61EAC62E63E0D62E4BE253E078
:102C80005E834D8342E952E05C834B8376E4A72E5A
:102C900072E0B72EEEE64E2EE3E05E2E4CE852E0F8
:102CA00058874F834BE652E05B874A871A82198226
:102CB000212C312C00E010E0E12CF12C2E2D2230C3
:102CC00019F48091970206C081E090919C029230A5
:102CD00009F080E0D2018C93C1018B539C4FEF81AE
:102CE000F8853191F887EF83333008F433E0DC0165
:102CF00014963C9360E070E029870E942506E981E4
:102D0000FA81E955FC4F1182108266246A944FE7DC
:102D1000742E73826282F701EC59FC4F1082F80125
:102D2000E85AFC4F118210822985211109C0809137
:102D3000C9029091CA029093A2038093A10339C063
:102D4000D2018C91882321F1F50180819181D601F6
:102D50008D939C93213049F460914802709149020F
:102D600081E891E00E94690424C08091C106882313
:102D700001F16090A2017090A3018AE991E00E94A4
:102D8000C002681A790A7092A3016092A20111C070
:102D90008091C106811102C0223011F4F50104C0F6
:102DA000EA85FB85E25AFF4F80819181D6018D93A0
:102DB0009C93F60180819181BC01882777FD8095E5
:102DC000982F0E947536AD81BE816D937D938D9352
:102DD0009D93BE83AD83EB81FC818191FC83EB836A
:102DE00090E02091BC022C5F02C0880F991F2A95A9
:102DF000E2F7F801E25AFC4F91838083AA85BB85F4
:102E000055962D913C9156975B964D915C915C97B0
:102E100081E0421753070CF080E0F401808388239F
:102E200011F0CA0101C0C9010E944F35F801EF5DE0
:102E3000FC4F91838083D4018C91882329F0EA850B
:102E4000FB858589968906C0AA85BB855B968D9191
:102E50009C915C970E944F35F801E55EFC4F918391
:102E60008083BFEFEB1AFB0A0E5F1F4F4A855B851D
:102E70004E5F5F4F5B874A875FEF851A950A82E056
:102E8000C80ED11C92E0A90EB11CAFEF4A1A5A0A23
:102E9000B7E02B0E311C49815A81465F5F4F5A8340
:102EA000498353E0E516F10409F008CF10926D0351
:102EB00064ED72E049E253E0A7E2B3E0FB01208158
:102EC000822F90E036E0959587953A95E1F7FA01E3
:102ED0008083009729F0815080832F732C9301C049
:102EE0001C926F5F7F4F4F5F5F4F1196F2E0663D20
:102EF0007F0721F76091D30289E893E00E94FA0EE0
:102F000060919E0281E793E00E94FA0E8091740224
:102F10000E943A0681E08093C1062B960FB6F89482
:102F2000DEBF0FBECDBFDF91CF911F910F91FF90FC
:102F3000EF90DF90CF90BF90AF909F908F907F9059
:102F40006F905F904F903F902F9008951F920F9237
:102F50000FB60F921124FF920F931F932F933F935D
:102F60004F935F936F937F938F939F93AF93BF9391
:102F7000CF93DF93EF93FF93C6B10E943434D09187
:102F80001403DC27C0931403789400910F01FD2EE5
:102F9000F0220C23A7E3B3E020E030E04D91403471
:102FA00051F5FF2009F451C0002309F44EC04091AF
:102FB0000C0350910D03BC01641B750BAB01909386
:102FC0000D0380930C03493B7BE0570718F01092E8
:102FD0000B033BC0BA01655873406331754028F458
:102FE00060910B03683008F44CC040910B034F5FB5
:102FF00040930B032AC0413041F5F901E15FFE4FD8
:103000004081542F5D2309F1642F6C23A901440FE3
:10301000551FFA01E45FFC4F611115C06081718199
:10302000FC01E61BF70BBF01E55FF140EF3CF74009
:1030300060F4FA01E05BFC4F71836083F901E45CAA
:10304000FC4F108202C0918380832F5F3F4F24305A
:10305000310509F0A3CFFF91EF91DF91CF91BF919F
:10306000AF919F918F917F916F915F914F913F9120
:103070002F911F910F91FF900F900FBE0F901F90F7
:103080001895E0910B03F0E0EE0FFF1FE05CFC4FA2
:103090005183408310923C03A8CF80911703853061
:1030A000D8F4E0911703F0E0E95CFC4F80818032B6
:1030B00069F4E0911703F0E0ED5EFE4F80818064DB
:1030C00080937C008FEC80937A00089580911703A1
:1030D0008F5F80931703E1CF089578941F920F922A
:1030E0000FB60F9211242F933F934F935F936F93DB
:1030F0007F938F939F93AF93BF93EF93FF938091B1
:1031000078002091790090E0922B209117032430D1
:1031100029F49093C2018093C10115C02091170337
:10312000243088F4E0911703F0E084529C4FEE0FB6
:10313000FF1FE05BFC4F91838083E0911703F0E079
:10314000E45CFC4F1082809117038F5F809317031C
:103150000E944D18FF91EF91BF91AF919F918F9178
:103160007F916F915F914F913F912F910F900FBE83
:103170000F901F90189540911901E1EAF3E0A9EC36
:10318000B2E090E0941731F0219131912D933D936D
:103190009F5FF8CF843059F0853089F48091C00268
:1031A0009091C2029093C0028093C20208C08091A5
:1031B000C0029091C1029093C0028093C1028BE63D
:1031C00092E00C949913CF93DF938091C4068130E1
:1031D00079F48091C5069091C606892B49F081E06B
:1031E00090E09093C6068093C506DF91CF91089535
:1031F00081E08093C40680E197E29093C6068093B5
:10320000C506C0E0D9E180911901C817B0F42C2F90
:1032100030E0F901EE0FFF1FEF55FC4F11821082D5
:10322000D29FC001D39F900D112460E070E08859B7
:103230009E4F0E94EF02CF5FE6CFDF91CF910C94BB
:103240003D012F923F924F925F926F927F928F92A9
:103250009F92AF92BF92CF92DF92EF92FF920F9325
:103260001F93CF93DF93CDB7DEB72B970FB6F894AC
:10327000DEBF0FBECDBF2091C5063091C6063B8391
:103280002A8320313742E9F580917F0190918001B6
:10329000909308038093070380910C0490910D0490
:1032A00090930403809303031092FB021092FC029C
:1032B0001092FD021092FE021092F8021092F70294
:1032C00010927E02809198019091990190930A0347
:1032D0008093090380910E0490910F04909306034C
:1032E000809305031092FF021092000310920103D5
:1032F000109202031092FA021092F90210927F02C9
:10330000C8C0ACE0B4E0B987A88733E0C32E33E08F
:10331000D32E07EF12E04EE7442E42E0542EEBEF9F
:10332000F2E0FB87EA875FE7252E51E0352E67E064
:10333000E62E63E0F62EF2E0F983A885B985ED91DB
:10334000FD91B987A887FD83EC83D6018D919C916F
:103350003F01681A790AC30177FE04C088279927BC
:1033600086199709853691050CF449C0F101019041
:10337000F081E02DFF83EE83D7018D919C91E81BB6
:10338000F90BBF01882777FD8095982F26E0660FFF
:10339000771F881F991F2A95D1F70E9475364B0118
:1033A0005C01B301882777FD8095982F0E947536C0
:1033B0009B01AC01C501B4010E94DA359B01AC014F
:1033C000EA85FB8560817181828193810E947235DB
:1033D000AA85BB856D937D938D939C931397F8017C
:1033E00080819181019691838083EE81FF81D70155
:1033F000ED93FC93EC81FD81D601ED93FC93D80114
:103400006D917C916B307105E8F080E090E00E9456
:1034100073369B01AC01EA85FB85608171818281F5
:1034200093810E94DA350E9442366138FFEF7F07B0
:1034300034F06038710524F06FE770E001C061E896
:10344000D2016C93B981B150B983E2E0CE0ED11CA8
:103450000E5F1F4FFFEF4F1A5F0A2A853B852C5FD7
:103460003F4F3B872A8739E1230E311C82E0E80E6B
:10347000F11CB11162CFAA81BB81119751F48BE687
:1034800092E00E9499138091EE020E9428271092E8
:10349000C4068091C5069091C60601979093C60612
:1034A0008093C5062B960FB6F894DEBF0FBECDBF36
:1034B000DF91CF911F910F91FF90EF90DF90CF9010
:1034C000BF90AF909F908F907F906F905F904F9044
:1034D0003F902F9008958091C406823069F48091C6
:1034E000C5069091C606892B39F081E090E0909353
:1034F000C6068093C506089582E08093C4068AE0DC
:1035000091E09093C6068093C50680914A029091FF
:103510004B0290931603809315030E945C020C9457
:103520003D01BF92CF92DF92EF92FF920F931F93D4
:10353000CF93DF938091C5069091C606019709F05D
:1035400040C0B09019017EE6E72E73E0F72EEBE263
:10355000CE2EE3E0DE2E8701C0E0D0E0802F8E1972
:103560008B1538F5882321F0F801808181111AC06C
:10357000FE01EA5BFD4F60817181FE01E753FD4F63
:1035800071836083FE01EF55FC4F71836083882750
:1035900077FD8095982F0E947536F60160837183C0
:1035A000828393830F5F1F4F2296F4E0CF0ED11CCE
:1035B000D5CF8BE692E00E9499130E94860210926A
:1035C000C4068091C5069091C60601979093C606E1
:1035D0008093C506DF91CF911F910F91FF90EF90DF
:1035E000DF90CF90BF9008952F923F924F925F92BD
:1035F0006F927F928F929F92AF92BF92CF92DF9203
:10360000EF92FF920F931F93CF93DF9300D000D0E0
:1036100000D0CDB7DEB780916D03843019F4A3E0FC
:103620009A2E01C0912C40EF58EDF0E46F2E712CD2
:10363000292D30E0F901E054FD4F6081C901880F68
:10364000991F662309F495C0E62FEF71E15066FFDC
:1036500025C060913C03643608F044C0AFB7F894CD
:10366000F0E0EE0FFF1FE05CFC4F60817181FC0118
:10367000EC5FFB4F71836083AFBFF901EE0FFF1F5B
:10368000EC5FFB4F208131812C5D354031832083FD
:1036900020913C032F5F20933C0329C0F0E0DF0121
:1036A000A45CBC4F6C916436E8F41FB7F894EE0F3D
:1036B000FF1FE05BFC4F60817181FC01EC5FFB4F01
:1036C000718360831FBFF901EE0FFF1FEC5FFB4F9B
:1036D000208131812C5D3540318320832C912F5FF7
:1036E0002C9305C0FC01EC5FFB4F5183408323E02A
:1036F000291508F043C0FC01EC5FFB4FA081B181AC
:10370000A03F38EDB307D1F18CEF890D90E0FC01BB
:10371000E95DFC4F2081222389F1FC01E75DFC4F2C
:10372000E081F0E0EE0FFF1FEC5FFB4F00811181A5
:10373000003F88ED1807D1F030E05301A21AB30A18
:103740000E9412386B017C019801D5010E94FB3761
:10375000C60ED71EE81EF91EB6E0F594E794D7947E
:10376000C794BA95D1F7D182C08208C0B183A08333
:1037700005C0FC01EC5FFB4F51834083939495E0BF
:10378000991508F055CF8091C406813019F40E9434
:1037900021198EC2823019F40E94911A89C2809137
:1037A0009C028230C1F460914C0270914D0280E025
:1037B00090E00E94733620912804309129044091B2
:1037C0002A0450912B040E9429376B017C01312C73
:1037D000A7E02A2E91C060910C0470910D04603F07
:1037E000A8ED7A07D1F086EF93E00E9400062091C1
:1037F000FB033091FC03A0917E02BB27A7FDB0958F
:103800000E94FB37F6E09595879577956795FA9531
:10381000D1F788E691E00E94EF0260910E0470916A
:103820000F04603FB8ED7B0709F4BDCF8DEF93E047
:103830000E9400062091020430910304A0917F02AF
:10384000BB27A7FDB0950E94FB37E6E095958795CD
:1038500077956795EA95D1F781E891E00E94EF02AC
:10386000A2CFE32DF0E0FE83ED834AE09F01429F6B
:10387000F001439FF00D1124E955FC4F808591859F
:10388000009749F18901000F111F000F111F055DFD
:103890001C4FBC01882777FD8095982F0E947536B4
:1038A000A70196010E942937D8012D913D914D9194
:1038B0005C910E947235F8016083718382839383E7
:1038C0000D811E81000F111F0F551C4F0E944236A3
:1038D000D8016D937C9380916D0380FF13C0EAE063
:1038E000AD81BE81EA9FC001EB9F900D11248955E7
:1038F0009C4F0E949706339480911901381608F462
:10390000B0CFD6C1ED81FE812E9E50012F9EB00C0E
:10391000112495012B533C4F5901D90115968D90D7
:103920009C901697EC59FC4FFC83EB83823009F492
:103930005DC10D811E81000F111FB1E0B31508F4A8
:1039400046C070909C027B1242C049E12D813E81AD
:10395000429FF001439FF00D1124E859FE4F26814C
:103960003781ED81FE81E559FD4FA2A540919D066D
:1039700050919E06BB27A7FDB0950E94FB37DC0146
:10398000CB0126E0B595A795979587952A95D1F710
:10399000BA010E943C35BC0181E793E00E94770F99
:1039A000BC01C5010E940006AB81BC817C92F8017C
:1039B000E85AFC4F80819181F50125813681821B77
:1039C000930BF801E959FC4F9183808305C0F801FE
:1039D000E959FC4F11821082F801EC5FFB4F8081A6
:1039E0009181803F28ED920709F400C120916D0379
:1039F0004D815E8145595D4F5A01243051F0DA0105
:103A0000AC59BF4F2C91820F911D27FD9A95918340
:103A10008083D50194968C91813009F08BC06091A0
:103A2000D20270E0F801EC5FFB4F808191810E942F
:103A30003C35BC0189E893E00E94770FF50127A18E
:103A400030E0DC010E9412382091BC0245E050E0D9
:103A5000421B510904C095958795779567954A95BE
:103A6000D2F7AD81BE812A9E50012B9EB00C11244D
:103A7000F501E652FC4F5F01CF010E940006D5011F
:103A80001596AD90BC901697A114B10409F4AEC080
:103A9000ED81FE81E85EFC4F8081882319F0B194AE
:103AA000A194B1088A0C9B1CF801E85AFC4FFA83D8
:103AB000E98380819181BC01882777FD8095982FCB
:103AC0000E9475362B013C01B501882777FD809552
:103AD000982F0E947536A70196010E9429379B01F5
:103AE000AC01C301B2010E9472350E944236A98125
:103AF000BA816D937C93B2E03B1609F477C0F8016C
:103B0000EF5DFC4F20813181621773072CF4E9814E
:103B1000FA81318320836AC0F801E55EFC4F208181
:103B20003181261737070CF061C0A981BA812D9326
:103B30003C935CC0ED81FE81E85EFC4F8081F80122
:103B4000EC5FFB4F882339F08081918124EF31E0D5
:103B5000281B390B04C0208131812C503E4FF801C5
:103B6000EF5DFC4FA080B180F801E55EFC4FA081C5
:103B7000B181AA19BB090E94FB3728EE33E040E06F
:103B800050E00E94D637B501620F731FED81FE81B0
:103B90002E9E30012F9E700C1124930126523C4F13
:103BA0003901C9010E940006ED81FE81E259FC4FF6
:103BB0008081882349F0F801E85AFC4FD30115961B
:103BC0008D919C91169710C021E0EB81FC812083A0
:103BD000F801E959FC4F80819181D30115962D910F
:103BE0003C911697820F931F91838083EB81FC8118
:103BF0008081882341F12D813E81220F331FD9011D
:103C0000AF55BC4FF901E959FC4F8D919C91408112
:103C10005181841B950B1816190654F4F901E25AC8
:103C2000FC4F2081318188249924821A930A2DC067
:103C3000009731F1919581959109F901E25AFC4F74
:103C40008080918022C0F2E03F16E9F08D819E8154
:103C5000880F991FDC011814190434F4A55EBC4FB9
:103C6000FC01EF55FC4F05C0AF55BC4FFC01EF5DAB
:103C7000FC4F8D919C9120813181821B930B05C05B
:103C8000812C912C02C08FEF9FE74AE02D813E816D
:103C9000429FF001439FF00D1124E955FC4F97FF1F
:103CA00002C080E090E0938382839182808217CE6D
:103CB00080910A0490910B04803FF8ED9F07D1F0AA
:103CC00088332FEF92072CF0893C910524F0E2E035
:103CD00003C0E0E001C0E1E080910E01E81751F07F
:103CE000E0930E01FF27E7FDF095EA53FD4F808139
:103CF0000E940A101092170326960FB6F894DEBFA2
:103D00000FBECDBFDF91CF911F910F91FF90EF902C
:103D1000DF90CF90BF90AF909F908F907F906F90EB
:103D20005F904F903F902F900C944D184F925F9260
:103D30006F927F928F929F92AF92BF92CF92DF92BB
:103D4000EF92FF920F931F93CF93DF93B6E4EB2E86
:103D5000B2E0FB2E08E611E0CFE98C2EC2E09C2EEB
:103D6000D1EAAD2ED3E0BD2E8BE2C82E83E0D82E53
:103D7000612C712C9AE0492E512CF70160817181E0
:103D8000C8010E946904F701C191D1917F01C80166
:103D90000E94C002C81BD90BF80180859185C80F0D
:103DA000D91FCE010E946335B2010E94A037F401F1
:103DB00061934F01F301E859FE4FD187C087F501A8
:103DC000119211925F01F6011192119211921192CA
:103DD0006F01075E1F4FF9E16F0E711C82E36816D9
:103DE000710459F68BE692E00E9499138091EE02DD
:103DF000DF91CF911F910F91FF90EF90DF90CF90C7
:103E0000BF90AF909F908F907F906F905F904F90FA
:103E10000C942827CF93DF939B01BA0140916D0347
:103E200090E0443041F4FC01EE0FFF1FEC5FFB4FCC
:103E30007183608358C0423091F4FC01EC59FC4F0F
:103E400041E04083880F991FFC01E959FC4F7183C1
:103E50006083FC01E25AFC4F3183208344C040FF61
:103E600034C05AE0589FF001599FF00D1124E955D4
:103E7000FC4F0090BC0202C0220F331F0A94E2F7ED
:103E800031832083DC01AC59BC4F1C922FEF3FE7FC
:103E90003383228341FF27C0FC01EE0FFF1FEF5544
:103EA000FC4F71836083EC01CC0FDD1FCC0FDD1F55
:103EB000C55DDC4F882777FD8095982F0E94753669
:103EC000688379838A839B830EC0FC01EC59FC4F85
:103ED00010822AE0289FF001299FF00D1124E95556
:103EE000FC4F11821082DF91CF9108950F931F93A1
:103EF000CF93DF93C82FD0E0CE01880F991FFC012C
:103F0000EA5BFD4F60817181FC01EF55FC4F7183CD
:103F100060838E01000F111F000F111F055D1C4FE4
:103F2000882777FD8095982F0E947536F801608369
:103F30007183828393832AE02C9FC0012D9F900D73
:103F4000112489559C4FDF91CF911F910F910C94B3
:103F5000380764EF71E089E893E00E94EC0E60E0BE
:103F600078E081E793E00C94EC0ECF92DF92EF9231
:103F7000FF9224E030E0281B31096AEF70E002C0B4
:103F8000660F771F2A95E2F7882777FD8095982F8F
:103F90000E9475366B017C0120E332EE4FE659E258
:103FA0000E94293760933004709331048093320467
:103FB0009093330429EC38E346E05EE2C701B60192
:103FC0000E94293760932C0470932D0480932E0453
:103FD00090932F042DEA34EE4EEB50E3C701B60167
:103FE0000E942937609328047093290480932A043F
:103FF00090932B04FF90EF90DF90CF9008953F9225
:104000004F925F926F927F928F929F92AF92BF92E8
:10401000CF92DF92EF92FF920F931F93CF93DF9394
:10402000CDB7DEB729970FB6F894DEBF0FBECDBF70
:10403000AE014F5F5F4F99E0FA0111929A95E9F74F
:10404000DE011796FA0121E030E0772767FD7095D1
:1040500000271127061B170BDD24DA94CC24C39408
:10406000992787FD9095EE24FF24E81AF90A621734
:10407000730711F4C08204C00217130709F4D08239
:104080008217930711F4CC9204C0E216F30609F4E8
:10409000DC922F5F3F4F119631962430310539F76E
:1040A00038857B8199858A81739F202D1124899F72
:1040B000201911242C8329816F81299F902D11248F
:1040C000679F901911249D83689F802D1124239F41
:1040D000801911248E83A5E2B4E062E274E020E04E
:1040E00030E01C92F901E152FE4F5490F901E45284
:1040F000FE4F64904C9080E090E0312C052D11270C
:1041000007FD109588249924801A910AE62CFF2433
:10411000E7FCF094AA24BB24AE18BF08772473945C
:10412000780E680117FD6401F1E0CF1AD108F6019D
:10413000EE0FFF1FEC0DFD1DE80FF91FE40FF51F3B
:10414000F0817F9EF02D1124151414F4E1E001C0DC
:10415000EFEFFE9F400C11246701F7FC6501E1E0E1
:10416000CE1AD108F601EE0FFF1FEC0DFD1DE80F72
:10417000F91FE40FF51FE0817E9E702C11241614A8
:1041800014F4E1E001C0EFEF7E9E300C11240196A3
:104190008330910509F0C2CF4C92FB01308244205C
:1041A00011F0311027C043E050E06FED71E085E27F
:1041B00094E00E94243843E050E06CED71E082E22C
:1041C00094E029960FB6F894DEBF0FBECDBFDF9105
:1041D000CF911F910F91FF90EF90DF90CF90BF9004
:1041E000AF909F908F907F906F905F904F903F9097
:1041F0000C9424382F5F3F4F11966F5F7F4F233011
:10420000310509F06ECF29960FB6F894DEBF0FBEC8
:10421000CDBFDF91CF911F910F91FF90EF90DF9075
:10422000CF90BF90AF909F908F907F906F905F9056
:104230004F903F900895CF93DF93DB01EA012881EF
:10424000E22FFF27E7FDF09512164CF4E150F048FD
:10425000EE0FFF1FE80FF91F208131810BC0E095A1
:10426000F095EE0FFF1FE80FF91F20813181319586
:104270002195310911963C932E932981E22FFF2736
:10428000E7FDF09512164CF4E150F048EE0FFF1FD9
:10429000E80FF91F208131810BC0E095F095EE0FFA
:1042A000FF1FE80FF91F20813181319521953109D8
:1042B00013963C932E9312972A81E22FFF27E7FD56
:1042C000F09512164CF4E150F048EE0FFF1FE80F86
:1042D000F91F808191810BC0E095F095EE0FFF1FD3
:1042E000E80FF91F8081918191958195910915962B
:1042F0009C938E931497DF91CF9108958091C4067B
:10430000811116C084E08093C4060E943D010E9482
:104310007C0288EE93E00E94713484EF91E09093E8
:10432000C6068093C5068091C3018D7F8093C3012B
:104330000895873008F086E0482F6AE180914104B3
:104340000C9431081F93CF93DF9310E0812F81707D
:10435000C82F80E0D82FC55BDE4F88818093410451
:1043600065E70E9420088E778836F9F41092CB0119
:104370001092CA0140E86BE6809141040E94310826
:104380008AE090E00E94713443E06BE68091410442
:104390000E94310848E16BE1809141040E9431089C
:1043A00080E00E94992181E008C08AE090E00E94AC
:1043B00071341F5F143651F680E0DF91CF911F9169
:1043C0000895CF93DF93CDB7DEB72C970FB6F8944F
:1043D000DEBF0FBECDBF26E030E0AE01495F5F4FCC
:1043E00063E4809141040E94FE07882311F18F81CC
:1043F00090E0982F88272885822B9A838983898546
:1044000090E0982F88272A85822B9C838B838B852D
:1044100090E0982F88272C85822B9E838D8342E203
:1044200054E06CE174E0CE0101960E941B2181E012
:1044300001C080E02C960FB6F894DEBF0FBECDBF52
:10444000DF91CF910895CF93DF930E94E1218823DC
:1044500029F18091BC02ECE1F4E0CFE4D4E0A9E4DE
:10446000B4E081110FC08191919129913991821B02
:10447000930B959587958D939D9384E0E232F80791
:1044800091F70CC08191919129913991821B930BE5
:104490008D939D9384E0E232F807A1F7DF91CF91ED
:1044A0000895809141048093400440E16CE10E94B2
:1044B000310881E008951092420410924104109254
:1044C00040046091BA028091B9020E94FF1F80915E
:1044D000BC020E94B51F0E94A221882321F00E94E5
:1044E000512281110AC086E0E3EBF2E0AFE4B4E0D0
:1044F00001900D928A95E1F7089581E0809342043E
:10450000F2CFCF93DF93CDB7DEB72C970FB6F894E9
:10451000DEBF0FBECDBF26E030E0AE01495F5F4F8A
:104520006BE3809140040E94FE07882389F18F810C
:1045300090E0982F88272885822B43E095958795D2
:104540004A95E1F79A838983898590E0982F882797
:104550002A85822B63E0959587956A95E1F79C8380
:104560008B838B8590E0982F88272C85822BE3E026
:1045700095958795EA95E1F79E838D8345E254E012
:104580006CE174E0CE0101960E941B2181E001C024
:1045900080E02C960FB6F894DEBF0FBECDBFDF9142
:1045A000CF9108958F929F92AF92BF92CF92DF9258
:1045B000EF92FF920F931F93CF93DF930E9481227C
:1045C000882309F474C18091C406843009F038C18D
:1045D0008090C5069090C60684EF881681E0980604
:1045E00009F07BC08091A7029091A802892B31F439
:1045F0008091A9029091AA02892B61F00CE114E04C
:10460000A7EAEA2EA2E0FA2EC1E0D0E0B3E0CB2E7A
:10461000D12C27C08091AB029091AC02892B71F70D
:1046200082E08093180152C0AC01440F551F445ED4
:104630005B4FDC01AA0FBB1FA955BD4FFA0140819A
:1046400051818D919C91481B590B57FF03C0519587
:1046500041955109219642175307CCF0C430D1053A
:10466000A9F1BC2EBA94CE01B6010E94A037D801A0
:104670002D913D918D01F701419151917F01241BB5
:10468000350B37FFD1CF319521953109CDCFCE01F3
:10469000B6010E94A037AC01440F551F445E5B4F2A
:1046A000DC01AA0FBB1FA955BD4FFA014081518102
:1046B0008D919C91481B590B57FF03C05195419513
:1046C00051094217530754F6B09218018CE0A4E345
:1046D000B4E0FD0111928A95E9F7CCE1D4E024E33E
:1046E00034E049915991662757FD6095762FF9017D
:1046F00080819181A281B381840F951FA61FB71F6E
:1047000081939193A193B1939F01F4E0C232DF07AB
:1047100041F78A94892809F08AC0C09018010C2DAD
:1047200010E07801EE0CFF1CEE0CFF1CF701EC5CB6
:10473000FB4F6081718182819381DD24D3941616B1
:104740001706180619060CF4D12CE801CC0FDD1F52
:10475000CD0DD11DCC0FDD1FC05FDB4F24EF31E04D
:1047600040E050E00E94D63739832883F701E05FAC
:10477000FB4F208131811216130634F5428153819B
:1047800057FF22C0F801EE0FFF1FE955FD4FC90189
:10479000840F951F97FD019695958795918380834A
:1047A000E801CC0FDD1FC355DD4F241B350B44271B
:1047B00037FD4095542F60E070EA8FE090E00E9452
:1047C000B4373983288329C0A2E0CA1226C0D11089
:1047D00024C0C7EAD2E004E314E0B12CB4EFCB2E3E
:1047E000DD24D394E12CF12CF80161917191819138
:1047F00091918F01A70196010E94D63739832883B2
:10480000F2E0BF1203C03250398328831F821E8218
:10481000B394229683E0B812E7CF8BE692E00E9431
:1048200099130E945C080E94E02D1092C4068091AA
:10483000C5069091C60601979093C6068093C5065B
:10484000CCE1D4E0F7EAAF2EF2E0BF2E03E414E0AF
:10485000A8EECA2EA3E0DA2EE12CF12CD501169693
:104860002D913C9117974D915C912115310571F077
:10487000A881B981A41BB50B0E941238A70196012B
:104880000E94D637F8013183208307C0888199813F
:10489000841B950BD8018D939C932296B2E0AB0EAE
:1048A000B11C0E5F1F4FE4E0C232DE07B9F6DF91A4
:1048B000CF911F910F91FF90EF90DF90CF90BF901D
:1048C000AF909F908F9008952F923F924F925F925A
:1048D0006F927F928F929F92AF92BF92CF92DF9210
:1048E000EF92FF920F931F93CF93DF93CDB7DEB775
:1048F00062970FB6F894DEBF0FBECDBF0E947C0258
:104900000E943D01E12CF12C3AE0C32ED12C0E94F3
:10491000E121882309F45AC028EBE2162BE0F206C5
:1049200008F454C08CE194E069E474E0FE0131962F
:10493000DE011D961D014B2DDC018D909D90CD015A
:10494000DB018D929D92BD01B8EBEB16BBE0FB063F
:1049500051F41082118212821382D1018D929C92A5
:1049600040E000E010E0D1012D913D911D01D40106
:10497000A21BB30B9D01B7FF03C0319521953109EF
:104980002531310550F0BB24B394B40E4630B0F05D
:1049900027EBE22E2BE0F22E11C0AA2497FCA09464
:1049A000BA2C4080518062807380480C591C6A1C6C
:1049B0007B1C4082518262827382B12C3496B4E0B7
:1049C00082329B0709F0B7CF0F5F1F4FC701B601B7
:1049D0000E948C37892B21F40E9463010E94CF2C06
:1049E00082EC91E00E948B34EFEFEE1AFE0AF0E7C2
:1049F000EF16F7E1FF0608F48ACF0115110581F1E2
:104A00009E012F5F3F4F79018FE4A82E84E0B82EDE
:104A100093EBC92E92E0D92E4E013DE0830E911CFE
:104A20002801612C712CD7016D917D918D919D9103
:104A30007D01A30192010E94D637F50121933193A4
:104A40005F01D6012D933D936D01E814F90459F7E8
:104A50008BE692E00E9499130E94D2220E945C0889
:104A600062960FB6F894DEBF0FBECDBFDF91CF9137
:104A70001F910F91FF90EF90DF90CF90BF90AF907C
:104A80009F908F907F906F905F904F903F902F906E
:104A90000C94E02DFC018081DF01AE57BF4F2C91BB
:104AA00091E0980F9083821720F4E80FF11D828126
:104AB000089580E008951F93CF93DF93EC010E9447
:104AC0004A25182FCE010E944A25282F30E0922F28
:104AD0008827810F911DDF91CF911F910895CF926B
:104AE000DF92FF920F931F93CF93DF931F92CDB767
:104AF000DEB78C01F62E6B018C2D8F19841748F4CC
:104B0000C80149830E944A25F60181936F014981BA
:104B1000F3CF0F90DF91CF911F910F91FF90DF9016
:104B2000CF900895FC01EE57FF4F4081242F30E0D5
:104B30002038310560F44F5F4083FC01E20FF31F22
:104B40006283FC01ED57FF4F8081860F80830895BB
:104B50000F931F93CF93DF931F92CDB7DEB78C01D6
:104B600079830E9492257981672FC8010F90DF9188
:104B7000CF911F910F910C949225CF92DF92FF92CB
:104B80000F931F93CF93DF931F92CDB7DEB78C01A6
:104B9000F62E6B018C2D8F19841748F4F601619164
:104BA0006F01C80149830E9492254981F3CF0F907C
:104BB000DF91CF911F910F91FF90DF90CF900895DB
:104BC00080936506EFEFE80FE43050F4F0E0EE0F6D
:104BD000FF1FE35BFE4F2081318140E050E004C0C5
:104BE00020E032EC41E050E082E08093C00060E0E1
:104BF00079E08DE390E00E94B437215031094109FA
:104C000051095695479537952795BB27A52F942F82
:104C1000832F8093C5002093C4008091C1008869D0
:104C20008093C10008958091630690916406019677
:104C300090936406809363068091C30180628093A1
:104C4000C30108951F920F920FB60F9211242F9354
:104C50003F934F935F936F937F938F939F93AF9304
:104C6000BF93EF93FF939091C6008091E1058F5F12
:104C70008F772091E205821749F0E091E105F0E09D
:104C8000ED51FA4F90838093E10502C00E941326F4
:104C9000FF91EF91BF91AF919F918F917F916F9114
:104CA0005F914F913F912F910F900FBE0F901F90EA
:104CB0001895CF93DF931F92CDB7DEB7E091E20551
:104CC000F0E0ED51FA4F80812091E2059091E105ED
:104CD000291759F09091E2059F5F9093E20590911A
:104CE000E2059F779093E20504C089830E94132612
:104CF00089810F90DF91CF9108958091E105909186
:104D0000E205891B8F7708959091E0052091DF05DA
:104D1000921B9F779F37C1F3E091E005F0E0E15AE5
:104D2000FA4F80838091E0058F5F8093E00580914A
:104D3000E0058F778093E0058091C10080628093C9
:104D4000C10008951F920F920FB60F9211248F93F6
:104D50009F93EF93FF939091E0058091DF05981763
:104D600091F0E091DF05F0E0E15AFA4F8081809305
:104D7000C6008091DF058F5F8093DF058091DF059E
:104D80008F778093DF059091DF058091E005981380
:104D900005C08091C1008F7D8093C100FF91EF918C
:104DA0009F918F910F900FBE0F901F9018950E94AA
:104DB0007D26882341F0E091E205F0E0ED51FA4FC5
:104DC00080818E3311F40C9413260E945926EFCF64
:104DD000FF920F931F93CF93DF93EC018EE30E941A
:104DE000842689810E9484268E010E571F4FF80168
:104DF00080810E948426F80190818981890F0E9418
:104E00008426F12CF8018081F81640F4FE01EF0DA4
:104E1000F11D82810E948426F394F4CFCD57DF4F99
:104E20008881DF91CF911F910F91FF900C94842680
:104E300093E49093DC041092DB0491E090935D0581
:104E40008093DD0480935E058BED94E00C94E8265E
:104E50004F925F926F927F928F929F92AF92BF928A
:104E6000CF92DF92EF92FF920F931F93CF93DF9336
:104E7000782E82E0871510F47090EE0282E5809320
:104E8000DC041092DB0481E080935D057092DD0408
:104E900070925E055FB6F8946090EE02761429F089
:104EA000672D8BE692E00E94DD149BE6892E92E04E
:104EB000992E2EE6A22E22E0B22E31E7C32E32E04A
:104EC000D32E45E7E42E42E0F42E08E712E0CBE7CC
:104ED000D2E053E0452EF40161914F018BED94E057
:104EE0000E949225F50161915F018BED94E00E9493
:104EF0009225F60161916F018BED94E00E9492255D
:104F0000F70161917F018BED94E00E949225F801F9
:104F100061918F018BED94E00E94922569918BED58
:104F200094E00E9492254A94B1F6609174028BED50
:104F300094E00E94922560917E028BED94E00E94A5
:104F4000922560917F028BED94E00E949225CBE642
:104F5000D2E0EFE8AE2EE2E0BE2EFCE8CF2EF2E08B
:104F6000DF2EA2E9EA2EA2E0FA2E05E912E0B3E074
:104F70004B2E8AE0882E912C8D899E89B4010E9447
:104F8000A0378BED94E00E94A8258B8D9C8DB401F9
:104F90000E94A0378BED94E00E94A825F501619155
:104FA0005F018BED94E00E949225F60161916F0103
:104FB0008BED94E00E949225F70161917F018BEDCA
:104FC00094E00E949225F80161918F018BED94E0AD
:104FD0000E9492254A9422964110CECF6091990268
:104FE0008BED94E00E949225609198028BED94E005
:104FF0000E94922560919B028BED94E00E94922585
:1050000060919A028BED94E00E94922543E06FEC50
:1050100072E08BED94E00E94BD256091D2028BED91
:1050200094E00E9492256091D3028BED94E00E945F
:1050300092256091BF028BED94E00E94922546E09C
:1050400060EC72E08BED94E00E94BD2542E064EDDF
:1050500072E08BED94E00E94BD2560919C028BED87
:1050600094E00E94922560919D028BED94E00E9455
:10507000922560919E028BED94E00E94922543E080
:105080006FE972E08BED94E00E94BD256091B9025A
:105090008BED94E00E9492256091BA028BED94E032
:1050A0000E9492256091BB028BED94E00E949225B4
:1050B0006091BC028BED94E00E9492256091BD024C
:1050C0008BED94E00E9492256091BE028BED94E0FE
:1050D0000E94922543E066EC72E08BED94E00E9422
:1050E000BD2546E06EED72E08BED94E00E94BD259B
:1050F00043E06FEE72E08BED94E00E94BD2560917D
:10510000D8027091D9028BED94E00E94A82560919D
:10511000DA027091DB028BED94E00E94A825609189
:10512000DC027091DD028BED94E00E94A825609175
:10513000F2028BED94E00E9492256091A2028BED29
:1051400094E00E9492256091A3028BED94E00E946E
:10515000922543E063EF72E08BED94E00E94BD2561
:1051600043E064EA72E08BED94E00E94BD2560911B
:10517000F6028BED94E00E949225662D8BED94E073
:105180000E949225671015C05FBE8BED94E0DF9101
:10519000CF911F910F91FF90EF90DF90CF90BF9034
:1051A000AF909F908F907F906F905F904F900C94F6
:1051B000E826662D8BE692E00E94DD14E5CF2F9263
:1051C0003F924F925F926F927F928F929F92AF9297
:1051D000BF92CF92DF92EF92FF920F931F93CF93E4
:1051E000DF9300D01F92CDB7DEB72C01FC01818187
:1051F00090E0FC01E154F109E233F10508F0B9C394
:10520000EF5BFF4F0C94F53786E58093DC0410923A
:10521000DB0481E080935D058AE08093DD04809368
:105220005E0568E679E08BED94E00E94A82560E0D9
:105230008BED94E00E94922561E070E0809119016D
:10524000833011F060E070E08091010118161CF4C9
:1052500082E090E002C080E090E0680F791F8BED63
:1052600094E00E94A8251CE060E08BED94E00E9491
:1052700092251150C9F78BED94E00E94E82679C37E
:1052800084E48093DC0410925D051092DB0410929C
:105290005E0503E414E0E9E4EE2EE4E0FE2EF801FE
:1052A000619171918F018BED94E00E94A825F70127
:1052B000619171917F018BED94E00E94A825F4E04B
:1052C00009341F0761F760916306709164068BEDE6
:1052D00094E00E94A82560E070E08BED94E00E94CD
:1052E000A82560E070E08BED94E00E94A82560E0C6
:1052F00070E08BED94E00E94A82504E014E0F80132
:10530000619171918F0164527A4F8BED94E00E940C
:10531000A825F4E000311F0791F746E066E472E04B
:105320008BED94E00E94BD2546E061EA73E08BEDD1
:1053300094E00E94BD2580914C0290914D026AE05C
:1053400070E00E948C378BED94E00E94A82560915C
:10535000CA017091CB018BED94E00E94A825609169
:10536000C3018BED94E00E9492256091B801709189
:10537000B9018BED94E00E94A825609100018BEDAE
:1053800094E00E9492256091EE028BED94E00E94E1
:1053900092250BE611E0F8018081882331F03297E5
:1053A0000190F081E02D628101C060E08BED94E01E
:1053B0000E949225075E1F4FF1E0063B1F0759F739
:1053C0005ACFC2010E944A250E942827D2C230909B
:1053D000EE02C2010E944A252BE6822E22E0922E86
:1053E0003EE6A32E32E0B32E41E7C42E42E0D42E97
:1053F00055E7E52E52E0F52E08E712E06BE7662E42
:1054000062E0762E73E0272EC2010E944A25F40145
:1054100081934F01C2010E944A25F50181935F01EA
:10542000C2010E944A25F60181936F01C2010E94C8
:105430004A25F70181937F01C2010E944A25F801A4
:1054400081938F01C2010E944A25F30181933F019C
:105450002A94D1F6C2010E944A2580937402C201A7
:105460000E944A2580937E02C2010E944A258093B1
:105470007F020BE612E0EFE8AE2EE2E0BE2EFCE883
:10548000CF2EF2E0DF2EA2E9EA2EA2E0FA2EB5E955
:105490008B2EB2E09B2E83E0682E9AE0792EC2011B
:1054A0000E945B259C01729EC001739E900D112489
:1054B000F801968B858BC2010E945B259C01729E30
:1054C000C001739E900D1124F801948F838FC20147
:1054D0000E944A25F50181935F01C2010E944A257D
:1054E000F60181936F01C2010E944A25F701819361
:1054F0007F01C2010E944A25F40181934F016A9401
:105500000E5F1F4F6110CBCFC2010E944A258093CE
:105510009902C2010E944A2580939802C2010E940A
:105520004A2580939B02C2010E944A2580939A02D9
:1055300043E06FEC72E0C2010E946F25C2010E943D
:105540004A258093D202C2010E944A258093D30249
:10555000C2010E944A258093BF0246E060EC72E0DF
:10556000C2010E946F2542E064ED72E0C2010E9418
:105570006F25C2010E944A2580939C02C2010E94AD
:105580004A2580939D02C2010E944A2580939E0273
:1055900043E06FE972E0C2010E946F25C2010E94E0
:1055A0004A25182FC2010E944A259091B902191369
:1055B00004C09091BA028917F1F01093B902809358
:1055C000BA021092A8021092A7021092AE02109294
:1055D000AD021092AA021092A9021092B00210928B
:1055E000AF021092AC021092AB021092B202109273
:1055F000B10211E001C010E0C2010E944A2580936F
:10560000BB02C2010E944A258093BC02C2010E94D3
:105610004A259091BD02891719F08093BD0211E0CF
:10562000C2010E944A258093BE0243E066EC72E00C
:10563000C2010E946F2546E06EED72E0C2010E9439
:105640006F2543E0BE016F5F7F4FC2010E946F254F
:1056500043E050E06FEE72E0CE0101960E942D38DB
:10566000892B51F089819A81AB818093EF029093CD
:10567000F002A093F10211E0C2010E945B25909319
:10568000D9028093D802C2010E945B259093DB026D
:105690008093DA02C2010E945B259093DD02809321
:1056A000DC02C2010E944A258093F202C2010E94DC
:1056B0004A258093A202C2010E944A258093A30238
:1056C00043E063EF72E0C2010E946F2543E064EAA9
:1056D00072E0C2010E946F25C2010E944A25809398
:1056E000F602C2010E944A25833008F082E08093CE
:1056F000EE02F201EE57FF4F9081F2018081981384
:105700001DC08BE692E00E94991387E50E9418273E
:10571000111106C090919A0280916506981729F0A0
:1057200088EE93E00E948B344EC01092C1060E9416
:10573000E02D8BE692E00E9499131BC10E94132674
:10574000632D8BE692E00E94DD1413C181E40E9478
:1057500018270E947E210DC187E60E9418270E940B
:10576000642407C187E40E9418270E94E31801C13E
:10577000C2010E944A25F201EE57FF4F2081F2013B
:1057800090812913F6C08E3F11F48091EE02833090
:1057900040F08D3F09F0EDC08BE692E00E94541579
:1057A0000AC08093EE028BE692E00E94F8138BE62B
:1057B00092E00E949913F20181810E94182784E6E9
:1057C00090E00E9471340E94E80FD3C080E50E94EF
:1057D000182783E08093C406CCC00E94961EC9C0DF
:1057E000C2010E945B25F201EE57FF4F3081F201AA
:1057F000208132130FC00E94A3058BE692E00E9425
:10580000991382E47AC0F201EE57FF4F8081823013
:1058100009F44AC00E941326ACC0C2010E945B2555
:105820009093110280931002C2010E945B25909315
:10583000130280931202C2010E945B25919581950B
:1058400091099093150280931402C2010E945B2576
:1058500090936F0180936E01C2010E945B2590932B
:105860008801809387010E94E00D83C0F201EE570A
:10587000FF4F80818D3071F6C2010E944A258093CE
:105880006D03F12CC2010E945B258C01C2010E94B4
:105890005B25AC01B8018F2D0E940A1FF394F3E041
:1058A000FF12F0CF83E429C0C2010E944A25182FBD
:1058B000C2010E944A25682F812F0E94A7348823A5
:1058C00009F457C084E519C00E9486028DE403C024
:1058D0000E945C028DE60E9418270E944D0149C07B
:1058E000F201EE57FF4F8081813009F093CFC20162
:1058F0000E944A250E940A1085E40E94182739C098
:1059000089E48093DC0410925D051092DB04109210
:105910005E0566E4E62E62E0F62E71EAC72E73E0BD
:10592000D72E0FEA13E0F701619171917F018BEDA2
:1059300094E00E94A825F601619171916F018BEDB1
:1059400094E00E94A825F801608171810090BC025A
:1059500002C0759567950A94E2F78BED94E00E947A
:10596000A825065F1F4FFCE4EF16F2E0FF06D9F60C
:1059700082CC0F900F900F90DF91CF911F910F91DC
:10598000FF90EF90DF90CF90BF90AF909F908F905F
:105990007F906F905F904F903F902F9008951F934E
:1059A000CF93DF930E947D26882309F46BC08091FA
:1059B000DA04811110C0E091E205F0E0ED51FA4FF8
:1059C00080818E3331F40E94592681E08093DA047D
:1059D00002C00E94D7268091DA048130F9F40E9437
:1059E0007D268330D8F00E945926D82F0E94592650
:1059F000C82F8093D904182F1D0F0E945926181301
:105A00003CC0C138D0F5D09356041092D704109200
:105A100055041092D80482E08093DA048091DA046D
:105A2000823081F5C091D9040E947D262C2F30E070
:105A300090E02817390734F58091D7048C1740F48B
:105A40000E945926682F85E594E00E949225F4CFA4
:105A5000C091D8040E945926C8130AC08091C3017E
:105A60008F7D8093C30185E594E00E94DF2802C00A
:105A70000E9413261092DA0405C00E941326109289
:105A8000DA04CCCFDF91CF911F910895CF92DF92AE
:105A9000EF92FF926091490470914A04882777FD44
:105AA0008095982F0E9475362091320230913302F2
:105AB00040913402509135020E9429376B017C01DC
:105AC00060914D0470914E04882777FD8095982F42
:105AD0000E9475362091360230913702409138028B
