:020000040800F2
:1000000000040020C7020008D5020008D70200083B
:10001000D9020008DB020008DD0200080000000031
:10002000000000000000000000000000DF020008E7
:10003000E102000800000000E3020008E5020008F9
:10004000A70F0008E7020008E7020008E70200081F
:10005000E7020008E7020008B10D0008E702000807
:10006000D90D0008030E00082F0E0008E702000853
:10007000E7020008E7020008E7020008E7020008BC
:10008000E7020008E7020008E7020008E7020008AC
:10009000E7020008E7020008E7020008E70200089C
:1000A000E7020008E7020008E7020008E70200088C
:1000B00051420008E90F000865390008E70200080E
:1000C000E7020008E7020008E7020008E70200086C
:1000D000E7020008990A00084B370008E702000809
:1000E000E7020008E7020008E7020008E70200084C
:1000F000E7020008E7020008E7020008E70200083C
:10010000E7020008E7020008BF110008E702000844
:10011000E7020008E7020008E7020008E70200081B
:10012000E7020008E7020008E7020008E70200080B
:1001300000F002F800F0B2F80AA090E8000C824447
:100140008344AAF10107DA4501D100F0A7F8AFF224
:10015000090EBAE80F0013F0010F18BFFB1A43F0A5
:100160000103184748770000687700000A444FF001
:10017000000C10F8013B13F0070408BF10F8014B06
:100180001D1108BF10F8015B641E05D010F8016B4B
:10019000641E01F8016BF9D113F0080F1EBF10F8AF
:1001A000014BAD1C0C1B09D16D1E58BF01F801CBD2
:1001B000FAD505E014F8016B01F8016B6D1EF9D555
:1001C0009142D6D37047000000230024002500266A
:1001D000103A28BF78C1FBD8520728BF30C148BFAA
:1001E0000B6070476E2905F02880702904F07D8629
:1001F000662906F02C84652906F02984672906F013
:1002000026846129AFF3008003681B0A28BF41F0F0
:100210008001692904F0E485642904F0E1857529E9
:1002200004F0DE856F2905F02281782904F04A86E2
:10023000E92905F0A780E42905F0A480F52905F057
:10024000A180EF2905F01F81F82904F04986036891
:10025000DB0928BF41F08001632905F02A8073295A
:1002600005F02F80E32905F09683F32905F09B83A1
:10027000002070471FB5AFF3008005F0E5FB0400D8
:100280000020002106F07CF8401C60600020002166
:1002900006F060F8E0601FBD10B510BD05F0A7FBCB
:1002A0001146FFF7E7FF00F066F805F079FCFFF76D
:1002B000F3FF00F0E3FB000030BF72B662B680F3DC
:1002C0000888704770470B4880470B4981F30888BE
:1002D0000A480047FEE7FEE7FEE7FEE7FEE7FEE727
:1002E000FEE7FEE7FEE7FEE705480649044A064B3F
:1002F00070470000C5020008600C002031010008B2
:1003000060040020600C0020600400201CB503F095
:10031000B6FB01280AD1A8A31022CDE90023134679
:10032000C8228C211E2003F0BAF909E0A5A31022EF
:10033000CDE900231346C8228C211E2003F0AFF91B
:100340001CBD1CB5A248006850B1A2A31022CDE983
:100350000023134678228C21104603F0A0F909E00F
:10036000A0A31022CDE90023134678228C21104649
:1003700003F095F91CBD2DE9F04188B00026002757
:10038000B046092000F020FB482000F0B7F94FF4F8
:100390001651482000F0BBFB00F03AFC00F078FC5E
:1003A00001F067FA93484168482088474FF4784045
:1003B0009149088091A31022CDE900231346C82259
:1003C0001E21084603F06BF991A31022CDE900230A
:1003D0001346C82232211E2003F061F992A3102295
:1003E000CDE900231346C82246211E2003F057F909
:1003F0001AE091A31022CDE900231346C8225A2106
:100400001E2003F04CF94FF4FA7000F0A8F98EA307
:100410001022CDE900231346C8225A211E2003F0E2
:100420003EF9642000F09BF903F0CCFA0028E0D1FB
:1004300089A31022CDE900231346C8225A211E2089
:1004400003F02DF98BA31022CDE900231346C82217
:100450006E211E2003F023F98BA31022CDE9002387
:100460001346C822A0211E2003F019F988A31022E8
:10047000CDE900231346C822B4211E2003F00FF952
:100480001F205D490880FFF741FF94E0002000F045
:100490002EFC0546042D17D103F0F1FA0546FF2D79
:1004A00027D00DB9012000E00020C5B21DB97BA006
:1004B00003F024FB02E07CA003F020FBFFF726FF03
:1004C0007CA003F01BFB14E0012D0FD10EB901201D
:1004D00000E00020C6B266B94FF6FF730093B02368
:1004E000F022A021462002F034FE02E00A2000F0B3
:1004F00036F9322C23D1BEB13A4671A103A804F0DB
:1005000009FC03AB1022CDE900231346C822A02129
:10051000462003F0C4F8394669A003F009FA781CB4
:10052000C7B2632F00DD0027FFF70BFF00246948E7
:10053000006808B9012000E00020664908606648AC
:10054000008810F4004F34D04FF6FF7300934FF43F
:10055000A073F022C8211E2002F0FBFD5E48008837
:1005600000F0FF0800205D4901F80800B8F1090F0C
:1005700002D0B8F1080F0FD159A1584804F0B0FDCE
:1005800010B900205949086059A1544804F0A8FD49
:1005900010B9012055490860504B1022CDE90023C5
:1005A0007723D122C8211E2003F079F800204A4980
:1005B0000880601CC4B269E7524F4C453A4D6173E4
:1005C00074657200524F4C453A536C617665200059
:1005D000140122425354413A436F6E6E6563746551
:1005E000642000005354413A446973636F6E6E6532
:1005F00063740000B000002012000020414C494507
:100600004E54454B2053544D3332205E5F5E000004
:100610004843303520424C5545544F4F54482043B1
:100620004F4D20544553540041544F4D40414C4987
:10063000454E54454B00000041544B2D4843303546
:10064000204572726F722100506C656173652043A2
:100650006865636B21212100574B5F55503A524F1B
:100660004C45204B4559303A53454E442F53544F37
:100670005000000041544B2D4843303520537461E5
:100680006E6462792100000053656E643A000000D8
:10069000526563656976653A0000000041542B524B
:1006A0004F4C453D3000000041542B524F4C453DCE
:1006B0003100000041542B524553455400000000C6
:1006C000414C49454E54454B204843303520256424
:1006D0000D0A0000948121421600002038030020FA
:1006E0002B4C454431204F4E000000009401234222
:1006F0002B4C454431204F46460000004FF0E0218E
:10070000096921F004014FF0E02211610146C2178E
:1007100000EB5272D2101F4B1A70194609784FF431
:100720007A7251439A1C118070471A4A12784243D8
:100730004FF0E0235A6100229A6101221A6100BF42
:100740004FF0E022116911F0010F02D011F4803F47
:10075000F6D000224FF0E0231A619A6170470D4AEB
:10076000921C128842434FF0E0235A6100229A61A2
:1007700001221A6100BF4FF0E022116911F0010F50
:1007800002D011F4803FF6D000224FF0E0231A612E
:100790009A61704700000020AC4A0A400243AC4B0B
:1007A0001A607047072323EA00021202A84B1B1DA0
:1007B00019684FF6FF031940A64B194311434FF038
:1007C000E023C3F80C1D70472DE9F04704460D46A1
:1007D00016461F463046F11706EB91714FEAA10904
:1007E000F11706EB91718910A6EB810101F0FF0A68
:1007F000042101EBCA0000F0FF0A3846FFF7D2FFE0
:10080000C7F1040004FA00F80F203841284040EAFC
:10081000080808F00F08202E09DA8F480068012127
:10082000B14008434FF0E021C1F800010BE08A48D5
:10083000001D0168A6F120020120904001434FF005
:10084000E020C0F80411854850F8290008FA0AF1A0
:100850000143824840F82910BDE8F08770B50D4685
:10086000CE1701EB9676B310CE1701EB9676B61045
:10087000A1EB8606B606340E794DAD6945F001054B
:10088000774EB5614FEAB63555F823600F25A54080
:10089000AE43744D45F8236055F8235000FA04F632
:1008A0003543704E46F823506F4D2E6801258D401C
:1008B0002E436C4D083DC5F8006412F0010F09D0BD
:1008C000694D0C352E6801258D402E43654D083D40
:1008D000C5F80C6412F0020F09D0634D08352E687C
:1008E00001258D402E435F4D083DC5F8086470BD5D
:1008F00000B500205A490861C860142048610020F2
:100900008861C8610846006840F001000860084638
:1009100040685649084052494860084600685449B2
:1009200008404F4908600846006820F480200860AD
:100930000846406820F4FE004860002088600021DE
:100940004FF00060FFF728FF00BD10B540480830A9
:10095000006840F004004FF0E021C1F8100D40485D
:10096000C06940F080503E49C8614248406840F448
:100970008070404948600846006840F00400086004
:100980000846006840F002000860FFF795FC10BDC3
:100990003048001D2E49091D086070470146084671
:1009A00049062F4A926942F001022D4B9A612D4A65
:1009B000083A526822F0E0622A4B083B5A601A4615
:1009C00052680A435A60704730B504460025FFF765
:1009D0008FFF2348006840F480302149086000BF41
:1009E0001F480068400CFBD04FF480601C494860F1
:1009F000A01EC4B20846406840EA844048600846E9
:100A0000406840F4803048601B48006840F0320085
:100A1000194908601248006840F080701049086069
:100A200000BF0F480068400EFBD00D48406840F002
:100A300002000B49486005E009484068C0F387059B
:100A400005F00305022DF7D130BD000080FFFF1F28
:100A500008ED00E00000FA0500E100E000E400E03D
:100A60000010024008000140000401400000FFF8AF
:100A7000FFFFF6FE0070004000200240014600BF6C
:100A8000704700BF5A4A128812F0400FFAD0C2B223
:100A9000574B1B1D1A8070475549098811F0200FCC
:100AA00034D05349091D0988C8B25249098811F444
:100AB000004F2BD14F49098811F4804F0CD00A28E0
:100AC00003D000214B4A118020E04A49098841F4B3
:100AD0000041484A118019E00D2806D1454909888E
:100AE00041F48041434A118010E042490988C1F332
:100AF0000D01414A50543F490988491C3D4A118023
:100B000011460988C72901DD0021118070472DE9B0
:100B1000F05F04460D46280105F00BFE814637497B
:100B200004FB01F005F005FE8246494605F0CAFCCB
:100B30000646304605F0B8FD87B2384605F0F9FDA7
:100B40008346314605F0A3FE82464FF0834105F00F
:100B5000F5FD814605F0A8FD80463F0107EB080042
:100B600087B22748806940F004002549886108461B
:100B7000806940F4804088612248006820F47F60EA
:100B80002149C1F804080846D0F8040840F40B6075
:100B9000C1F804081A48C06840F480401849C86089
:100BA0000846C06820F48040C8601848A0F808785B
:100BB0000F480C30008842F20C0108431349A1F899
:100BC0000C080846B0F80C0840F48070A1F80C0836
:100BD0000846B0F80C0840F0200005490C310880A8
:100BE0000223252203210846FFF7EEFDBDE8F09F12
:100BF00000380140040000209C01002040420F000A
:100C00000010024004080140000001400030014093
:100C10001B48806940F008001949886108468069CE
:100C200040F0400088611748006820F470001649C1
:100C3000C1F8000C0846D0F8000C40F44010C1F890
:100C4000000C0846D0F80C0C40F02000C1F80C0C49
:100C50000E48D0F8000820F470000C49C1F80008D4
:100C60000846D0F8000840F44010C1F800080846D3
:100C7000D0F80C0840F02000C1F80C0870470000C4
:100C800000100240000C0140000001400010014033
:100C90003D48806940F004003B498861084680690E
:100CA00040F0400088613948006820F00F00384962
:100CB000C1F800080846D0F8000840F00800C1F864
:100CC000000834480068344908403449C1F8000835
:100CD00030480068324908433049C1F800080846E6
:100CE000D0F80C0840F01C00C1F80C08704710B593
:100CF000044614B101202B4908702A4800780028C6
:100D00002BD02948006858B12748001F006838B127
:100D100025480838006818B12448006801281CD10B
:100D20000A20FFF71CFD00201E4908701E480068BD
:100D300008B9012010BD1C48001F006808B9022036
:100D4000F8E719480838006808B90320F2E717489F
:100D50000068012815D10420ECE713480068012839
:100D60000FD11148001F006801280AD10E48083829
:100D70000068012805D10D48006810B90120094913
:100D800008700020D6E70000001002400008014073
:100D90000000014000180140FF00F0FF001001407A
:100DA000008808000C0000201001234200012142AD
:100DB00010B50A20FFF7D3FC45480068012807D189
:100DC0004448006808B9012000E00020414908605B
:100DD00001204149086010BD10B50A20FFF7BFFC93
:100DE0003E48006848B93B480C38006808B9012003
:100DF00000E0002037490C390860042036490860BB
:100E000010BD10B50A20FFF7AAFC3448001D006889
:100E100048B932488C30006808B9012000E0002051
:100E20002E498C31086008202B49086010BD10B590
:100E30000A20FFF794FC29480830006898B9254833
:100E40000C38006808B9012000E0002021490C3965
:100E500008602348D0F8940108B9012000E0002080
:100E60001E498C31086010201B49086010BD10B568
:100E7000FFF70EFF022200210846FFF7EFFC0122D8
:100E800002210420FFF7EAFC012203210420FFF7DE
:100E9000E5FC012204210846FFF7E0FC02230622BC
:100EA00003211846FFF790FC022308221946184632
:100EB000FFF78AFC0223092201211846FFF784FC70
:100EC00002230A2200211846FFF77EFC10BD000015
:100ED00000012142A0812142140401400801234263
:100EE0000000234245F25552384B1A601A465060B2
:100EF00091604AF6AA221A604CF6CC421A607047FA
:100F00004AF6AA2031490860704770B504460D467C
:100F100016462F48C06940F400602D49C8612D492C
:100F2000097804EA01002B4908702B48006840EA60
:100F3000C6102A49C1F8040C274800684FF6807192
:100F400008402649C1F8040C0846D0F8040C284390
:100F5000C1F8040C2048001F00681E4909780843A6
:100F60001E49C1F8000C0846D0F8000C40F0800083
:100F70001949091F08600223002203211846FFF7C0
:100F800023FC00201549C1F8080C0846D0F8040CD1
:100F900040F400701049086070BD00F07F010E4AF7
:100FA000121F1160704700B50A480078FFF7F5FF7F
:100FB00000200949091D08600948D0F8940108B9C2
:100FC000012000E000200749086000BD003000401B
:100FD000001002400D000020042C004000200040C2
:100FE0000000234294012342A348008810F0010F1F
:100FF00007D0A248006808B9012000E000209F49FE
:1010000008609D48008820F001004FF08041A1F861
:101010001004704770B504460D469948C06940F009
:1010200002009749C86194481C3004808804A0F8E5
:101030002854B0F80C0440F001008904A1F80C0415
:101040000846B0F8000440F00100A1F800040223B3
:101050001D2203210120FFF7B7FB70BD884AD2692A
:1010600042F00202864BDA611A46926942F00802A7
:101070009A61844A126822F47002834BC3F8002CF0
:101080001A46D2F8002C42F43002C3F8002C7C4AF5
:10109000926942F001027A4B9A617B4A526822F4CB
:1010A0004062794B5A601A46526842F400625A60B4
:1010B0009A03A2F82C04A2F82814B2F8182442F4D7
:1010C000E0429B03A3F818241A46B2F8182442F40D
:1010D0000062A3F818241A46B2F8202442F0100245
:1010E000654B10331A80DA13D303A3F80024D2031C
:1010F000B2F8002442F001025F4B103B1A807047A7
:1011000070B504460D465E48C06940F008005C4971
:10111000C8610846806940F0040088615B48006847
:1011200020F00F005849C1F800080846D0F8000820
:1011300040F00800C1F800080846D0F80C08C1F8D3
:101140000C088803A0F82C4CA0F8285CB0F8180C08
:1011500040F001008903A1F8180C0846B0F8180CFB
:10116000A1F8180C0846B0F8180CA1F8180C08469D
:10117000B0F8200CA1F8200C0846B0F8200C40F084
:101180000100A1F8200C0846B0F80C0C40F0020059
:10119000A1F80C0C0846B0F80C0C40F00100A1F8C6
:1011A0000C0C0846B0F8000C40F00100A1F8000C4F
:1011B0000223322200211846FFF706FB70BD344996
:1011C00008883449097811F0800F50D110F0010FD0
:1011D0001AD03049097811F0400F15D02D490978FF
:1011E00001F03F013F290AD12A49097841F08001E5
:1011F000284A11704FF6FF71274A118004E02549F3
:101200000978491C234A117010F0020F2FD0214990
:10121000097811F0400F14D01E49097841F080017F
:101220001C4A11701A49243109881B4A11804FF059
:101230008041B1F8201C21F00201154A10321180C2
:1012400015E00021134A1170134A118011490978E1
:1012500041F040010F4A117000210D4A14321180F3
:101260001107B1F8201C41F00201121F118000216A
:10127000074A118070470000100400409401234287
:1012800000100240000C0140000001400008014035
:10129000100C00400E00002010000020F9490880CA
:1012A0007047F849891C08807047F648801C008800
:1012B0007047F44A10804FF0D842A2F800187047E7
:1012C00010B504462046FFF7E9FF0520FFF72DFA89
:1012D000FFF7EBFF10BDEC48C079EA490880704782
:1012E000E849891C0880704730B5014601F01F04A9
:1012F000C1F34513CA0AE50205EB43151544A8B22C
:1013000030BD00BF0100A0F10102D0B2FAD1704798
:1013100010B503460C46DC488088A0F513414139DE
:1013200005D0D9488088A0F5D041043914D1D649D8
:10133000087AFFF7B3FF1812FFF7B3FFD8B2FFF731
:10134000B0FFD149487AFFF7A9FF2012FFF7A9FFA4
:10135000E0B2FFF7A6FF12E0CB488079012804D164
:10136000C9480088401EC01A83B2C749087A194686
:10137000FFF79FFFC449487A2146FFF79AFF10BD47
:101380002DE9F04104460D4600260027B046BE4830
:101390000088A04203DDBC484088A84202DC00204F
:1013A000BDE8F08129462046FFF7B2FFB6488088A5
:1013B000A0F51341413905D0B3488088A0F5D0414C
:1013C000043903D12E20FFF769FF02E02220FFF746
:1013D00065FFAD488088A0F51341203902D1022075
:1013E000FFF78FFFA748801C008800B1002602206D
:1013F000FFF787FFA348801C0688A3488088A0F5D4
:101400001341413909D10220FFF77BFF9D48801C21
:10141000B0F80080F7B23F0208E09B488088A0F552
:10142000D041043902D19748801C068896488088AC
:10143000A0F51341253917D093488088A0F58A413B
:10144000353911D090488088A0F58A4131390BD0C8
:101450008D488088A0F50941893905D08A4880885F
:10146000A0F53541053901D1304699E78648808895
:10147000A0F51341413907D1F012C002B91240EA78
:10148000411040EAE8208BE73046FFF72DFF87E761
:1014900000B57D488088A0F51341413905D07A48D0
:1014A0008088A0F5D041043903D12920FFF7F6FE4A
:1014B00004E040F273110720FFF7FBFE00BD00B50A
:1014C00071488088A0F51341413905D06E48808865
:1014D000A0F5D041043903D12820FFF7DFFE03E057
:1014E00000210720FFF7E5FE00BD70B5034600248C
:1014F00000256548807901281ED163488088A0F5C1
:10150000D041043918D0082B15D2DFE803F00406C7
:10151000080A0C0E101206230DE007230BE004232B
:1015200009E0052307E0012305E0002303E003238E
:1015300001E0022300BF00BF53488088A0F513419B
:10154000413905D050488088A0F5D04104397CD17C
:10155000082B1CD2DFE803F00406090C0F12151843
:1015600000BF14E044F0800411E044F040040EE0B9
:1015700044F0C0040BE044F0200408E044F06004B0
:1015800005E044F0A00402E044F0E00400BF00BF26
:10159000362544F008043C488088A0F5D041043941
:1015A00001D144F0020421462846FFF782FE14F0E0
:1015B000200F0DD03448008833494988884214DA16
:1015C00031480688408830490880084646800CE04B
:1015D0002D4800882C494988884206DD2A4806881B
:1015E000408829490880084646802749087AFFF73D
:1015F00055FE0020FFF755FE0020FFF752FE22495E
:101600000988491EC1F30F20FFF74BFE1E490988C8
:10161000491EC8B2FFF745FE1B49487AFFF73EFE58
:101620000020FFF73EFE0020FFF73BFE16494988E9
:10163000491EC1F30F20FFF734FE13494988491EA4
:10164000C8B2FFF72EFE37E0FFE7082B21D2DFE814
:1016500003F004070A0D0F12151D44F0300418E0C2
:1016600044F0100415E044F0200412E000BF10E044
:1016700044F038040DE044F028040AE044F0180473
:1016800007E00000FE07006C6402002044F008043C
:1016900000BF00BFFF488088A0F50941893904D107
:1016A000112546F24000044302E0032544F480542F
:1016B00021462846FFF7FDFD70BD30B504460D46B6
:1016C00029462046FFF724FEFFF705FEF248008872
:1016D000F249088030BD30B503460C461546ED484A
:1016E0008088A0F51341413905D0EA488088A0F5EB
:1016F000D041043914D1E749087AFFF7CFFD181219
:10170000FFF7CFFDD8B2FFF7CCFDE249487AFFF7EB
:10171000C5FD2012FFF7C5FDE0B2FFF7C2FD12E0E4
:10172000DC488079012804D1DA480088401EC01ABC
:1017300083B2D849087A1946FFF7BBFDD549487AE4
:101740002146FFF7B6FDD348C079D449891E0880E9
:101750004FF0D840A0F8005830BD10B50446002C1A
:101760003DD1CC498871F02008804FF4A0704880AA
:1017700008468088A0F51341413905D0C5488088C6
:10178000A0F5D041043914D12C20C249C8712A20B7
:1017900008722B20487208468088A0F5D041043991
:1017A0004ED14FF4A070BB4908804FF4F0704880D0
:1017B00046E0B8488088A0F50941893907D1222040
:1017C000B449C8714E2008724F20487238E0222078
:1017D000B049C871202008722120487230E0AD481D
:1017E0008088A0F5D04104392AD00120A949887108
:1017F0004FF4A0700880F020488008468088A0F54B
:101800001341413907D12C20A249C8712A200872FE
:101810002B20487214E09F488088A0F5094189393F
:1018200007D122209B49C8714F2008724E20487270
:1018300006E022209749C8712120087220204872B2
:101840000020FFF752FE10BD70B5044600269148F7
:1018500005884088454300210846FFF759FDFFF7FA
:101860003AFD00BF02E08D480480761CAE42FAD3F8
:1018700070BD10B58A48406940F48070884948615D
:101880000846806940F0080088610846806940F099
:10189000200088610846806940F040008861084661
:1018A000806940F4807088617E48006820F00F00F5
:1018B0007D49C1F8000C0846D0F8000C40F0030048
:1018C000C1F8000C79480068794908407949C1F8A5
:1018D000040476480068784908437649C1F804044E
:1018E0000846D0F8000400F0FF20C1F800040846C4
:1018F000D0F8000440F0BB10C1F800040846D0F84E
:1019000004080020C1F804080846D0F8040840F094
:10191000BB30C1F804080846D0F8000820F0704039
:10192000C1F800080846D0F8000840F03040C1F87F
:1019300000086248406820F470206049486008460A
:10194000406840F4302048600846006820F00F00EE
:1019500008600846006840F00B00086000204FF067
:1019600020418861C861C1F81C010846806940F4C3
:10197000805088610846806940F48040886108464C
:10198000806940F0100088610846C069C861084657
:10199000C06940F00100C8610846C06940F4706049
:1019A000C8610846D0F81C01C1F81C010846D0F8EF
:1019B0001C01C1F81C010846D0F81C0140F440701D
:1019C000C1F81C010846806940F00100886132209E
:1019D000FEF7C5FE01210020FFF76BFC3220FEF769
:1019E000BEFE0020FFF76CFC2A49888008468088EC
:1019F000FF280ADB08468088A0F57F41FF3904D024
:101A000024488088B0F5134F5CD1D320FFF746FC03
:101A1000FFF74BFCFFF749FCFFF747FC1D498880A7
:101A2000084680880006000C8880FFF73EFC1949B4
:101A3000898808431749888008468088A0F51341A3
:101A4000413918D0BF20FFF729FCFFF72EFCFFF724
:101A50002CFCFFF72AFCFFF728FC0E49888008467B
:101A600080880006000C8880FFF71FFC09498988E0
:101A700008430849888007488088A0F51341413908
:101A800020D004488088A0F5D04104391AD049F20A
:101A9000413015E064020020120000200008006CB4
:101AA00000100240000C01400000014004140140FD
:101AB00000F0FF0000100140BB0B00BB0020014004
:101AC000FF498880FE488188FEA003F009F9FC48A0
:101AD0008088A0F5134141397ED1CF20FFF7DEFB8E
:101AE0000020FFF7DEFBC120FFF7DBFB3020FFF714
:101AF000D8FBED20FFF7D2FB6420FFF7D2FB0320D9
:101B0000FFF7CFFB1220FFF7CCFB8120FFF7C9FBCB
:101B1000E820FFF7C3FB8520FFF7C3FB1020FFF78A
:101B2000C0FB7A20FFF7BDFBCB20FFF7B7FB3920C6
:101B3000FFF7B7FB2C20FFF7B4FB0020FFF7B1FB4A
:101B40003420FFF7AEFB0220FFF7ABFBF720FFF7D7
:101B5000A5FB2020FFF7A5FBEA20FFF79FFB002055
:101B6000FFF79FFB0020FFF79CFBC020FFF796FBD1
:101B70001B20FFF796FBC120FFF790FB0120FFF72A
:101B800090FBC520FFF78AFB3020FFF78AFB30204F
:101B9000FFF787FBC720FFF781FBB720FFF781FB2B
:101BA0003620FFF77BFB4820FFF77BFB3A20FFF74F
:101BB00075FB5520FFF775FBB120FFF76FFB002089
:101BC000FFF76FFB1A20FFF76CFBB620FFF766FBF1
:101BD0000A20FFF766FB00E097E0A220FFF761FB19
:101BE000F220FFF75BFB0020FFF75BFB2620FFF7EF
:101BF00055FB0120FFF755FBE020FFF74FFB0F20BF
:101C0000FFF74FFB2A20FFF74CFB2820FFF749FB8B
:101C10000820FFF746FB0E20FFF743FB0820FFF7E5
:101C200040FB5420FFF73DFBA920FFF73AFB432080
:101C3000FFF737FB0A20FFF734FB0F20FFF731FBDC
:101C40000020FFF72EFB0020FFF72BFB0020FFF703
:101C500028FB0020FFF725FBE120FFF71FFB0020FA
:101C6000FFF71FFB1520FFF71CFB1720FFF719FBE1
:101C70000720FFF716FB1120FFF713FB0620FFF7E5
:101C800010FB2B20FFF70DFB5620FFF70AFB3C2033
:101C9000FFF707FB0520FFF704FB1020FFF701FB10
:101CA0000F20FFF7FEFA3F20FFF7FBFA3F20FFF778
:101CB000F8FA0F20FFF7F5FA2B20FFF7EFFA0020D4
:101CC000FFF7EFFA0020FFF7ECFA0120FFF7E9FA3F
:101CD0003F20FFF7E6FA2A20FFF7E0FA0020FFF79F
:101CE000E0FA0020FFF7DDFA0020FFF7DAFAEF2034
:101CF000FFF7D7FA1120FFF7D1FA7820FEF72FFD72
:101D00002920FFF7CBFA01F019BA6D488088A0F5B9
:101D1000D04104397ED11120FFF7C0FA1420FEF71C
:101D20001EFDD020FFF7BAFA0720FFF7BAFA4220CB
:101D3000FFF7B7FA1D20FFF7B4FAD120FFF7AEFA8C
:101D40000020FFF7AEFA1A20FFF7ABFA0920FFF7E1
:101D5000A8FAD220FFF7A2FA0120FFF7A2FA222068
:101D6000FFF79FFAC020FFF799FA1020FFF799FAC2
:101D70003B20FFF796FA0020FFF793FA0220FFF7C7
:101D800090FA1120FFF78DFAC520FFF787FA03209C
:101D9000FFF787FAC820FFF781FA0020FFF781FAE2
:101DA0002520FFF77EFA2120FFF77BFA0520FFF7B9
:101DB00078FA0020FFF775FA0A20FFF772FA65201B
:101DC000FFF76FFA2520FFF76CFA7720FFF769FA23
:101DD0005020FFF766FA0F20FFF763FA0020FFF7A5
:101DE00060FAF820FFF75AFA0120FFF75AFAFE20AE
:101DF000FFF754FA0020FFF754FA0220FFF751FAD8
:101E00002020FFF74BFA3620FFF748FA0820FFF7AB
:101E100048FA00E02AE03A20FFF740FA5520FFF7A1
:101E200040FA2B20FFF73AFA0020FFF73AFA002099
:101E3000FFF737FA0120FFF734FA3F20FFF731FAB6
:101E40002A20FFF72BFA0020FFF72BFA0020FFF7DC
:101E500028FA0120FFF725FADF20FFF722FA782081
:101E6000FEF77DFC2920FFF719FA4CE7144880881B
:101E7000A0F5134125397ED147F6F001E520FFF7A3
:101E800018FA4FF480710120FFF713FA4FF4E06164
:101E90000220FFF70EFA41F230010320FFF709FAA2
:101EA00000210420FFF705FA40F202210820FFF785
:101EB00000FA00210920FFF7FCF900210A2009E0BF
:101EC00064020020204C43442049443A25780D0AFE
:101ED00000000000FFF7EDF900210C20FFF7E9F901
:101EE00000210D20FFF7E5F900210F20FFF7E1F9B0
:101EF00000211020FFF7DDF907211120FFF7D9F9A4
:101F000000211220FFF7D5F900211320FFF7D1F9A6
:101F100000210720FFF7CDF941F290611020FFF773
:101F2000C8F940F227211120FFF7C3F99D211220A3
:101F3000FFF7BFF94FF4C8511320FFF7BAF9252175
:101F40002920FFF7B6F90D212B20FFF7B2F9072161
:101F50003020FFF7AEF940F203313120FFF7A9F945
:101F600003213220FFF7A5F940F206213520FFF7C3
:101F7000A0F9082100E062E03620FFF79AF940F26C
:101F800006413720FFF795F94FF441713820FFF7EC
:101F900090F907213920FFF78CF940F202613C20CB
:101FA000FFF787F908213D20FFF783F90021502032
:101FB000FFF77FF9EF215120FFF77BF90021522035
:101FC000FFF777F940F23F115320FFF772F94FF412
:101FD00027416020FFF76DF901216120FFF769F9C2
:101FE00000216A20FFF765F900218020FFF761F9E1
:101FF00000218120FFF75DF900218220FFF759F9C8
:1020000000218320FFF755F900218420FFF751F9C3
:1020100000218520FFF74DF910219020FFF749F9A5
:102020004FF4C0619220FFF744F940F233110720CA
:10203000FFF73FF922210020FFF73BF963E6FF4855
:102040008088A0F5134128397ED141F28F01EC2020
:10205000FFF72FF941F23421EF20FFF72AF94FF46F
:1020600080710120FFF725F94FF4E0610220FFF7AE
:1020700020F941F230010320FFF71BF90021042071
:10208000FFF717F940F202210820FFF712F90021AB
:102090000920FFF70EF900210A20FFF70AF90121B4
:1020A0000C20FFF706F900210D20FFF702F90021AF
:1020B0000F20FFF7FEF800211020FFF7FAF80721A4
:1020C0001120FFF7F6F800211220FFF7F2F80021A7
:1020D0001320FFF7EEF801210720FFF7EAF832207E
:1020E000FEF73DFB41F290411020FFF7E2F840F28D
:1020F00027211120FFF7DDF83220FEF730FB8A217F
:102100001220FFF7D6F83220FEF729FB4FF4D0510A
:102110001320FFF7CEF806212920FFF7CAF80D217A
:102120002B20FFF7C6F83220FEF719FB00212020F4
:10213000FFF7BFF800212120FFF7BBF83220FEF7A0
:102140000EFB0021302000E074E0FFF7B2F840F20F
:1021500004613120FFF7ADF840F205313220FFF77E
:10216000A8F800213520FFF7A4F840F609413620F1
:10217000FFF79FF84FF401713720FFF79AF840F20C
:1021800001313820FFF795F840F207713920FFF749
:1021900090F800213C20FFF78CF840F60A213D2002
:1021A000FFF787F83220FEF7DAFA00215020FFF718
:1021B00080F8EF215120FFF77CF800215220FFF733
:1021C00078F840F23F115320FFF773F84FF427419E
:1021D0006020FFF76EF801216120FFF76AF8002107
:1021E0006A20FFF766F800218020FFF762F80021DF
:1021F0008120FFF75EF800218220FFF75AF80021C6
:102200008320FFF756F800218420FFF752F80021C1
:102210008520FFF74EF810219020FFF74AF84FF481
:10222000C0619220FFF745F840F233110720FFF715
:1022300040F868E581488088A0F5134120397ED1B7
:102240000846FFF736F84FF480710120FFF731F8A8
:102250004FF4E0610220FFF72CF841F23001032037
:10226000FFF727F800210420FFF723F840F20221AE
:102270000820FFF71EF800210920FFF71AF80021B7
:102280000A20FFF716F801210C20FFF712F80021B1
:102290000D20FFF70EF800210F20FFF70AF832207B
:1022A000FEF75DFA40F201110720FFF702F8322035
:1022B000FEF755FA4FF486511020FEF7FAFF07217A
:1022C0001120FEF7F6FF4FF488711220FEF7F1FFA0
:1022D0004FF430611320FEF7ECFF00212920FEF7B8
:1022E000E8FF44F210012B20FEF7E3FF002150200D
:1022F000FEF7DFFFEF215120FEF7DBFF0021522028
:10230000FEF7D7FF40F23F115320FEF7D2FF4FF404
:102310001C516020FEF7CDFF01216120FEF7C9FFAF
:1023200000216A20FEF7C5FF00218020FEF7C1FFD3
:1023300000218120FEF7BDFF0021822000E02CE07B
:10234000FEF7B7FF00218320FEF7B3FF00218420B2
:10235000FEF7AFFF00218520FEF7ABFF1021902094
:10236000FEF7A7FF00219220FEF7A3FF0121932093
:10237000FEF79FFF4FF488719520FEF79AFF00212A
:102380009720FEF796FF00219820FEF792FF40F27B
:1023900073110720FEF78DFFB5E428488088A0F56B
:1023A000134131397DD141F21401E720FEF781FF5D
:1023B0004FF480710120FEF77CFF4FF40071022082
:1023C000FEF777FF41F238010320FEF772FF40F27B
:1023D00002210820FEF76DFF00210920FEF769FFAA
:1023E00000210A20FEF765FF00210C20FEF761FFA7
:1023F00000210D20FEF75DFF00210F20FEF759FFA1
:1024000000211020FEF755FF07211120FEF751FF94
:1024100000211220FEF74DFF00211320FEF749FF97
:10242000C820FEF79CF941F290611020FEF741FFB1
:1024300040F227211120FEF73CFF01E0640200205A
:102440003220FEF78CF90C211220FEF732FF3220E9
:10245000FEF785F94FF400611320FEF72AFF1121E2
:102460002920FEF726FF0B212B20FEF722FF32202A
:10247000FEF775F900212020FEF71BFF40F23F1107
:102480002120FEF716FF00213020FEF712FF4FF447
:1024900083713120FEF70DFF00213220FEF709FF86
:1024A00000E067E04FF401713520FEF702FF41F2D2
:1024B0000A613620FEF7FDFE40F207713720FEF775
:1024C000F8FE4FF483713820FEF7F3FE40F20771F7
:1024D0003920FEF7EEFE40F202413C20FEF7E9FE15
:1024E00040F60F413D20FEF7E4FE00215020FEF7AC
:1024F000E0FEEF215120FEF7DCFE00215220FEF726
:10250000D8FE40F23F115320FEF7D3FE4FF41C518A
:102510006020FEF7CEFE01216120FEF7CAFE0021F9
:102520006A20FEF7C6FE00218020FEF7C2FE0021D1
:102530008120FEF7BEFE00218220FEF7BAFE0021B8
:102540008320FEF7B6FE00218420FEF7B2FE0021B4
:102550008520FEF7AEFE10219020FEF7AAFE4FF474
:10256000C0619220FEF7A5FE40F233110720FEF76E
:10257000A0FE7AE4FF488088A0F5A84108397ED102
:102580004FF480710120FEF794FE4FF4E0610220C9
:10259000FEF78FFE41F230010320FEF78AFE002194
:1025A0000420FEF786FE40F207210820FEF781FE98
:1025B00000210920FEF77DFE00210A20FEF779FEAA
:1025C00000210C20FEF775FE00210D20FEF771FEA4
:1025D00000210F20FEF76DFE1420FEF7C0F841F237
:1025E000B0611020FEF765FE01211120FEF761FEAB
:1025F00001211720FEF75DFE4FF49C711220FEF7BB
:1026000058FE4FF400611320FEF753FE09212920E4
:10261000FEF74FFE09212A20FEF74BFE0021A420E1
:10262000FEF747FE00215020FEF743FEEF21512028
:10263000FEF73FFE00215220FEF73BFE40F23F1125
:102640005320FEF736FE4FF41C516020FEF731FE9A
:1026500001216120FEF72DFE00216A20FEF729FEF0
:1026600000218020FEF725FE00218120FEF721FEBB
:1026700000218220FEF71DFE0021832000E023E0E0
:10268000FEF717FE00218420FEF713FE00218520AF
:10269000FEF70FFE13219020FEF70BFE0021922083
:1026A000FEF707FE03219320FEF703FE4FF4887127
:1026B0009520FEF7FEFD40F273110720FEF7F9FDAD
:1026C0003220FEF74CF8B9E4AA488088A0F5A8515A
:1026D00005397ED10720FEF7ECFD3220FEF73FF8EA
:1026E0004FF48E711220FEF7E4FD0121A420FEF7C5
:1026F000E0FD0F210820FEF7DCFD08210A20FEF78F
:10270000D8FD08210D20FEF7D4FD40F207713020DE
:10271000FEF7CFFD07213120FEF7CBFD40F203612C
:102720003220FEF7C6FD4FF4E0613320FEF7C1FD15
:1027300040F202213420FEF7BCFD02213520FEF7D5
:10274000B8FD41F60F713620FEF7B3FD40F2077178
:102750003720FEF7AEFD00213820FEF7AAFD00214C
:102760003920FEF7A6FD40F207713A20FEF7A1FDE1
:1027700000213B20FEF79DFD07213C20FEF799FD3F
:1027800000213D20FEF795FD3220FDF7E8FF0121F5
:102790000720FEF78EFD01211720FEF78AFD32206B
:1027A000FDF7DDFF4FF4BD511020FEF782FD40F232
:1027B00017211120FEF77DFD4FF48F711220FEF7D7
:1027C00078FD4FF470611320FEF773FD00212A207D
:1027D00000E093E0FEF76DFD0A212920FEF769FD78
:1027E0004FF49F711220FEF764FD00215020FEF788
:1027F00060FDEF215120FEF75CFD00215220FEF725
:1028000058FD40F23F115320FEF753FD4FF41C5189
:102810006020FEF74EFD01216120FEF74AFD0021F8
:102820006A20FEF746FD00218020FEF742FD0021D0
:102830008120FEF73EFD00218220FEF73AFD0021B7
:102840008320FEF736FD00218420FEF732FD0021B3
:102850008520FEF72EFD13219020FEF72AFD4FF470
:1028600040719220FEF725FD05219320FEF721FD02
:1028700000219520FEF71DFD00219720FEF719FD90
:1028800000219820FEF715FD4FF480710120FEF71E
:1028900010FD4FF4E0610220FEF70BFD41F238011C
:1028A0000320FEF706FD00210420FEF702FD0021B3
:1028B0000C20FEF7FEFC00210F20FEF7FAFC0021A1
:1028C0002020FEF7F6FC00212120FEF7F2FC21215A
:1028D0000720FEF7EEFC1420FDF741FF61210720E1
:1028E000FEF7E7FC1420FDF73AFF40F273110720D2
:1028F000FEF7DFFC1420FDF732FF9AE41D488088C4
:10290000A0F5354105397ED10846FEF7D2FC0021FD
:102910000846FEF7CEFC00210846FEF7CAFC00215F
:102920000846FEF7C6FC0121A420FEF7C2FC1420D5
:10293000FDF715FF4FF41C516020FEF7BAFC40F282
:1029400002210820FEF7B5FC4FF405713020FEF798
:10295000B0FC43F215713120FEF7ABFC40F204618C
:102960003220FEF7A6FC40F616613320FEF7A1FCEC
:1029700002E000006402002042F211213420FEF740
:1029800098FC4FF4A8513520FEF793FC48F207510C
:102990003620FEF78EFC41F207413720FEF789FC16
:1029A00041F203413820FEF784FC20213920FEF754
:1029B00080FC1A219020FEF77CFC00211020FEF7FD
:1029C00078FC07211120FEF774FC00211220FEF78D
:1029D00070FC00211320FEF76CFC1420FDF7BFFEF5
:1029E0004FF4E6611020FEF764FC40F2371111202D
:1029F000FEF75FFC1420FDF7B2FE4FF4DC711220ED
:102A0000FEF757FC00E086E01420FDF7A8FE4FF427
:102A100070611320FEF74DFC80212A20FEF749FC4F
:102A200048212920FEF745FC1420FDF798FE4FF4BD
:102A300080710120FEF73DFC4FF4E0610220FEF7BB
:102A400038FC41F238010320FEF733FC40F202214A
:102A50000820FEF72EFC00210A20FEF72AFC0021A8
:102A60000C20FEF726FC00210D20FEF722FC302171
:102A70000E20FEF71EFC00215020FEF71AFCEF216D
:102A80005120FEF716FC00215220FEF712FC40F206
:102A90003F115320FEF70DFC4FF41C516020FEF750
:102AA00008FC01216120FEF704FC00216A20FEF7EA
:102AB00000FC11219020FEF7FCFB4FF4C061922036
:102AC000FEF7F7FB40F202419320FEF7F2FB0221F2
:102AD0009420FEF7EEFB1420FDF741FE01210720B4
:102AE000FEF7E7FB1420FDF73AFE61210720FEF711
:102AF000E0FB40F273110720FEF7DBFB00212020F2
:102B0000FEF7D7FB00212120FEF7D3FB2221002076
:102B1000FEF7CFFB12E3FF488088A0F54541053959
:102B20007DD10846FEF7C5FB00210846FEF7C1FB34
:102B30001420FDF714FE00210846FEF7BAFB002121
:102B40000846FEF7B6FB00210846FEF7B2FB00215F
:102B50000846FEF7AEFB0121A420FEF7AAFB1420D5
:102B6000FDF7FDFD4FF41C516020FEF7A2FB40F67F
:102B700006010820FEF79DFB40F203713020FEF7AE
:102B800098FB01213120FEF794FB04213220FEF74F
:102B900090FB4FF481713320FEF78BFB4FF44071B3
:102BA0003420FEF786FB40F203113520FEF781FB4F
:102BB0001F213620FEF77DFB40F203713720FEF720
:102BC00078FB01213820FEF774FB04213920FEF741
:102BD00070FB15219020FEF76CFB4FF482611020F2
:102BE000FEF767FB40F247211120FEF762FB4FF42E
:102BF000DE711220FEF75DFB4FF460611320FEF7DB
:102C000058FB7820FDF7ABFD4FF480710120FEF7F3
:102C100050FB4FF400710220FEF74BFB00E050E048
:102C200041F230010320FEF744FB08210A20FEF7A1
:102C300040FB00210C20FEF73CFB20210E20FEF77C
:102C400038FB00210F20FEF734FB00212020FEF787
:102C500030FB00212120FEF72CFB3D212A20FEF72E
:102C600028FB1420FDF77BFD2D212920FEF721FBF9
:102C700000215020FEF71DFB4DF2EF015120FEF721
:102C800018FB00215220FEF714FB40F23F115320A5
:102C9000FEF70FFB00216120FEF70BFB00216A20ED
:102CA000FEF707FB4FF440719220FEF702FB05216F
:102CB0009320FEF7FEFA4FF480710720FEF7F9FA31
:102CC0003CE294488088A0F5094189397DD10121F1
:102CD0000020FEF7EEFA4AF6A4010320FEF7E9FA17
:102CE00000210C20FEF7E5FA40F60C010D20FEF75E
:102CF000E0FA4FF42C510E20FEF7DBFAB0211E2033
:102D0000FEF7D7FA42F63F310120FEF7D2FA4FF430
:102D1000C0610220FEF7CDFA00211020FEF7C9FAAB
:102D200046F278011120FEF7C4FA00210520FEF7D3
:102D3000C0FA00210620FEF7BCFA4EF61C711620E0
:102D4000FEF7B7FA03211720FEF7B3FA40F233215A
:102D50000720FEF7AEFA00210B20FEF7AAFA0021A9
:102D60000F20FEF7A6FA00214120FEF7A2FA00216B
:102D70004220FEF79EFA00214820FEF79AFA40F220
:102D80003F114920FEF795FA00214A20FEF791FAFB
:102D900000214B20FEF78DFA4FF46F414420FEF7DF
:102DA00088FA00214520FEF784FA40F23F114620C0
:102DB000FEF77FFA40F207713020FEF77AFA4FF4FF
:102DC00001713120FEF775FA00E03DE04FF401712A
:102DD0003220FEF76EFA40F202513320FEF769FA14
:102DE00040F207513420FEF764FA4FF401713520A8
:102DF000FEF75FFA4FF401713620FEF75AFA40F2FF
:102E000002513720FEF755FA40F202313A20FEF720
:102E100050FA40F202313B20FEF74BFA002123200A
:102E2000FEF747FA00212420FEF743FA4FF4004151
:102E30002520FEF73EFA00214F20FEF73AFA002146
:102E40004E20FEF736FA79E132488088A0F58A41B3
:102E500031397ED101210020FEF72BFA0A20FDF73F
:102E60007EFC41F228611020FEF723FA0E21122089
:102E7000FEF71FFA40F639211320FEF71AFA0A204E
:102E8000FDF76DFC40211120FEF713FA50211520AB
:102E9000FEF70FFA0A20FDF762FC1E211220FEF752
:102EA00008FA0A20FDF75BFC4FF4B1511020FEF741
:102EB00000FA42F639211320FEF7FBF90A20FDF74C
:102EC0004EFC4FF480710120FEF7F3F94FF440718E
:102ED0000220FEF7EEF941F238010320FEF7E9F98E
:102EE00040F202210820FEF7E4F908210A20FEF74B
:102EF000E0F900213020FEF7DCF940F202413120F8
:102F0000FEF7D7F94FF483713220FEF7D2F940F281
:102F1000035101E0640200203320FEF7CAF94FF4A8
:102F200082713420FEF7C5F940F201313520FEF7F9
:102F3000C0F940F207713620FEF7BBF940F20531C7
:102F40003720FEF7B6F94FF402713820FEF7B1F9D9
:102F500000E03EE040F60B713920FEF7AAF90221AD
:102F60004120FEF7A6F94FF41C516020FEF7A1F9AD
:102F700001216120FEF79DF94FF404719020FEF7C6
:102F800098F94FF485719220FEF793F9042193206C
:102F9000FEF78FF94FF48071A020FEF78AF9012126
:102FA0000720FEF786F921210720FEF782F9232169
:102FB0000720FEF77EF933210720FEF77AF940F269
:102FC00033110720FEF775F90021A020FEF771F9F3
:102FD000B4E0FA488088A0F58A413539F8D130212B
:102FE0001520FEF766F910219A20FEF762F92021DC
:102FF0001120FEF75EF943F228411020FEF759F93F
:1030000002211220FEF755F941F238011320FEF794
:1030100050F92820FDF7A3FB12210846FEF749F9D5
:103020002820FDF79CFB43F220411020FEF741F9D8
:1030300043F238011320FEF73CF94620FDF78FFBE1
:1030400000213020FEF735F940F202413120FEF731
:1030500030F940F207313220FEF72BF94FF441717D
:103060003320FEF726F904213420FEF722F940F23E
:1030700001413520FEF71DF940F207713620FEF7B9
:1030800018F940F205313720FEF713F94FF4C26109
:103090003820FEF70EF94FF4C2613920FEF709F926
:1030A0004FF480710120FEF704F94FF440710220C3
:1030B000FEF7FFF841F230010320FEF7FAF840F680
:1030C00008010820FEF7F5F808210A20FEF7F1F8BC
:1030D0004FF41C516020FEF7ECF801216120FEF74F
:1030E000E8F84FF49F719020FEF7E3F84FF48071F9
:1030F0009220FEF7DEF84FF480719320FEF7D9F8A6
:103100004FF44051A020FEF7D4F81021A320FEF781
:10311000D0F801210720FEF7CCF821210720FEF787
:10312000C8F823210720FEF7C4F833210720FEF753
:10313000C0F840F233110720FEF7BBF80020FEF77D
:103140000CFB01209E4908604FF6FF70FEF77CFBE8
:1031500010BD2DE9F04F04460D4616461F46DDF81A
:1031600024804FF0000B301B401C1FFA80FBA94647
:1031700015E049462046FEF7CBF8FEF7ACF84FF0D5
:10318000000A06E04046FEF78CF80AF101001FFA3B
:1031900080FADA45F6DB09F101001FFA80F9B9453A
:1031A000E7DDBDE8F08F2DE9F84F04460D461646E1
:1031B0001F46DDF82880301B401C80B20090781B31
:1031C000401C1FFA80F94FF0000A1BE005EB0A00D3
:1031D00081B22046FEF79CF8FEF77DF84FF0000B19
:1031E00009E00AFB09B038F81000764908800BF1B5
:1031F00001001FFA80FB00988345F2DB0AF1010011
:103200001FFA80FACA45E1DBBDE8F88F2DE9FF4FD0
:1032100085B004460D461646002004900390A6EBA8
:1032200004080898A0EB0509A3460095B8F1000F23
:1032300002DD012001900AE0B8F1000F02D1002068
:10324000019004E04FF0FF300190C8F10008B9F19F
:10325000000F02DD4FF0010A09E0B9F1000F02D1C1
:103260004FF0000A03E04FF0FF3AC9F10009C845EA
:1032700002DDCDF8088001E0CDF80890002722E0BB
:10328000009881B21FFA8BF0FEF717FA04984044B9
:10329000049003984844039002990498884205DDFD
:1032A00004990298081A049001988344DDE90210F9
:1032B000884206DDDDE90210401A03900098504470
:1032C0000090781C87B20298401C8742D8DD09B074
:1032D000BDE8F08FF0B504460D4616461F462B4656
:1032E000324629462046FFF791FF3B4622462946B3
:1032F0002046FFF78BFF3B46324639462046FFF714
:1033000085FF3B46324629463046FFF77FFFF0BD3A
:103310002DE9F04304460D4616460027B04603202B
:10332000A0EB460946E0A5EB080291B2E21990B283
:10333000FEF7C3F9EA1B91B204EB080290B2FEF764
:10334000BCF9EA1991B204EB080290B2FEF7B5F9A4
:1033500005EB080291B2E21990B2FEF7AEF905EB67
:10336000080291B2E21B90B2FEF7A7F9EA1991B2F6
:10337000A4EB080290B2FEF7A0F9A5EB080291B207
:10338000E21B90B2FEF799F9EA1B91B2A4EB080296
:1033900090B2FEF792F97F1CB9F1000F03DAB80082
:1033A000801D814406E0A7EB080080000A308144BC
:1033B000A8F101084745B6DDBDE8F08364020020AE
:1033C000808121420008006C2DE9F84F04460D462B
:1033D00016461F460095CC48B0F800B0A6F1200074
:1033E000C6B20A98002850D182464BE00C2F07D174
:1033F00006EB4600C54901EB800010F80A8004E0A6
:10340000C34800EB061010F80A804FF0000931E0C5
:1034100018F0800F03D0BC48A0F800B003E0BD480E
:103420000088B949088029462046FEF746F94FEA48
:1034300048604FEA1068681C85B2B7480088A0420F
:1034400004DCB148A0F800B0BDE8F88F0098281A55
:10345000B8420BD1009D601C84B2AF480088A042E6
:1034600003DCA948A0F800B0EEE706E009F101008E
:1034700000F0FF09B9F1080FCADB00BF0AF1010033
:1034800000F0FF0ABA45B1DB47E04FF0000A42E026
:103490000C2F07D106EB46009C4901EB800010F889
:1034A0000A8004E09A4800EB061010F80A804FF0FA
:1034B000000928E018F0800F03D029462046FEF7C7
:1034C000FCF84FEA48604FEA1068681C85B29248E1
:1034D0004088A04203DC8C48A0F800B0B4E7009814
:1034E000281AB8420BD1009D601C84B28A4800881B
:1034F000A04203DC8448A0F800B0A5E706E009F18B
:10350000010000F0FF09B9F1080FD3DB00BF0AF199
:10351000010000F0FF0ABA45BADB7B48A0F800B012
:1035200092E710B50246012000E050430B00A1F1E4
:103530000104E1B2F9D110BD2DE9FF4F81B004467D
:1035400015461E460E9F4FF0000AD0463EE0A6EB01
:103550000800401EC1B20A20FFF7E3FFB5FBF0F000
:103560000A21B0FBF1F201FB120000F0FF09BAF1F1
:10357000000F16D1701E404513DDB9F1000F0ED1BA
:103580000023BB4607EBD771491001FB084188B205
:1035900000933B4620220299FFF716FF12E04FF0FE
:1035A000010A0023BB4607EBD771491001FB084114
:1035B00088B200933B4609F13001CAB20299FFF785
:1035C00003FF00BF08F1010000F0FF08B045BEDBBB
:1035D00005B0BDE8F08F2DE9FF4F82B004461546D7
:1035E0001E46DDE90F7800200190814652E0A6EBEF
:1035F0000900401EC1B20A20FFF793FFB5FBF0F0AF
:103600000A21B0FBF1F201FB120000F0FF0A019861
:1036100050BB701E484527DDBAF1000F22D118F0CB
:10362000800F0FD008F00103BB4607EBD77149109C
:1036300001FB094188B200933B4630220399FFF712
:10364000C3FE0EE008F00103BB4607EBD77149103B
:1036500001FB094188B200933B4620220399FFF702
:10366000B3FE13E00120019008F00103BB4607EB15
:10367000D771491001FB094188B200933B460AF11A
:103680003001CAB20399FFF79FFE00BF09F10100A4
:1036900000F0FF09B145AADB06B0BDE8F08F2DE9C7
:1036A000F84704460D4616461F46DDE9098904F031
:1036B000FF0A301986B2781987B219E0B44203DBE9
:1036C000544605EB080085B2BD4200DB18E000233C
:1036D000009399F80020434629462046FFF774FEE0
:1036E000404608EBD87104EB61018CB209F1010985
:1036F00099F800007E2803DC99F800002028DDDA24
:1037000000BFBDE8F887000012000020E66A00084C
:103710005A6F0008140000206402002058B10021F4
:103720009D4A11801107B1F8001841F001019A4A31
:10373000243A118008E098492439098821F00101D0
:103740004FF08042A2F80018704700B593480088F7
:1037500010F0200F1FD09148001D0088C3B2904880
:103760000088C82811DA00208B4908808C4800881E
:1037700010B90120FFF7D2FF894801880088401C5A
:10378000874A10808748435405E08548008840F404
:1037900000408349088000BD70B504460D4682484C
:1037A000C06940F004008049C8617B48083004804B
:1037B0008804A0F82858B0F80C0840F001008904EB
:1037C000A1F80C080846B0F8000840F00100A1F884
:1037D000000802231E2203210120FCF7F5FF70BD23
:1037E00070B504460D4616466F48406940F001002A
:1037F0006D4948610520FCF798FFA560E660002050
:103800002060206840F01000206020682060206860
:103810002060206840F080002060206820602068E0
:103820002060206840F4805020602068206070BDD7
:1038300070B504460D465C48806940F480705A4972
:1038400088615A48406820F0F000584948600846AE
:10385000406840F0300048605348806940F0040000
:10386000514988615248006820F47F405149C1F8AD
:1038700000080846D0F8000840F40B40C1F80008E2
:103880004948C06940F400304749C86108460069AA
:1038900040F4003008610846006920F400300861F7
:1038A00045486043B0FBF5F04FF04021A1F8080413
:1038B0003A480C30008842F20C01084337490C3179
:1038C000088080204FF04021A1F814043349091DDD
:1038D0003A4A3B48FFF784FF4FF04020B0F80C0411
:1038E00040F480704FF04021A1F80C040846B0F875
:1038F0000C0440F02000A1F80C040223262203212E
:103900001846FCF761FF41F61F416320FFF744FFB3
:10391000002023490880FFF701FF70BD026822F0F4
:10392000010202604160026842F0010202607047D9
:103930000FB438B505A800902048009A049901F00A
:10394000BBF900BF1E48001D00680028FAD11B48C3
:1039500001F0A6FBC4B221461948FFF7DFFF38BCCF
:103960005DF814FB00B50C481438008810F0010F06
:1039700011D00B48008840F40040094908800648EF
:103980001438008820F001004FF08041A1F81008A1
:103990000020FFF7C3FE00BD2408004000440040A3
:1039A00016000020380300200010024000200140D3
:1039B000000801400000014040420F00700200205A
:1039C0008000024070B50A2401268548806940F0D5
:1039D0001000834988618348006820F47F00814992
:1039E00008600846006840F4030008600846C068A4
:1039F00040F02000C8604FF416512420FFF718FF54
:103A000033E00120784908600A20FCF7A8FE77A07F
:103A1000FFF78EFF00207749C1F8900100250AE0EA
:103A20007548008810F4004F00D006E00520FCF730
:103A300096FE681CC5B20A2DF2DB00BF6E480088F6
:103A400010F4004F11D06C480088C6B200206A49BB
:103A50000880042E09D1694800784F2805D16748AD
:103A600040784B2801D1002604E02000A4F1010198
:103A7000CCB2C6D100BF04B90126304670BD70B5C6
:103A80000F2431E00120584908600A20FCF767FE46
:103A90005BA0FFF74DFF00260AE00A20FCF75FFE5F
:103AA0005548008810F4004F00D003E0701CC6B2E7
:103AB000142EF2DB00BF00204B4908604E480088FE
:103AC00010F4004F10D04C480088C5B200204A497D
:103AD00008800D2D08D1494800782B2804D147488B
:103AE00080793038C5B204E02000A4F10101CCB2E5
:103AF000C8D100BF04B9FF25284670BD2DE9F041AB
:103B000004460F2730E00120374908600A20FCF7FF
:103B100026FE21463DA0FFF70BFF00203549C1F8E6
:103B2000900100260AE03448008810F4004F00D0CD
:103B300006E00520FCF713FE701CC6B2142EF2DB63
:103B400000BF2D48008810F4004F0DD02A4800888F
:103B5000C5B2002028490880042D05D127480078E7
:103B60004F2801D1002504E03800A7F10101CFB2B0
:103B7000C9D100BF07B9FF252846BDE8F08170B55F
:103B800004460120184908600A20FCF7E8FD214698
:103B90001EA0FFF7CDFE00260AE01748008810F4AB
:103BA000004F00D006E00A20FCF7D9FD701CC6B219
:103BB000322EF2DB00BF00200B4908600E4800885F
:103BC00010F4004F0AD00C480088C5B200200A4902
:103BD00008800A4948550FA001F082F870BD000026
:103BE00000100240001001409001224241540D0A91
:103BF00000000000000022421600002038030020D0
:103C000041542B524F4C453F0D0A000025730D0ABD
:103C1000000000000D0A25730000000010B58CB0F4
:103C200004461E230BAA03A9204600F014FE0090B0
:103C3000009810B101200CB010BD9DF82C00044478
:103C400000200B900EE060489DF82C2050F82210C8
:103C500003A800F057FD00B908E09DF82C00401CB7
:103C6000C0B20B909DF82C000828ECDB00BF9DF83B
:103C70002C0007287ED2DFE800F00405395B8BA614
:103C8000A50000BF51A001F02BF851A001F028F8C9
:103C90005FA001F025F86EA001F022F87CA001F0F1
:103CA0001FF88BA001F01CF899A001F019F8A6A04C
:103CB00001F016F8ABA001F013F8B0A001F010F875
:103CC000B4A001F00DF8B9A001F00AF8BDA001F010
:103CD00007F8C3A001F004F8CEA001F001F8DAA0C3
:103CE00000F0FEFFE5A000F0FBFFAEE237A000F021
:103CF000F7FFF2A000F0F4FF00200B900EE0FF4869
:103D000000689DF82C2000EBC2004168FCA000F088
:103D1000E7FF9DF82C00401CC0B20B90F748007DD7
:103D20009DF82C108842EADC28A000F0D9FF8CE234
:103D300026A000F0D5FFF4A000F0D2FF00200B90E9
:103D40001CE0EE4909689DF82C2001EBC20101AB93
:103D500002AA486803A900F0A3FDE84800689DF89E
:103D60002C1050F8312003A9F7A000F0B9FF9DF8FE
:103D70002C0000E067E2401CC0B20B90DF48007DE1
:103D80009DF82C108842DCDC10A000F0A9FF5CE25A
:103D90000EA000F0A5FF0BAA03A9204600F08CFEA0
:103DA0009DF82C0060B9694603A800F0DEFC0B907A
:103DB0009DF82C0028B9E9A0009900F091FFE2E1FC
:103DC000DFE1D1E111E2E3E1180000200D0A00007B
:103DD0002D2D2D2D2D2D2D2D2D2D2D2D2D2D2D2D13
:103DE0002D2D2D2D2D2D2D2D55534D415254205619
:103DF000322E382D2D2D2D2D2D2D2D2D2D2D2D2DE2
:103E00002D2D2D2D2D2D2D2D2D2D2D200D0A00008C
:103E10002020202055534D415254CAC7D3C9414C8C
:103E200049454E54454BBFAAB7A2B5C4D2BBB8F65C
:103E3000C1E9C7C9B5C4B4AEBFDAB5F7CAD4BBA52A
:103E4000BDBBD7E9BCFE2CCDA8B9FD200D0A0000F2
:103E5000CBFC2CC4E3BFC9D2D4CDA8B9FDB4AEBF4E
:103E6000DAD6FACAD6B5F7D3C3B3CCD0F2C0EFC313
:103E7000E6B5C4C8CEBACEBAAFCAFD2CB2A2D6B48B
:103E8000D0D02ED2F2B4CB2CC4E3BFC90D0A0000AF
:103E9000D2D4CBE6D2E2B8FCB8C4BAAFCAFDB5C43E
:103EA000CAE4C8EBB2CECAFD28D6A7B3D6CAFDD79E
:103EB000D62831302F3136BDF8D6C629A1A2D7D6A3
:103EC000B7FBB4AEA1A2BAAFCAFDC8EB0D0A0000A1
:103ED000BFDAB5D8D6B7B5C8D7F7CEAAB2CECAFD25
:103EE000292CB5A5B8F6BAAFCAFDD7EEB6E0D6A76D
:103EF000B3D63130B8F6CAE4C8EBB2CECAFD2CB2A4
:103F0000A2D6A7B3D6BAAFCAFDB7B5200D0A000036
:103F1000BBD8D6B5CFD4CABE2ED0C2D4F6B2CECA84
:103F2000FDCFD4CABEBDF8D6C6C9E8D6C3B9A6C4AB
:103F3000DC2CD0C2D4F6BDF8D6C6D7AABBBBB9A676
:103F4000C4DC2E0D0A000000BCBCCAF5D6A7B3D64F
:103F50003A7777772E6F70656E6564762E636F6D36
:103F60000D0A000055534D415254D3D036B8F6CF08
:103F7000B5CDB3C3FCC1EE3A0D0A00003F3A202094
:103F80002020BBF1C8A1B0EFD6FAD0C5CFA20D0A50
:103F90000000000068656C703A20BBF1C8A1B0EF6A
:103FA000D6FAD0C5CFA20D0A000000006C69737468
:103FB0003A20BFC9D3C3B5C4BAAFCAFDC1D0B1EDB1
:103FC0000D0A0A0069643A202020BFC9D3C3BAAFE2
:103FD000CAFDB5C44944C1D0B1ED0D0A0A000000C4
:103FE0006865783A2020B2CECAFD3136BDF8D6C613
:103FF000CFD4CABE2CBAF3B8FABFD5B8F12BCAFDDC
:10400000D7D6BCB4D6B4D0D0BDF8D6C6D7AABBBB21
:104010000D0A0A006465633A2020B2CECAFD313031
:10402000BDF8D6C6CFD4CABE2CBAF3B8FABFD5B83D
:10403000F12BCAFDD7D6BCB4D6B4D0D0BDF8D6C605
:10404000D7AABBBB0D0A0A00C7EBB0B4D5D5B3CC19
:10405000D0F2B1E0D0B4B8F1CABDCAE4C8EBBAAF8F
:10406000CAFDC3FBBCB0B2CECAFDB2A2D2D4BBD88B
:10407000B3B5BCFCBDE1CAF82E0D0A002D2D2D2DC7
:104080002D2D2D2D2D2D2D2D2D2D2D2D2D2D2D2D60
:104090002D2D2D2D2D2D414C49454E54454B2D2D6B
:1040A0002D2D2D2D2D2D2D2D2D2D2D2D2D2D2D2D40
:1040B0002D2D2D2D2D2D2D200D0A00002D2D2D2DDA
:1040C0002D2D2D2D2D2D2D2D2D2D2D2D2D2D2D2D20
:1040D0002D2D2D2D2DBAAFCAFDC7E5B5A52D2D2D42
:1040E0002D2D2D2D2D2D2D2D2D2D2D2D2D2D2D2D00
:1040F0002D2D2D2D2D2D2D2D200D0A00B000002051
:1041000025730D0A000000002D2D2D2D2D2D2D2D98
:104110002D2D2D2D2D2D2D2D2D2D2D2D2D2D2D2DCF
:104120002DBAAFCAFD204944202D2D2D2D2D2D2D2A
:104130002D2D2D2D2D2D2D2D2D2D2D2D2D2D2D2DAF
:104140002D2D2D2D200D0A00257320696420697303
:104150003A0D0A3058253038580D0A004845583A6B
:10416000305825580D0A00009DF82C00042801D075
:10417000022060E5F8A000F0B3FD0120FB49C875FE
:1041800001E0022057E5AFF2BC3000F0A9FD5CE091
:10419000AFF2C83000F0A4FD0BAA03A9204600F03E
:1041A0008BFC9DF82C00C8B9694603A800F0DDFA25
:1041B0000B909DF82C0020B9EDA0009900F090FD27
:1041C0000EE09DF82C00042801D0022033E5EBA07E
:1041D00000F086FD0020E549C87501E002202AE5CF
:1041E000AFF2184000F07CFD2FE0AFF2204000F06D
:1041F00077FD0BAA03A9204600F05EFC9DF82C0079
:10420000D8B9694603A800F0B0FA0B909DF82C00CD
:1042100088B9D648C07D012806D1009801460268B9
:10422000DBA000F05DFD0AE0009801460268DCA01A
:1042300000F056FD03E00220FDE40220FBE4D7A0DD
:1042400000F04EFD01E00120F5E400BF0020F2E4A3
:1042500010B54FF08040008A10F0010F02D0C34922
:10426000086980474FF08040008A20F001004FF03D
:104270008041088210BD70B504460D46CB48C06928
:1042800040F00100C949C86188048485058580899A
:1042900040F00100890488810846808940F0400090
:1042A00088810846008840F00100088002231C2213
:1042B00003210846FCF788FA70BD10B5044604EBEC
:1042C000C40000EB04100122C2EB800081B24FF465
:1042D0007A70FFF7D0FF0120A449C87510BD30B532
:1042E00095B0044613AB12AA09A9204600F0D8FAEB
:1042F000054615B1284615B030BD0020149026E0C3
:104300009A4909689DF8502001EBC20113AB11AA2C
:10431000486801A900F0C4FA05460DB12846EAE74D
:1043200009A901A800F0EEF960B99DF844009DF8D4
:104330004810884201DD0220DDE79DF850008B49DE
:1043400088750AE09DF85000401CC0B21490874860
:10435000007D9DF850108842D2DC00BF8348007D6C
:104360009DF85010884201D10420C4E714A92046CA
:1043700000F00CFC05460DB12846BCE79DF8500046
:104380007A4948750020B6E7F0B59BB07748847D40
:10439000007DA04201DC1BB0F0BD7449096801EB4F
:1043A000C40107AB08AA486809A900F079FA09A96D
:1043B0007FA000F095FC002544E06C48018B0120B3
:1043C000A84001421BD022217BA000F089FC284696
:1043D00000F0CFFB654924314718394677A000F03B
:1043E0007FFC222174A000F07BFC284600F0C1FB7A
:1043F0005E492431084411A941F8250018E02846F7
:1044000000F0B7FB59492431085811A941F825009B
:104410005648C07D30B911A850F8251068A000F0AA
:104420005FFC05E011A850F8251066A000F058FCCC
:104430009DF82000401EA84202D064A000F050FC6D
:10444000681CC5B29DF820008542B6DB60A000F074
:1044500047FC4648407D0B280DD2DFE800F0060DF2
:10446000151E27323F4E5D6CBB004049096851F86C
:10447000340080470646C0E03C4A126852F83410C7
:10448000119888470646B8E0384B1B6853F834202B
:10449000DDE9110190470646AFE0344F3F6857F819
:1044A000343011A807C898470646A6E0DFF8BCC01C
:1044B000DCF800C05CF8347011A80FC8B847064695
:1044C0009BE0159BDFF8A4C00093DCF800C05CF80B
:1044D000347011A80FC8B84706468EE0DDE91523F1
:1044E000DFF888C0CDE90023DCF800C05CF8347048
:1044F00011A80FC8B84706467FE015A90EC9DFF816
:104500006CC08DE80E00DCF800C05CF8347011A8B7
:104510000FC8B847064670E015A80FC8DFF84CC0B2
:104520008DE80F00DCF800C05CF8347011A80FC8EB
:10453000B847064661E016A80FC801AF0FC7159B24
:10454000DFF828C00093DCF800C05CF8347011A8D4
:104550000FC8B847064650E03136BDF8D6C6B2CED1
:10456000CAFDCFD4CABE210D0A000000B000002051
:104570004445433A256C750D0A0000003130BDF802
:10458000D6C6B2CECAFDCFD4CABE210D0A000000E5
:104590002A2830582558293D305825580D0A000042
:1045A0002A282564293D25640D0A000000100240D8
:1045B0000D0A257328000000256300002573000004
:1045C000256C750030582558000000002C000000B4
:1045D0002900000017A80FC802AF0FC7DDE9152397
:1045E000DFF8C8C0CDE90023DCF800C05CF8347007
:1045F00011A80FC8B847064600BF00BF9DF81C00B1
:1046000001280CD12948C07D20B9314628A000F0EE
:1046100067FB07E0314628A000F062FB02E025A01E
:1046200000F05EFBB7E670B52648008810F4004F36
:1046300035D024480088C5B20020234948551B487E
:1046400081682148884704461CB91849C8688047D2
:1046500022E01D48FFF7E2FA0546012D00D02C4666
:10466000002C19D0012C06D0022C08D0032C0AD023
:10467000042C10D10BE015A000F032FB0BE016A0CB
:1046800000F02EFB07E017A000F02AFB03E018A0C3
:1046900000F026FB00BF00BF00200A49088070BD63
:1046A000014608687047016070470000B0000020B4
:1046B0003D256C753B0D0A003D305825583B0D0AD1
:1046C00000000000040000209C010020BAAFCAFDD9
:1046D000B4EDCEF3210D0A00B2CECAFDB4EDCEF397
:1046E000210D0A00B2CECAFDCCABB6E0210D0A0006
:1046F000CEB4D5D2B5BDC6A5C5E4B5C4BAAFCAFD62
:10470000210D0A0002460AE010780B78984201D089
:1047100001207047107800B902E0521C491CF3E7F1
:1047200000BF0020F5E706E002780A70027802B9BF
:1047300002E0401C491CF7E700BF7047014600201B
:1047400005E00A7802B903E0421CD0B2491CF8E740
:1047500000BF704710B50246012000E050430B0037
:10476000A1F10104E1B2F9D110BD2DE9F0430446F5
:104770000D4600274FF00A09A0460020286027E0D8
:1047800098F80000392803DC98F8000030280DDA8A
:1047900098F80000462803DC98F80000412805DA64
:1047A00098F8000058280AD1012F08D198F8000085
:1047B000412801DB4FF01009781CC7B206E098F8D9
:1047C000000000B905E00120BDE8F08308F1010810
:1047D000D6E700BFA046B9F1100F12D1032F01DABE
:1047E0000220F1E798F80000302808D198F801007D
:1047F000582804D108F10208B81EC7B204E003200B
:10480000E2E70FB90420DFE721E00FB1781EC7B25D
:1048100098F80000392808DC98F80000302804DBFC
:1048200098F80000A0F1300603E098F80000A0F12D
:10483000370639464846FFF78DFF296806FB00100A
:10484000286008F1010898F8000000B900E0DCE7F2
:1048500000BF0020B8E710B50446002010700BE040
:1048600020780870641C491C1078401C1070107867
:10487000984201DB012010BD2078202802D020784A
:104880000028EDD100200870F5E70146491C00E042
:10489000491C0878202801D10029F9D108787047EF
:1048A0002DE9FF4F86B004460D461E464FF0000826
:1048B0000020059082460120049000200190009085
:1048C000A1462AE099F80000202820D0009800F0A6
:1048D0007F0005281BDA009818B9009840F0800086
:1048E0000090009800F07F00042804D199F800009F
:1048F0002A2800D015E099F80000009901F07F0106
:1049000002AA50540098401CC0B2009003E00098E6
:10491000852800D105E009F1010999F80000002877
:10492000D0D100BF009888B10020009901F07F012C
:1049300002AA5054DCA102A8FFF7E4FE10B900203F
:10494000307001E001203070002000900027A14667
:1049500016E009F10109781CC7B299F80000202877
:1049600003D099F800002A280AD14846FFF78DFFA6
:104970008346BBF1280F03D0BBF12A0F00D0059767
:1049800099F80000282803D099F800000028E0D109
:10499000A146059810B10598401C81440027BB46EC
:1049A00071E099F8000008B901276DE099F800005E
:1049B000282807D1BBF1000F04D108F1010000F055
:1049C000FF081FE099F8000029280FD1BBF1000F64
:1049D0000CD1B8F1000F04D0A8F1010000F0FF08DD
:1049E00000E00127B8F1000F0CD14DE099F800006C
:1049F000222807D1BBF1000F01D1012000E00020E7
:104A000000F0FF0BB8F1000F08D199F80000202842
:104A100037D099F8000028706D1C32E099F800003A
:104A20002C2806D1012004900098401CC0B20090B0
:104A300019E099F80000202815D099F800002828DE
:104A400011D0009858B90198052808DA99F80000A3
:104A500002A9019A88540198401CC0B201900498A0
:104A6000401CC0B20490B8F1010F0AD1049802288A
:104A700007D10498401CC0B204900AF1010000F074
:104A8000FF0A09F101098CE700BFBAF1010F0AD151
:104A9000002002A9019A885483A102A8FFF732FEE0
:104AA00008B94FF0000A089880F800A0002028708C
:104AB00038460AB0BDE8F08FF0B503460020002468
:104AC000002500264FE01F782C2F01D106B90124C4
:104AD0001F78292F01D01F780FB906B944E0002DA7
:104AE00034D11F78302F02DB1F78392F11DD1F786A
:104AF000612F02DB1F78662F0BDD1F78412F02DB51
:104B00001F78462F05DD1F78582F02D01F78782F89
:104B10000CD104B128E01F78612F03DB1F78203F00
:104B20000F7001E01F780F70491C19E01F78222FC9
:104B300004D104B118E00125012611E01F78202FCF
:104B40000ED01F782C2F0BD0FF250DE01F78222FC1
:104B500000D1002604B107E016B11F780F70491C80
:104B6000471CF8B25B1CAEE700BF00270F70157042
:104B7000F0BD01460020002205E04D4B9B5C034444
:104B8000D8B2531CDAB28A42F7DB70472DE9F04302
:104B9000B5B004460D464FF00008002604E00021A1
:104BA00043488155701CC6B20A2EF8DB06E0641C2F
:104BB000207818B9012035B0BDE8F0832078282886
:104BC000F5D1641C69E034AA69462046FFF774FFFA
:104BD000064634449DF8D00020B101282CD0FF288F
:104BE00054D151E09DF8000028B333A96846FFF77F
:104BF000BCFD06460EB10220DDE74046FFF7B9FFD7
:104C00002B490A31339A0A50A1F12400018B01206B
:104C100000FA08F0814326481A38018304211A302B
:104C200000F8081008F1010000F0FF08B8F10A0FC1
:104C300001DD0320BFE729E06846FFF77FFD401C48
:104C4000C7B24046FFF795FF19490A3100EB010949
:104C500049466846FFF767FD15481A38018B012061
:104C600000FA08F0014388B211491A390883104844
:104C700000F8087008F1010000F0FF08B8F10A0F11
:104C800001DD032097E701E0022094E700BF2078D0
:104C9000292801D0207800B900E094E700BF85F80A
:104CA0000080002087E70000766F69640000000044
:104CB000CA000020704700001CB50C461346074987
:104CC0006A4679440090204600F0D1FA044600205C
:104CD000694600F0DFFA20461CBD0000CF05000049
:104CE0000FB40A4A0A4910B503AB7944029800F0A0
:104CF000BEFA0446054800F0CFFB20B14FF0FF306C
:104D000010BC5DF814FB2046FAE700000800002004
:104D100095BDFFFF0FB409491CB506AB6A4679443F
:104D20000090059800F0A3FA04460020694600F0C0
:104D3000B1FA20461CBC5DF814FB000073050000AE
:104D400070B50446856900683026C10600D4202667
:104D5000C00709D106E0D4E9012130469047206A16
:104D6000401C20626D1EF6D570BD70B50446856985
:104D70000068C00709D006E0D4E90121202090474F
:104D8000206A401C20626D1EF6D570BD70B50546C8
:104D90000C46012A01D101200BE02868800600D5CD
:104DA000EA69002000E0401C904202D2215C002908
:104DB000F9D1A9692618091AA961296A0144284666
:104DC0002962FFF7BDFF04E0D5E9012114F8010BCA
:104DD0009047B442F8D32846FFF7C7FF70BD0000E4
:104DE0002DE9F0418046002610687529414614A53A
:104DF00011D000F0B9F9002802DA404211A508E00C
:104E0000D8F800108A0701D50FA502E0490704D59C
:104E10000EA5012601E000F0B0F9002408F12407F6
:104E200004E000F03DFB30313955641C0028F8D116
:104E300033462A4621464046BDE8F04100F0A6B977
:104E4000000000002D0000002B00000020000000EA
:104E50002DE9F00F80468A4615461E46006800057B
:104E600002D5264F7F4402E0244F7F440E370024B2
:104E700008F124090BE005F00F004FEA1515385C26
:104E800045EA06754FEA161609F80400641C00236B
:104E900086EA030185EA03000843ECD13A46D8F8D4
:104EA0000000000708D5BAF1700F02D110320123BB
:104EB00002E00CB11132022321464046BDE8F00F5A
:104EC00000F064B970B504460D462146106800F044
:104ED00054F9024629462046BDE870400023B7E752
:104EE000D21D22F007030CCBB2E70368126843F02F
:104EF000200303600823C3610023A9E7E226000022
:104F00002DE9F05F4FF0000B054689464FF0010A8E
:104F1000C0F820B02846E968884700287ED02528B8
:104F200002D0D5E90121B0E05C4F00267F4428463D
:104F3000E96888472028044607DB312C05D2381958
:104F400010F8200C08B10643F1E7B00701D526F0B0
:104F50000406C5F81CB00027C5F818B02A2C10D1DB
:104F6000284659F8041B05EB87029161E9688847D8
:104F7000012F044628D1E869002830DA26F02006FF
:104F80002DE0A4F1300052460A2801461AD2CAB1D7
:104F900005EB870092468046816108E0D8F818004A
:104FA00000EB800004EB40003038C8F818002846B9
:104FB000E968884704465046A4F130010A2901D225
:104FC0000028EBD1012F0AD02E2C08D12846E96801
:104FD00088477F1C0446022F46F02006BEDBA869E6
:104FE000002803DA404246F00106A861F00701D02C
:104FF00026F010066C2C01D0682C18D127462846C4
:10500000E9688847B84204460BD180206C2F00D055
:10501000C000E96806432846884700E03AE00446B5
:1050200015E040206C2F00D0800006430FE04C2C90
:1050300005D06A2C03D0742C01D07A2C07D15846A5
:105040004C2CE6D080206A2CE3D00020E1E70CB3A2
:10505000A4F14100192802D8203446F400664A46DB
:10506000214628462E604E46FBF7BCF850B1012879
:1050700002D106F104094DE7F61D26F0070000F104
:10508000080947E7D5E9012120469047286A401CD6
:1050900028623FE7286ABDE8F09F00004226000032
:1050A00010B5431C04E010F8011B09B9C01A10BD6B
:1050B0008107F8D14FF0013202C88C1A8C4314EAF0
:1050C000C211F9D0C01A0A0601D0C01E10BD0A04D0
:1050D00001D0801E10BD0902FCD0401E10BD000092
:1050E0004FF0013C50F8042B51F8043B9A4221D177
:1050F000A2EB0C03934313EACC1317D150F8042B03
:1051000051F8043B9A4215D1A2EB0C03934313EAE6
:10511000CC130BD150F8042B51F8043B9A4209D11F
:10512000A2EB0C03934313EACC13DBD04FF0000047
:1051300070470000D01A01BAB1FA81F101F01801EC
:1051400022FA01F0CB40C1F12001DBB2C0B2C01A9B
:105150002CFA01F3D11A914311EAC311E6D1704739
:10516000704770477047704709684A0501D540B2DB
:105170007047C905FCD500B2704709684A0501D5DA
:10518000C0B27047C905FCD580B270472DE9F04721
:105190000D4604469246994600F1240801688806A7
:1051A00004D5E06921F01001216000E00120002712
:1051B000A84200DD471BA1697A1902EB0900081A11
:1051C000A0612068C00602D42046FFF7B9FD002682
:1051D00008E0D4E901211AF806009047206A401C33
:1051E000761C20624E45F4DB2068C0060AD52046B6
:1051F000FFF7A6FD06E0D4E9012130209047206AA0
:10520000401C2062381EA7F10107F4DC07E0D4E956
:10521000012118F805009047206A401C2062281ED2
:10522000A5F10105F3DC2046FFF79FFD2168022070
:10523000090600D40120BDE8F08711680268006A01
:10524000530501D508700AE0D30501D5088006E0B2
:10525000130602D5C21705C101E0520608600120FD
:105260007047000001694A1C02610878704710B558
:105270000C46194690B0CDE9024200220692044A3B
:105280007A44CDE9042001A8FFF73AFE10B010BD22
:10529000E1FFFFFF0A6802F8010B0A60704710B5D2
:1052A000436913B1AFF3008001E0FFF76FFD012008
:1052B00010BD126800F124010A7000224A70012218
:1052C000EDE711684FF0FF32E9E700002DE9FF5FDD
:1052D00004468A461546DFF8A880F8440027D8E936
:1052E00000013E46CDE9020110E03AF8161068468A
:1052F00002AA00F05CFB411C07D02168890603D597
:10530000E269391891420DD80744761C206880065E
:1053100002D5E069B84205DDAE42E6DB3AF8160098
:105320000028E2D1A069C01BA0612046FFF708FD5C
:10533000D8E90001CDE90201002015E03AF8181083
:10534000684602AA00F033FB8146401C0AD0EB46B7
:10535000002505E0D4E901211BF8050090476D1CEC
:105360004D45F7D308F10100B0428046E6DB206AE4
:10537000384420622046FFF7F8FCBDE8FF9F00009C
:10538000A62200002DE9F04782464FF00008D21D0A
:1053900022F00700F52960C819A714D00023E81AE5
:1053A00076EB030104DA6D4266EB460615A708E0CA
:1053B000DAF80000810701D513A702E0400702D503
:1053C00012A74FF0010800240AF1240909E0314630
:1053D000284600F06DF8303205460E4609F80420E4
:1053E000641C002386EA030185EA03000843EED12A
:1053F00043463A4621465046BDE8F047FFF7C6BE51
:10540000000000002D0000002B0000002000000024
:105410002DE9F003074615461E46002400F1240836
:105420000BE005F0070030304FEAD50545EA467538
:1054300008F80400641C4FEAD606002386EA03013C
:1054400085EA03000843ECD1386811A2010708D5AA
:1054500000F02000204304D0F86901230DA2401E73
:10546000F86121463846BDE8F003FFF78FBE10B55E
:10547000044621461068FFF780FE02462046BDE83C
:1054800010400023C4E7D21D22F007010CC9BFE77A
:105490000000000030000000C06800F0800070478D
:1054A0004FF00A01B0FBF1F202FB11011046704708
:1054B00030B5B0F10A024FEA900E71F100034EEAE6
:1054C000817EB0EB0E0061EB91014FEA101E4EEAB7
:1054D000017E10EB0E0041EB11114FEA102E4EEA47
:1054E000016E10EB0E0041EB11214FEA104E4EEA17
:1054F000014E10EB0E0041EB1141401841F100014B
:105500004FEAD00040EA41704FEAD10110EB80052C
:105510004FEA810444EA907444EB01046D1944EBB2
:105520000404521BA3414FF0000348BF0A3200D5C8
:1055300030BD401C41F1000130BD70472DE9FF4FE7
:105540000C4698468DB0D2E90010DDF868A0CDE990
:105550000810C0F30A550DB94FF0FF350021084679
:105560004FF00000099900F44000002905DA00EB33
:1055700080004FF4400101EA50004FEA905BBBF11C
:10558000010F01DD4FF0FF3BDDE9080150EA41006A
:1055900016D1BAF1010F02D16FEA080207E03021FB
:1055A00001E02154401C4045FBDB40460022002125
:1055B00021540D99C1E9010A0A6011B0BDE8F08FCC
:1055C000A5F2FF3544F610504543CBF100000B9097
:1055D0004FEA2549BAF1000F03D1A9EB08056D1C6C
:1055E00001E0C8F100050B9A002D00DC5A4629465F
:1055F00001DAC5F1000103A800F06AFADDE908103C
:1056000000F0D8FAA0F500501F388DE80700039885
:10561000002D09DD42F21F015A46084403A90390F8
:10562000684600F038FD08E0A0F500505A461F38E3
:1056300003A90390684600F042FD8DE807000004CE
:10564000000C03D04FF0FF356E0801E00E46154602
:10565000BAF1000F25D1474607E031462846FFF74B
:1056600027FF303205460E46E2557F1EF5D5002352
:10567000012786EA030185EA03000843CDF81C8070
:1056800003D0002709F1010005E02078302803D17C
:105690000027A9F101008146002FCDF8189099D07C
:1056A00034E000200A9007460AE0112F0FDA314655
:1056B0002846FFF7FDFE303205460E46E2557F1CB8
:1056C000002386EA030185EA03000843EDD10023A5
:1056D00086EA030185EA0300084310D13846002119
:1056E00004E0235C625C6354491C2254401E8142E6
:1056F000F7DBA7EB0800401ECDE9060706E00A9895
:1057000020B94FF011084FF0000A63E7079A002014
:10571000A0540D98C0F808A007994160069901604F
:105720004BE72DE9F04F04468846D21D22F00700D2
:1057300091B0D0E90010CDE902100146029800F0C6
:10574000F4FD0399CA0F4FF02D0106D122682B21D9
:10575000930702D4202101EAC20103288B4601D01D
:10576000072806DB5B4602464146204600F072F9F8
:1057700005E12068800601D5E76900E006271120D1
:10578000B8F1650F1ED0B8F1660F29D0B8F1670FD8
:1057900062D1012F00DA01270023112F009300DCD2
:1057A0003846034602AA06A90EA8FFF7C7FE2068DE
:1057B0003D460026000734D40F98A84200DA05467B
:1057C00006A827E00023112F009300DA781C034677
:1057D00002AA06A90EA8FFF7B1FE00267D1C26E04E
:1057E00001234FF0004902AA06A90EA800933B46E8
:1057F000FFF7A4FEDDE90F50002610B90E99781CC2
:105800000D18781B02D47D1CC0F1FF36A5EB070AEA
:1058100022E06D1E012D04DD411911F8011C302913
:10582000F7D00E98B84202DA10F1040F03DA4FF005
:10583000010A0E980FE0002802DC2D1A064404E04D
:10584000401CA84201DD0E9D6D1C0E98801B00F1CE
:10585000010A4FF0004081462068000703D4AA45A2
:1058600001DB4FF0FF3A0020B9F1004F0DF11707AF
:105870008DF8170024D04FF002082B20B9F1000F4B
:1058800001900BDA2D20C9F10009019006E048468D
:10589000FFF706FE3031814607F8011DB8F1000020
:1058A000A8F10108F3DCB9F1000FF0D1019807F875
:1058B000010D21684520090500D4652007F8010D78
:1058C00004A8C01B00F107085FEA0B0000D001200C
:1058D000411901EBEA7101EB0800A169081A401EA9
:1058E000A0612068C00602D42046FFF729FABBF168
:1058F000000F06D05846D4E901219047206A401C89
:1059000020622068C00625D52046FFF719FA21E05D
:10591000002E07DB0F98B04204DD06A8D4E9012170
:10592000805D02E0D4E9012130209047206A401CCC
:105930002062761CAAF101005FEA000A0AD100F099
:1059400083F8C0680168405CD4E901219047206A6F
:10595000401C2062281EA5F10105D9DC07E0D4E92E
:10596000012117F8010B9047206A401C2062B8F112
:105970000000A8F10108F2DC2046FFF7F6F902204A
:105980001BE610B5436913B1AFF3008001E0FFF7E8
:105990009DFC012010BD126800F1240182840022C8
:1059A000C2840122EDE711684FF0FF32E9E770B5DC
:1059B00005460C46164600F03FF8006890F80111C5
:1059C00001290AD13246D0F807114318214628464A
:1059D000BDE8704003F207131847FF2C04D8005DA0
:1059E00010B101202C7070BD4FF0FF3070BD7546B6
:1059F00000F0DCF8AE4605006946534620F007008B
:105A0000854618B020B5FAF76FFCBDE820404FF08E
:105A100000064FF000074FF000084FF0000B21F098
:105A20000701AC46ACE8C009ACE8C009ACE8C00965
:105A3000ACE8C0098D46704710B500F005F8001DB0
:105A400010BD00003D09000001487047704700008C
:105A5000200400202DE9F04104461F46032601687A
:105A6000072A01F4006003DB15A520B915A502E0A3
:105A700015A500B915A521F010002060A069C01E71
:105A8000A0610FB1401EA0612046FFF759F90FB980
:105A9000206A06E0D4E9012138469047206A401C7C
:105AA0002062C01C206204E0D4E9012115F8010B3A
:105AB0009047761EF8D22046FFF757F9BDE8F081EF
:105AC0004E414E006E616E00494E4600696E6600A2
:105AD0002DE9F047174681468AB0304A7A4407A834
