:100000000C94CE0C0C94EB0C0C94EB0C0C94EB0CB1
:100010000C94EB0C0C94EB0C0C94EB0C0C94EB0C84
:100020000C94EB0C0C94EB0C0C94EB0C0C94EB0C74
:100030000C943B3A0C94EB0C0C94EB0C0C949A3A09
:100040000C948D3B0C94EB0C0C94F5360C94EB0C4F
:100050000C94EB0C0C94EB0C0C9488390C94EB0C7A
:100060000C94EB0C0C94123B0C94ED390C94BC39B1
:100070000C94EB0C0C94EB0C0C94EB0C0C94EB0C24
:100080000C94EB0C0C94EB0C0C94EB0C2F43864370
:100090008943A843E74304440A44554425443C4467
:1000A0007A447D44A2448E44C644DF44F644174556
:1000B0002A450000FFFFFFFFFF6FFFFFFF0700075C
:1000C000FF1830180C06087F7F7F0823130864622E
:1000D0003649552250FF0503FFFFFF1C2241FFFF59
:1000E00041221CFF14083E081408083E0808FF506F
:1000F00030FFFF00080808FFFFFF40FFFF20100847
:1001000004023E41413EFF00427F40FF62514946AA
:10011000FF41494936FF1814127FFF27454539FF33
:100120003E494932FF01790503FF36494936FF064A
:1001300049291EFFFF3636FFFFFF5636FFFFFF0837
:10014000142241141414141441221408FF02015102
:10015000090606090906FF7E0909097E7F49494902
:10016000363E414141227F4141221C7F494949415C
:100170007F090909013E4149497A7F0808087FFF44
:10018000417F41FF2040413F017F081422417F40D1
:100190004040FF7F020C027F7F0408107F3E4141F8
:1001A000413E7F090909063E4151215E7F09192917
:1001B00046264949493201017F01013F4040403F05
:1001C0001F2040201F3F4030403F63140814630746
:1001D000087008076151494543FF7F4141FF020410
:1001E000081020FF41417FFF605846586040404062
:1001F00040FFFF010204FF20545454787F484444D8
:10020000383844444420384444487F3854545418BF
:10021000087E0901020C5252523E7F08040478FF06
:10022000447D40FF2040443DFF7F102844FFFF41B4
:100230007F40FF7C041804787C0804047838444428
:1002400044387C14141408081414187C7C08040422
:10025000084854545420043F4440203C4040207CF3
:100260001C2040201C3C4020403C44281028440CCA
:100270005050503C4464544C4410081008FFFFFF99
:100280007FFFFF41225428FF0808221C08081C2277
:10029000080800000000000000000000FFFFFFFF52
:1002A000FFFFFFFFFFFFFFFFFFFF00660076003E3E
:1002B000001EFFFFFFFFFFFFFFFF800180018001A5
:1002C00080018001800180018001FFFFFFFFFFFFAF
:1002D000FFFFFFFF00600060FFFFFFFFFFFFFFFF6A
:1002E000FFFF006000600060006000600060006070
:1002F0000060FFFFFFFFFFFFF81FFC3F0E7006606E
:1003000006600E70FC3FF81FFFFFFFFF0000186043
:100310001C60FE7FFE7F006000600000FFFFFFFFAB
:1003200018781C7C0E6E06678663CE61FC60786070
:10033000FFFFFFFF06600660866186618661CE73FF
:10034000FC3F781EFFFFFFFF8007C007E006700636
:1003500038061C06FE7FFE7FFFFFFFFF7E187E38FB
:10036000667066606660E670C63F861FFFFFFFFF2F
:10037000F81FFC3F8E71866186618E731C3F181ECC
:10038000FFFFFFFF06000600867FC67FE6007600BF
:100390003E001E00FFFFFFFF781EFC3FCE7386610C
:1003A0008661CE73FC3F781EFFFFFFFF7800FC00E4
:1003B000CE6186718639CE1DFC0FF807FFFFFFFF67
:1003C000FFFF0000300C300C0000FFFFFFFFFFFFBD
:1003D000FFFFE07FF07FB8019C018E018E019C0140
:1003E000B801F07FE07FFE7FFE7F866186618661D7
:1003F00086618661CE73FC3F781EF81FFC3F0E704D
:1004000006600660066006600E701C381818FE7FD5
:10041000FE7F0660066006600E701C38381CF00F08
:10042000E007FE7FFE7F8661866186618661866168
:10043000866106600660FE7FFE7F8601860186017A
:1004400086018601860106000600F81FFC3F0E703B
:1004500006608661866186618E719C7F983FFE7F13
:10046000FE7F800180018001800180018001FE7F8C
:10047000FE7FFFFFFFFF06600660FE7FFE7F0660D7
:100480000660FFFFFFFF0018003800700060066084
:100490000670FE3FFE1F06000600FE7FFE7F800105
:1004A000C003E007700E381C1C380E700660FE7F1B
:1004B000FE7F00600060006000600060006000601F
:1004C0000060FE7FFE7F1C003800F001F001380064
:1004D0001C00FE7FFE7FFE7FFE7F7000E000C001FB
:1004E00080030007000EFE7FFE7FF81FFC3F0E70AA
:1004F00006600660066006600E70FC3FF81FFE7F17
:10050000FE7F86018601860186018601CE01FC0000
:100510007800F81FFC3F0E7006600666066E063C0B
:100520000E38FC7FF867FE7FFE7F86018601860716
:10053000860F861DCE39FC7078607818FC38CE7135
:1005400086618661866186618E731C3F181E060077
:10055000060006000600FE7FFE7F0600060006007D
:100560000600FE1FFE3F007000600060006000603B
:100570000070FE3FFE1FFE07FE0F001C00380070DB
:1005800000700038001CFE0FFE07FE1FFE3F0070CB
:100590000070003E003E00700070FE3FFE1F1E789F
:1005A0003E7C700EE007C003C003E007700E3E7C87
:1005B0001E787E00FE00C0018003007F007F800364
:1005C000C001FE007E000678067C066E0667866324
:1005D000C661E66076603E601E600018003C607E8A
:1005E0006066606660666066E066C07F807FFE7FF2
:1005F000FE7F8061C061E06060606060E070C03F6D
:10060000801F801FC03FE07060606060606060605D
:10061000607000380018801FC03FE070606060604C
:10062000E060C0618061FE7FFE7F801FC03FE0769A
:100630006066606660666066E066C007800780018D
:100640008001F87FFC7F8E01860106000E001C00F1
:100650001800E001F0033867186618661866186617
:100660001876F83FF81FFE7FFE7F8001C001E00092
:1006700060006000E000C07F807FFFFFFFFF6060E0
:100680006060E67FE67F00600060FFFFFFFFFFFF26
:10069000001800380070006060606070E63FE61F80
:1006A000FFFFFE7FFE7F0006000F801FC039E07055
:1006B0006060FFFFFFFFFFFFFFFF06600660FE7F39
:1006C000FE7F00600060FFFFFFFFE07FE07F6000D3
:1006D000E000C007C007E000E000C07F807FE07F4F
:1006E000E07F8001C001E00060006000E000C07FAA
:1006F000807F801FC03FE07060606060606060600D
:10070000E070C03F801FE07FE07F6006600660060B
:1007100060066006E007C00380018001C003E007B7
:10072000600660066006C0078007E07FE07FE07F2C
:10073000E07F8001C001E00060006000E000C001D7
:1007400080018061C063E0676066606660666066C5
:10075000607E003C001860006000F81FF83F607089
:1007600060600060007000380018E01FE03F00701B
:1007700000600060007000380018E07FE07FE00754
:10078000E00F001C0038007000700038001CE00F03
:10079000E007E01FE03F0070007000380038007094
:1007A0000070E03FE01F6060E070C039801F000F04
:1007B000000F801FC039E0706060E001E003006757
:1007C00000660066006600660076E03FE01F60603D
:1007D00060706078607C606E6067E063E061E0603C
:1007E00060604E6F2066726565206578706F2100CD
:1007F0004E6F2066726565206D6978657221005FB5
:100800002D2E2C0003010200040506071B1E272DB8
:1008100036394B4E636C7278878D939CB1B4C6C9E0
:10082000D2D8E1E40101020A3C01010414500101A3
:10083000081E6402020F287805051E3296454550B1
:10084000524F4D206F766572666C6F7700494E4649
:100850004F53004D4F444500410042415454004421
:10086000524F50004D41564C494E4B0043757272E9
:10087000656E74206D6F64650041726D6564000083
:100880000102030C04050C0C0C060708090C0C0AE9
:100890000B494E562E204D4156205459504500428A
:1008A0004154205253534900466C69676874206272
:1008B0006174746572792073746174757300560085
:1008C0004100250052432052535349002500504314
:1008D00020525353490025004E415600436F757214
:1008E0007365006F0048656164696E67006F004260
:1008F000656172696E67006F00416C74697475643C
:1009000065006D00475053004E4F20466978004403
:10091000005341540048444F50004C4154004C4F48
:100920004E0056005354415453001F665345531E06
:10093000544D311F66544D321E5448521F66544860
:100940002500444542554700546D72314C61742076
:100950006D61781F54757300546D72314C61742051
:100960006D696E1F54757300546D7231204A69743D
:100970007465721F54757300546D6978206D6178C9
:100980001F546D73004672656520537461636B1F5D
:100990005462005B4D454E555D20746F2072657347
:1009A0006574005357495443484553005472696D68
:1009B0002D202B0056455253494F4E0046571F1BC2
:1009C0003A206F70656E74782D3978723132381E26
:1009D000564552531F1B3A20322E322E301E4441B0
:1009E00054451F1B3A20323031372D31312D3037ED
:1009F0001E54494D451F1B3A2030343A33313A34A6
:100A0000381E454550521F1B3A203231362D3900D1
:100A10004D6F6465004E616D65005377697463685E
:100A200000437572766500034F46464F4E00032D16
:100A30002D2D494E560401344348013643480138B0
:100A400043483130434831324348313443483136EA
:100A50004348055175696574416C61726D4E6F4B09
:100A60006579416C6C0020034F4646202B3D203AAF
:100A70003D034348314348324348334348340645F5
:100A800078706F0020457846696E6546696E65002E
:100A9000204D656469756D436F61727365015245E0
:100AA00054413132330650504D00202050504D31CA
:100AB000360050504D73696D03504F534E454704F7
:100AC0004F4646004B6579734374726C426F74688D
:100AD0004F4E0020032D2D2D783E30783C307C7811
:100AE0007C663E30663C307C667C08416464002055
:100AF0002020204D756C7469706C795265706C6142
:100B0000636500022B3D2A3D3A3D034F46464F4E5A
:100B100000527564456C6554687241696C052D2DF1
:100B20002D0020617B780020613E780020613C78B8
:100B300000207C617C3E787C617C3C78414E4400A6
:100B4000204F52002020584F520020613D6200206B
:100B5000613E620020613C6200205E7D7800207C66
:100B60005E7C7D7854696D002053746B79000A4F68
:100B7000766572722E00202020547261696E657253
:100B8000002020496E73742E205472696D52657373
:100B90006574002020202041646A75737420002051
:100BA00020426565700020202020205B506C617918
:100BB0002054726B5D5B506C6179204274685D5BA0
:100BC000506C61792056616C5D5B566172696F5D36
:100BD0000020205B4861707469635D00204261639E
:100BE0006B6C696768740004546D7231546D7232B5
:100BF000416C6C000442703100427032004270332C
:100C00000057726E3157726E324368656552617477
:100C1000615469636B5369726E52696E675363699D
:100C200046526F62744368727054616461437263C8
:100C30006B416C726D042D2D2D0042617474546DE6
:100C40007231546D72325478002052780020413154
:100C5000002041320020416C740052706D004675D6
:100C6000656C543100205432002053706400446994
:100C7000737447416C7443656C6C43656C73566662
:100C8000617343757272436E7370506F7772416314
:100C90006358416363594163635A4864670056531C
:100CA0007064415370646454450041312D004132F9
:100CB0002D00416C742D416C742B52706D2B54318E
:100CC0002B0054322B005370642B4473742B41530C
:100CD000702B43656C2D436C732D5666732D4375D5
:100CE000722B5077722B4163630054696D65054D1B
:100CF000656E75004578697400446F776E005570B5
:100D000000202052696768744C65667400032D2DBD
:100D10002D49443049443149443254485252554493
:100D2000454C4541494C47454154524E74526C74B0
:100D30005272744564744575745464745475744186
:100D40006C7441724C30314C30324C30334C303456
:100D50004C30354C30364C30374C30384C30394CC8
:100D600031304C31314C31324F4E004F6E65042DD5
:100D70002D2D0052756400456C6500546872004169
:100D8000696C005031002050320020503300204D5B
:100D90004158005B43315D5B43325D5B43335D54DF
:100DA000726D5254726D4554726D5454726D41336C
:100DB000504F53034F46464F4E00544873544825F6
:100DC00054487406343830302020393630302020F2
:100DD000313434303020313932303020333834300F
:100DE00030203537363030203538373938203736EF
:100DF0003830300953746162696C697A6541637295
:100E00006F2020202020416C7420486F6C642041AA
:100E100075746F2020202020477569646564202048
:100E2000204C6F6974657220202052544C20202081
:100E3000202020436972636C65202020506F73204E
:100E4000486F6C64204C616E6420202020204F4647
:100E5000204C6F69746572546F79204120202020E6
:100E6000546F79204D20202020494E56414C494452
:100E700020200D4D616E75616C20202020202020E7
:100E8000436972636C652020202020202053746108
:100E900062696C697A6520202020547261696E69EC
:100EA0006E672020202020466C79206279205769C7
:100EB00072652041466C79206279205769726520FD
:100EC000414175746F202020202020202020525482
:100ED0004C202020202020202020204C6F69746589
:100EE000722020202020202047756964656420201E
:100EF0002020202020496E697469616C6973696ED5
:100F00006720494E56414C49442020202020200093
:100F1000576569676874004D4958455200327C89AD
:100F200000EDD968770000005900000000000000C3
:100F300000D69FDCA81817AA90437327F6B968ED6E
:100F4000F4DED409FEE61C1C84DDE80B9929274E4B
:100F5000C400000F030000000000A7B777BF76941D
:100F60001500F37C000026149E988F0000006A3163
:100F7000168F8C059600E7B73F362F000000000063
:100F800000AF669ED0385D8A6C20B95422AE7CEDED
:100F9000044C80387486EDCBFA57CBDC19E22E1D59
:100FA000DF5506E5CB01C36DA8B52F48837F0067E9
:100FB0009AB2C886DBD0BC5416131586004E44BDC9
:100FC0007F9A15159001EA49B51653A78AEAF02FC2
:100FD000BD34AEE5559FBA48000000005C2447626E
:100FE000000000000086CD000000000000000000AE
:100FF000000000456532CA11A2000000000000CFC9
:10100000000000A3699723960000000000005A68C2
:10101000555F82B85108CC31AA2C532E0000000035
:10102000010104000001536F7572636500014F6692
:1010300066736574005472696D00445265780044AB
:10104000696666005761726E696E67004F464600BA
:101050004D756C7469706C65780044656C617920BD
:1010600075700044656C617920646E00536C6F7715
:101070002020757000536C6F772020646E004355FC
:1010800052564500015479706500707427007074E1
:1010900000783D00793D00464C49474854204D4F6B
:1010A0004445530006436865636B0A7472696D7347
:1010B00000464C49474854204D4F4445000000002D
:1010C000FF01010101010000030000FF0202020212
:1010D000025472696D73004661646520696E004652
:1010E000616465206F757400464D00414E414C4F60
:1010F000475300410042473A004261747465727977
:101100002063616C69620000000004004578706F24
:10111000004E2F410053696465001208001038101A
:10112000101038100000104400920044100000001D
:10113000000044FE440000001044009200441000EF
:10114000001044009200441000000044FE440000DF
:1011500000000010440092004410000010381010ED
:1011600010381000EB42835A05289927A43D2267C6
:101170000001FF000000FF00000000FF0000000071
:101180000000FF0001524144494F2053455455503F
:1011900000426174746572792072616E67650053F4
:1011A0006F756E6400014D6F646500014C656E677C
:1011B000746800436F6E747261737400416C617285
:1011C0006D73000142617474657279206C6F7700F1
:1011D000014D656D6F7279206C6F770001536F75EB
:1011E0006E64206F66660001496E6163746976699A
:1011F0007479004261636B6C696768740001416CCB
:1012000061726D00014475726174696F6E00537094
:101210006C6173682073637265656E00426175640A
:1012200072617465005278206368616E6E656C202F
:101230006F72640000000200000200000000000065
:1012400000000005060102534554555000014D6948
:101250006E7574650001436F756E74646F776E0010
:1012600054696D657200452E4C696D697473004553
:101270002E5472696D73005472696D2053746570D9
:1012800000542D5265766572736500542D536F7549
:1012900072636500542D5472696D00542D5761724C
:1012A0006E696E6700532D5761726E696E670043F9
:1012B00074722042656570000150726F746F005047
:1012C000504D206672616D65006D73000000014D28
:1012D00061766C696E6B207365747570004D617812
:1012E0002052535349005043205253534920454EF6
:1012F00000435600535449434B53002F3134002FC1
:1013000033320043555256455300454550524F4DD8
:10131000206C6F77206D656D00535749544348002A
:10132000507265737320616E79206B657920746FDC
:1013300020736B6970005448524F54544C4500540C
:1013400068726F74746C65206E6F742069646C656C
:101350000008507265737320616E79204B657900C7
:101360001B20FC04040404040484C48404E4F4E4A2
:101370000484C4C40404040404040404FCFF000042
:1013800000FCFE00FFFFFF80FFFFFF80FFFFFF006C
:1013900000008080800000FFFF000000FFFFFFFFD3
:1013A000FFFFFFFFFFFFFFFFFFFFF8FCFF3F0F0303
:1013B0000000FF3F2020202127272F2F2F2B272F12
:1013C0002F2F2F2F2F27232020202020203F574151
:1013D000524E494E47000003030303030303030374
:1013E0000303030303030300534552564F53000600
:1013F0005472696D73203D3E205375627472696D3D
:10140000730000034C4F474943414C205357495404
:101410004348455300000202020200545241494E23
:10142000455200536C617665004D6F64650625205A
:10143000536F75726365004D756C7469706C696586
:10144000720043616C005452004348004D4F4445C4
:101450004C004700C05EF745D83B354F394F0E561C
:101460008249F058FA5B814544454C455445204D2E
:101470004F44454C00436F7079696E67206D6F640F
:10148000656C2E2E2E004D6F76696E67206D6F6431
:10149000656C2E2E2E0066726565004D4F44454CDE
:1014A00053454C0000045350454349414C20465598
:1014B0004E4354494F4E5300032D3D312B3D3100D7
:1014C0004C6F6164696E67206D6F64656C2E2E2EA3
:1014D0000043414C4942524154494F4E00085B4D34
:1014E000454E555D20544F205354415254000453EF
:1014F000455420535449434B53204D4944504F4980
:101500004E5400065B4D454E555D205748454E20D4
:10151000444F4E4500064D4F564520535449434BCA
:10152000532F504F545300454550524F4D0000012A
:101530000203000201030301020003020100E2AE04
:10154000A1A6A4A2C02F258122AF426164204545F7
:1015500070726F6D206461746100466F726D6174AA
:1015600074696E6720454550524F4D0053505300EB
:101570008040FFFFFFFFFFFFFFFFFFFFFFFFFFFFB9
:10158000FFFFFFFFFFFFFFFFFFFFFFFFFFFFFFFF6B
:10159000FFFFFFFFFFFFFFFFFFFFFFFFFFFFFFFF5B
:1015A000FFFFFFFFFFFFFFFFFFFFFFFFFFFFFFFF4B
:1015B000FFFFFFFFFFFFFFFFFFFFFFFFFFFFFFFF3B
:1015C000FFFFFFFFFFFFFFFFFFFFFFFFFFFFFFFF2B
:1015D000FFFFFFFFFFFFFFFFFFFFFFFFFFFFFFFF1B
:1015E000FFFFFFFFFFFFFFFFFFFFFFFFFFFFFFFF0B
:1015F000FFFFFFFFFFFFFFFFFFFFFFFFFFFFFFFFFB
:10160000FFFFFFFFFFFFFFFFFFFFFFFFFFFFFFFFEA
:10161000FFFFFFFFFFFFFFFFFFFFFFFFFFFFFFFFDA
:10162000FFFFFFFFFFFFFFFFFFFFFFFFFFFFFFFFCA
:10163000FFFFFFFFFFFFFFFFFFFFFFFFFFFFFFFFBA
:10164000FFFFFFFFFFFFFFFFFFFFFFFFFFFFFFFFAA
:10165000FFFFFFFFFFFFFFFFFFFFFFFFFFFFFFFF9A
:10166000FFFFFFFFFFFFFFFFFFFFFFFFFFFFFFFF8A
:10167000FFFFFFFFFFFFFFFFFFFFFFFFFFFFFFFF7A
:10168000FFFFFFFFFFFFFFFFFFFFFFFFFFFFFFFF6A
:10169000FFFFFFFFFFFFFFFFFFFFFFFFFFFFFFFF5A
:1016A000FFFFFFFFFFFFFFFFFFFFFFFFFFFFFFFF4A
:1016B000FFFFFFFFFFFFFFFFFFFFFFFFFFFFFFFF3A
:1016C00007070707070707070707070707070707AA
:1016D000070707FFFFE7C70707070707071F7FFF82
:1016E000FFFF3F0F070707070787E7F7FFFFFFFF2A
:1016F000FFFFFFFFFFFFFFFF1F070303C1F1F8F824
:10170000F8F8F0F1C10303071FFFFFFF000000001E
:10171000F8F8F87000010307FFFF000000003838F8
:1017200038383838FFFF0000000081030F1F3FFFEB
:10173000FF00000000FFFFFF000103070F1F3F7FB6
:10174000FEFEFEFEFEFE00000000000000FEFEFEAB
:10175000FEFEFEFFFFFFFFFFFEF8F0C0800000016D
:1017600003000000C0E0F8FCFFFFFFFFFFFFFFFFEA
:10177000FFFFFFFFFFFFFFFFF8E0C0C0838F1F1FC9
:101780001F1F1F8F83C0C0E0F8FFFFFF0000000095
:10179000F8F8F8F8F8FCFCFFFFFF000000001E1E40
:1017A0001E1E1E1EFFFF00000000FFFFFCF8F0C021
:1017B0008100000000FFFFFF000080C0E0F0F8FCA7
:1017C000FEFFFFFFFFFF00000000000000FFFFFF23
:1017D000FFFFFFFFFFFFFF7F1F0F0301000080E0FF
:1017E000F0C000000003071F3FFFFFFFFFFFFFFFE8
:1017F000FFFFFFFFFFFFFFFFE7E7E7E7E7E7E7E7B9
:10180000E7E7E7E7E7E7E7E7E7E7E7E7E7E7E7E768
:10181000E7E7E7E7E7E7E7E7E7E7E7E7E7E7E7E758
:10182000E7E7E7E7E7E7E7E7E7E7E7E7E7E7E7E748
:10183000E7E7E7E7E7FFFFFFFEFFFFFFFFFFFFFF31
:10184000FFFFFFFFFFFFE0E0E0E0E0E0E0FFFFFF81
:10185000FFFFFFEFE7E1E0E0E0E0E0F0F8FEFFFF90
:10186000FFFFFFFCF8E0E0E0E0E0E1E7EFFFFFFF73
:10187000FFFFFFFFFFFFFFFFFFFFFFFFFFFFFFFF78
:10188000FFFFFFFFFFFFFFFFFFFFFFFFFFFFFFFF68
:10189000FFFFFFFFFFFFFFFFFFFFFFFFFFFFFFFF58
:1018A000FFFFFFFFFFFFFFFFFFFFFFFFFFFFFFFF48
:1018B000FFFFFFFFFFFFFFFFFFFFFFFFFFFFFFFF38
:1018C000FFFFFFFFFFFFFFFFFFFFFFFFFFFFFFFF28
:1018D000FFFFFFFFFFFFFFFFFFFFFFFFFFFFFFFF18
:1018E000FFFFFFFFFFFFFFFFFFFFFFFFFFFFFFFF08
:1018F000FFFFFFFFFFFFFFFFFFFFFFFFFFFFFFFFF8
:10190000FFFFFFFFFFFFFFFFFFFFFFFFFFFFFFFFE7
:10191000FFFFFFFFFFFFFFFFFFFFFFFFFFFFFFFFD7
:10192000FFFFFFFFFFFFFFFFFFFFFFFFFFFFFFFFC7
:10193000FFFFFFFFFFFFFFFFFFFFFFFFFFFFFFFFB7
:10194000FFFFFFFFFFFFFFFFFFFFFFFFFFFFFFFFA7
:10195000FFFFFFFFFFFFFFFFFFFFFFFFFFFFFFFF97
:10196000FFFFFFFFFFFFFFFFFFFFFFFFFFFFFFFF87
:10197000FFFF53504500414C41524D5300416C61B3
:10198000726D732064697361626C6564005B4D45C0
:101990004E555D085B455849545D000011241FBE3B
:1019A000CFEFD0E1DEBFCDBF11E0A0E0B1E0EEEAC5
:1019B000F8EE02C005900D92AC31B107D9F71DE0E9
:1019C000ACE1B1E001C01D92A13DB107E1F70E9479
:1019D0002F6E0C9455740C9400009C0145E03595D5
:1019E00027954A95E1F7280F391FAC01440F452F81
:1019F000441F550B241B350B892F990F990B859587
:101A0000280F391FC9010895825E97402BEA3AEAF0
:101A1000829F802D11240895CF93DF93EC012881BC
:101A2000220F61112160288399819F5F99838A81A8
:101A3000882319F121110AC0833631F0CE010E94AA
:101A4000040D80628093630A1A824DC0883081F150
:101A500048F48130A1F188F0823051F1843009F0EE
:101A600043C026C08F35C9F018F48031E9F520C095
:101A7000813639F08236C1F532C02F30A9F581E6C2
:101A800031C0CE010E94040D80668093630A1092DB
:101A9000F1081092F0088FE525C0903229F4CE01AC
:101AA0000E94040D806818C09832F1F480E11AC0D9
:101AB000903328F090E0959587958A8319828A81E2
:101AC00090E00197298130E082239323892B61F4F0
:101AD000CE010E94040D80648093630A05C0903497
:101AE00018F088E08A831982DF91CF9108956330DE
:101AF00099F020F4613061F068F408C0653081F03D
:101B000068F0663079F0673089F40EC0807408950B
:101B1000807808958870089584700895807208957B
:101B200080710895827008958170089580E008950D
:101B30005F926F927F928F929F92AF92BF92CF925D
:101B4000DF92EF92FF920F931F93CF93DF93C62FF5
:101B5000C695C695C695D0E0DE01B695BA2FAA27E0
:101B6000B795A795A80FB11D982F91509093520942
:101B7000AB5DBE4F20FF07C03091E00736FF07C0C6
:101B800021FD07C0DEC021FB332730F903C030E060
:101B900001C031E022FF48C0242F2C522F3010F416
:101BA0004B5211C0242F21542A3110F441530BC041
:101BB000242F21562A3110F4475305C04F3511F018
:101BC00040E001C044E024E1429FA00111244E56B0
:101BD0005D4F60E0611107C0882311F031110CC026
:101BE0009F5F11961DC06B3039F0FA012491319638
:101BF0004E5F5F4FE49102C0E0E020E07E2F722351
:101C00007F3F71F0332311F02095E095ED01C0582E
:101C1000DF4FF5E0C632DF0718F42D93E8839F5FAE
:101C20006F5F6C30B9F68BC0F7E0BF2EB622311172
:101C300002C060E001C06FEF75E0479FA001112472
:101C40004E5E5F4FD695DC2FCC27D795C795CA55EA
:101C5000DE4FEB2CF12CEFEFF0E0AE2E0B2C01C0A1
:101C6000AA0C0A94EAF77A2C709470E018E0912E8E
:101C7000922200E4802E822208E010E00E191F0953
:101C8000E0E15E2E5222711107C0882311F031115C
:101C900012C09F5F11964FC0763049F0FA014F5F36
:101CA0005F4FE491EF3F21F4552009F444C0E0E098
:101CB000332319F001C0E0E0E095992011F0723073
:101CC000D1F1882041F0FE2F332311F0F62301C01B
:101CD000F62B6E2FEF2FF5E0A632BF0750F5AC17AD
:101CE000BD0738F5CE2ED12CF6010E2C01C0EE0F1B
:101CF0000A94EAF76C9067206E2A6C92BB20C9F0B8
:101D0000FD01E058FF4F25E0E632F20750F4002EC7
:101D100002C0D594C7940A94E2F7D080DA20DC2878
:101D2000D082332331F0E1E0BE1203C0E62DE16042
:101D3000EC9311969F5F7F5F773009F0A4CF90936B
:101D40005209DF91CF911F910F91FF90EF90DF909B
:101D5000CF90BF90AF909F908F907F906F905F904B
:101D6000089587FD53C047FF02C0640F419567FF88
:101D700002C0460F60E0A42FBB27A7FDB095A60FB9
:101D8000B11D67FDBA95A134B10514F040E4461BBE
:101D9000253511F460FF2AEA362F359535953595AE
:101DA000E82FF0E050E83503E00DF11D1124EA5D65
:101DB000FE4F6770B9F081E090E0062E01C0880FF9
:101DC0000A94EAF781958223908189278083E058DD
:101DD000FF4F6850460F06C0808182278083E058FD
:101DE000FF4F48501416C4F3442381F0485F71F04C
:101DF000E058F10981E090E0042E01C0880F0A94B8
:101E0000EAF78195822390818927808308952FEFB7
:101E10000C94B10E29E1AC01249FC001259F900DC7
:101E20001124892F08959C0145E0359527954A9501
:101E3000E1F7AC01421B530B9A01880F892F881FD1
:101E4000990B280F391FC901089549E2489F900155
:101E5000499F300D11243595279535952795492FA4
:101E6000441F4427441F50E0841B950B76E0959552
:101E700087957A95E1F7281B390B241B350BC9018F
:101E80000895992787FD90950C94250F9C01220FAA
:101E9000331F492F441F4427441F50E0841B950BD8
:101EA000BC0175956795260F371F240F351FA4E0D9
:101EB00095958795AA95E1F7280F391F240F351FAF
:101EC000C9010895992787FD90950C94460FCF92EC
:101ED000DF92EF92FF92CF93DF93EC01862F0E9467
:101EE000620FFC019E01DE010E9423739B01AC0185
:101EF000DF010E943673272F382F492F5527DE0127
:101F00000E9436736B017C01CCE0F694E794D79481
:101F1000C794CA95D1F720E031E02E1B3F0B0E94F9
:101F2000237360587F4F8F4F9F4F6C0D7D1D8E1D0B
:101F30009F1D472F582F692F7727CA01DF91CF9117
:101F4000FF90EF90DF90CF9008958F718E3050F416
:101F500090E0FC01EE0FFF1FE80FF91FEE51F84F64
:101F600083E6828308958F718E3058F490E0FC01EF
:101F7000EE0FFF1FE80FF91FEE51F84F82E6828344
:101F800011820895CF93DF9390E0FC0143E0EE0FC0
:101F9000FF1F4A95E1F7E350F64F1482EC01CC0F96
:101FA000DD1FC80FD91FCE58D54F988189818F70FA
:101FB000958386831782DF91CF91089583393CF40E
:101FC000282F332727FD30952F573F4F0FC08730DD
:101FD0003CF495E08902900111242B5C3D4F06C032
:101FE0009AE08902900111242E5E3D4FC9010895A7
:101FF000863040F0893040F08C3040F08E3040F038
:102000008A50089580E0089581E0089582E008955F
:1020100083E0089590E09C01220F331F280F391FA1
:102020002D56334FC90108958823E1F087FF06C07C
:10203000863E1CF0E0E6E81B16C081958B311CF44F
:10204000E82FE05C10C085321CF4E82FEB5E0BC07B
:10205000893244F4E82FFF27E7FDF095E652F84F68
:10206000E49101C0E0E28E2F08952091CE0532B7B1
:102070008091CE052813F9CF922F80E0AC01432B3D
:102080009A01C9010895E82FF0E0EC5FF74FE49161
:10209000F0E0EE0FFF1FE855FA4F20813181C901B2
:1020A00008958091A40D2AEF829FC0011124880F0A
:1020B000991F90931E0180931D01089582508230D4
:1020C00028F485E0689FB001112401C070E0CB01C5
:1020D0000895EDE5FDE020E030E081919191280F39
:1020E000391F8DE0E537F807C1F7C901089595E07C
:1020F000899F900111242556344FC90108959F925C
:10210000AF92BF92CF92DF92EF92FF920F931F9305
:10211000CF93DF93982E6A017B010E9477108C0188
:10212000FC0183812481922F9F73880F991F880F50
:10213000991F95958795959587950E94ED0C5C0163
:10214000F80181818C590E94410FEC01F8018081D6
:1021500084560E94410FFC019C2F8D2FAC16BD06AA
:1021600014F49A2D8B2DA92EB82EAE16BF060CF4A2
:102170005F01C114D1048CEFE8068FEFF806B4F0CC
:10218000C114D10484E0E806F1043CF4C114D10484
:10219000E104F10479F184F005C0C12CD12C94E064
:1021A000E92EF12CDE01AA19BB0909C0C12CD12CE2
:1021B0008CEFE82EFF24FA94D501AE1BBF0BA701CC
:1021C00096010E9441736B017C01CC24F7FCC394FF
:1021D000DD24EE24FF24DC01CB018C199109A10937
:1021E000B109CD0195958795959587958C0D911D94
:1021F000A80EB91ECA15DB050CF45E01AE16BF06AB
:102200000CF45F01F801848187FF03C0B194A194AD
:10221000B108E92DF0E0EF59F74F8081803869F07F
:10222000DF91CF911F910F91FF90EF90DF90CF90B2
:10223000BF90AF909F900C94410FC501DF91CF915B
:102240001F910F91FF90EF90DF90CF90BF90AF90D4
:102250009F90089599E0899F900111242558354F4A
:10226000C901089594E0899F900111242551344FAC
:10227000C90108951F93CF93DF93182F882311F07E
:10228000CDE001C0CFE1D0E08C2F112331F00E94CE
:102290003211FC019081937005C00E942A11FC014B
:1022A00094819F739111DF5FC150C7FFEDCF8D2FD8
:1022B000DF91CF911F910895CF93C82F0E943A11BB
:1022C000282F30E0C1110CC00FC082EE97E002C091
:1022D00080EF97E09093590D8093580D81E008C0EE
:1022E0002E30310594F703C0203231058CF780E0A1
:1022F000CF9108959DE0899F900111242651334F7D
:10230000C9010895CF93C62F0E947A116C2F70E0F7
:10231000FC01E60FF71F4081FC012481332727FDD4
:102320003095660F771F02C0359527956A95E2F7BD
:1023300023703327F4E04F02200D311D1124C90111
:10234000CF9108951F93CF93DF93C82F162FD5E019
:10235000CC2381F0612F8C2F0E948211853F21E0D8
:10236000920744F0855F8C1708F08F5FD150C82F1B
:1023700079F7C0E08C2FDF91CF911F910895CF9313
:10238000C62F0E94A2116C2FCF910C948211E09164
:10239000A50DF0E0E45FF74FE491F0E024E030E0D9
:1023A000281B3109220F331F02C0F595E7952A95A6
:1023B000E2F7E370FF278E2F8F5F08951F93481772
:1023C00059071CF086179707D4F4413851050CF4CF
:1023D000805887FF03C080951FEF01C011E0E82FF0
:1023E000EE0FFF0BE15DF24F208131811203C0013E
:1023F000139F900D1124861797070CF4CB019C01B5
:10240000481759070CF49A01C9011F9108958823B0
:1024100071F0E82FF0E0EE5DF34F2081332727FDC8
:10242000309595E0899F200D311D112402C020E0D8
:1024300030E0255D334FC90108951F93CF93DF939B
:10244000182F0E940712EC01812F8F5F0E94071244
:102450008C1B9D0B80FD05C086958F5F8F7791E06B
:1024600002C08F7790E08F7790FB87F9BE01DF91F4
:10247000CF911F9108957F928F929F92AF92BF92BA
:10248000CF92DF92EF92FF920F931F93CF93DF9340
:102490007C01862F0E941D12EB01982F9F772CEF55
:1024A000F21A1E141F040CF009C0892E912CE1149D
:1024B00098E0F90654F0C80DD91D21978881992715
:1024C00087FD9095982F882763C087FD17C029C086
:1024D0008A159B0551F0FE01E80FF91FE80DF91D63
:1024E00080810E94410F9C5F02C080E098E08E15C1
:1024F0009F0558F57394A8018C010DC0712C00E064
:1025000010E040E050E0640121E0C21AD10854011B
:1025100082E0A81AB108872D90E08C159D05C4F2C1
:1025200016C0B4016150710980E098E00E9479738F
:102530008B01C7010E946573762E609FA001619F89
:10254000500D1124040F151F02C0A8018C01FE01BB
:10255000E70DF11DC081DD27C7FDD0959701241B34
:10256000350BA181BB27A7FDB095AC1BBD0B0E940D
:102570002F73982F872F762F66279801241B350BF2
:1025800040E050E00E948D739C2F8827820F931F9C
:1025900069E170E00E947973CB01DF91CF911F91C7
:1025A0000F91FF90EF90DF90CF90BF90AF909F90F2
:1025B0008F907F9008959C016330A1F034F46130D6
:1025C00051F064F4662391F120C06530A9F084F0E5
:1025D0006630D9F416C097FF29C010C01816190626
:1025E0002CF50CC097FF22C03195219531091EC0F2
:1025F00018161906B4F002C097FD16C020E030E0AE
:1026000015C01816190684F40CC067FF06C0319572
:102610002195310986E0861B682F6750C9010C940B
:102620003B1220E034E002C020E03CEFC9010895F5
:102630006091C9050C943B12DF92EF92FF920F93C9
:102640001F93CF93DF93F82E8091C9050E941D122E
:10265000D82EFB01C82FCF77FC16C0F52F2D30E008
:10266000D0E08E0101501109C90146E0880F991F81
:102670004A95E1F7B8010E9479735DE3E52EE60E15
:10268000E20FF31F40815FE14502C00111246CE9B4
:102690007FEF0E947973462F405ED7FE19C0FF205E
:1026A000B9F020173107A4F4EC0FFD1F319780819A
:1026B00020E48202C00111248C59964E68EC70E02F
:1026C0000E947973BDE3EB2EE60E02C040E0E12CE0
:1026D0008E2D942FDF91CF911F910F91FF90EF904E
:1026E000DF9008958F5F90E0FC01EE0FFF1FE80F71
:1026F000F91FEF5DF54F81E09481911101C080E0F9
:102700000895CF93DF93EC0168831A82198270E0F9
:10271000FB01EE0FFF1FE60FF71FEF5DF54F848102
:102720008B831C8210927809DF91CF91089590914C
:102730009F0D95FF05C0823018F024E120931F0102
:102740009871983049F0911103C0811105C0089526
:102750009831C1F48330B0F09091A90D9295990F02
:10276000907E95959595959595959595E82FF0E0A2
:1027700085E09802E00DF11D1124E25DF74FE49130
:10278000E093E20508950F931F93CF93DF93809119
:10279000E0079091E10701969093E1078093E007AD
:1027A00080911D0190911E01009729F0019790934F
:1027B0001E0180931D0180911F01882319F0815013
:1027C00080931F0180915109882319F081508093D3
:1027D00051098091DE07882319F081508093DE072C
:1027E0008091DF05882319F081508093DF0506B3BF
:1027F0000095C1E0D0E010E0B8010C2E02C0759544
:1028000067950A94E2F761709E0121503109C90170
:10281000880F991F820F931F8E51984F0E940C0DA5
:102820002196C730D10541F710B31095C6E0D0E02E
:102830006C2F6650812F0E94770D61E0811101C0DD
:1028400060E0CE01880F991F8C0F9D1F8E51984F0D
:102850000E940C0D2196CE30D10551F780912501B3
:1028600080FF09C08091E0079091E107811103C0CA
:1028700081E00E9497138091250181FF0CC0809117
:10288000E0079091E107803411F18091E007909189
:10289000E1078834E1F08091250182FF12C0809128
:1028A000E0079091E1078038B1F08091E0079091C6
:1028B000E107883881F08091E0079091E107803945
:1028C00051F08091C60D81608093C60D08C081E0F3
:1028D0000E949713E0CF81E00E949713F2CFDF911F
:1028E000CF911F910F9108958091E205811108C049
:1028F0008091E005811104C08091E105882311F0E9
:1029000084E105C080912301882321F081508093C8
:10291000230106C080916300869581708093240115
:102920008091240108958430B9F040F48130F1F0B1
:10293000B8F0823021F1833091F52BC0863049F018
:1029400028F0873019F1883051F526C081B18470A4
:10295000089583B38078089580916300817008950D
:102960008091630083FB882780F90DC0809163000C
:1029700083FF15C081B186FB882780F9089581B156
:1029800086FB882780F991E08927089581B18071BD
:10299000089583B38074089581B18072089580E0B2
:1029A0000895AF92BF92CF92DF92EF92FF920F9372
:1029B0001F93CF93DF93B82E882309F486C19927FC
:1029C00087FD909597FF03C09195819591098F316F
:1029D00039F491E08091EB08882309F471C16DC14D
:1029E0008E3109F46CC18A3020F481500E94931416
:1029F00019C08231D8F48A50982F9695E091A00D95
:102A0000E37024E0E29FF0011124E90FF11DE25D83
:102A1000FA4E6491817090B3660F680F892F80958C
:102A20000E94770D91E081114BC147C18251C82EA0
:102A3000D12CEE24E394F12C082E02C0EE0CFF1CE6
:102A40000A94E2F72091D1083091D2082E213F213B
:102A5000232B59F020914F08309150082E213F210F
:102A600091E0232B09F02CC128C12091D10830918D
:102A7000D2082E293F293093D2082093D1080E94F2
:102A80000A10EC019A81892F82958F708A3008F0A4
:102A9000885F9F7009F41BC1882309F41EC10E943E
:102AA000D11481111AC113C1F601EE0FFF1FED52AF
:102AB000F74F80E090E891838083F3C088810E9483
:102AC000D114182F89810E94D1142A812F7030E0EF
:102AD0002630310521F027303105A9F411C011232A
:102AE00009F4DFC0882309F4DCC080914F0890917D
:102AF00050088E299F299093500880934F08DFC07B
:102B0000112381F3F2CF8127EDCF64E0A6120CC030
:102B1000F601EE0FFF1FED52F74F808191811816DD
:102B200019060CF4BEC0E1CF85E0A81208C0F6017A
:102B3000EE0FFF1FED52F74F80818170D3CF888158
:102B40000E946F198C0122E0A2121CC089810E9490
:102B50006F192A812F7030E02930310521F02A3099
:102B6000310559F405C00817190709F09AC0BDCFFF
:102B7000801791070CF4B9CF94C0081719070CF40B
:102B8000B4CF8FC0A8806FE36A1540F4298183E039
:102B900028029001112420583E4F0CC02AE32A1528
:102BA00028F42981332727FD309504C089810E94AC
:102BB000410F9C014A814F7050E04330510581F133
:102BC0003CF44130510559F04230510571F51EC0B9
:102BD00044305105B1F04530510539F51CC08A2DFE
:102BE0008B53853028F40217130709F05AC07DCFA4
:102BF000021B130B015C1F4F0F37110508F475CF33
:102C000050C017FF03C01195019511092017310716
:102C10000CF46BCF46C017FF03C011950195110945
:102C2000021713070CF461CF3CC0C601880F991F2F
:102C3000FC01ED52F74F408151814115504811F48C
:102C400011830083FC01ED52F74F80819181A8012F
:102C5000481B590B8A818F708C3091F481E037FDCD
:102C600007C0421753070CF480E057FF3FC011C064
:102C7000241735070CF480E01416150654F036C0FE
:102C800057FF03C051954195510981E04217530701
:102C900044F0F601EE0FFF1FED52F74F1183008352
:102CA00021CF80914F0890915008E094F094E82251
:102CB000F922F0925008E0924F0890E001C091E0B4
:102CC0001B14BCF081E0982714C091E012C08A81E7
:102CD0008F708F3009F0E8CEE4CF8A818F700E9428
:102CE000F80FA82E81E0A81210CFE8CE8111D1CF25
:102CF000D8CF892FDF91CF911F910F91FF90EF9047
:102D0000DF90CF90BF90AF9008952F923F924F9257
:102D10005F926F927F928F929F92AF92BF92CF926B
:102D2000DF92EF92FF920F931F93CF93DF93CDB774
:102D3000DEB728970FB6F894DEBF0FBECDBF682E62
:102D4000592E762E28E0E82FF92FCE010196DC01CE
:102D500001900D922A95E1F7C12CD12C88248A94F8
:102D6000482E392EA12C24E0B22E8C2D711008C0D3
:102D7000F601EE0FFF1FE45FF74F91819F7791837C
:102D80000E9432117C01FC018081982F937009F41C
:102D90009FC02181622F637070E0482D552747FD49
:102DA00050956417750709F48BC0269526952F71E9
:102DB00030E00090650A02C0359527950A94E2F745
:102DC00020FD7EC0859585950E94D114882309F445
:102DD00077C0F7019180F3E09F22E42DF32DE90DF8
:102DE000F11DE90DF11D00811181F701808117FFAF
:102DF00003C080FD03C064C081FF62C071100AC0BF
:102E0000F601EE0FFF1FE45FF74F81819FEF90FB0C
:102E100087F98183892CF70183818823A1F191812E
:102E200097FF06C0682FC8010E94DB128C012BC0DF
:102E300044E650E06CE97FEF992787FD90950E946A
:102E4000DE11BC010097F9F0212E221C2224221C45
:102E500019F011950195110977FF0CC071956195D5
:102E60007109C501801B910B0E94670F8501081B2A
:102E7000190B04C0C8010E94670F8C01222019F0B1
:102E800011950195110944E650E060E070E0F7010A
:102E9000828190E00E94DE110E94620F9801DC01A5
:102EA0000E941B73BB2797FDBA95A92F982F872FD8
:102EB000E62DF52DE90DF11DE90DF11D91838083BE
:102EC000FFEFCF1ADF0A8EE0C816D10409F04DCF0C
:102ED00028960FB6F894DEBF0FBECDBFDF91CF911D
:102EE0001F910F91FF90EF90DF90CF90BF90AF9028
:102EF0009F908F907F906F905F904F903F902F901A
:102F000008954F925F926F927F928F929F92AF92AD
:102F1000BF92CF92DF92EF92FF920F931F93CF93C6
:102F2000DF93682E00E010E0712CF6E04F2ECC24E9
:102F3000C394D12CB2E38B2E912CA12CB12C802FD9
:102F4000043068F49091A00D9370F80124E0929FF2
:102F5000E00DF11D1124E25DFA4E549001C0502E97
:102F60000E9443109C01409EE001419ED00D11241F
:102F7000C35AD24F88819981281B390BB901882700
:102F800077FD8095982FEAE0660F771F881F991FBD
:102F9000EA95D1F7121613061CF42C813D8102C06C
:102FA0002A813B812436310514F424E630E044279D
:102FB00037FD4095542F0E948D73E901C1154CEFE8
:102FC000D4072CF0C13054E0D50724F405C0C0E08C
:102FD000DCEF02C0C0E0D4E08091780A87FF06C031
:102FE00082E0581203C0D195C195D109E52CF12C8E
:102FF000F701EE0FFF1FE253F64FD183C083CE01DE
:10300000D7FF04C0882799278C1B9D0B54E0969509
:1030100087955A95E1F7282F823070F4C6010E2C5F
:1030200001C0880F0A94EAF7211102C0982F03C04B
:10303000909120019823792AA3E0A51508F45FC098
:10304000B1E0B61508F44EC08091540990E00E2C02
:1030500002C0959587950A94E2F780FF43C080915E
:10306000DF058111BAC03EC0A52DAF73B0E0CD0120
:10307000880F991F81539A4FAD01440F551F425736
:10308000524FDC012D913C91DA018D919C91281BCE
:10309000390BA181BB27A7FDB0950E941B73A50129
:1030A00094010E948D7352945694569443E0542296
:1030B000852D90E08130910519F0029799F40EC0AA
:1030C000C20FD31FC115BCEFDB072CF0C11524E0E4
:1030D000D20734F407C0C0E0DCEF04C0E90102C04D
:1030E000C0E0D4E0C701880F991FFC01EB50F74FF7
:1030F000D183C083FC01E75AF74FD183C0830F5FB0
:103100001F4F0730110509F01ACF662D89E598E0A9
:103110000E948516B090650A0091770A0870809128
:10312000780A60E4A62EA82270E8972E982220E064
:1031300034E080915D0890915E08281B390B69018D
:10314000EE24D7FCE094FE2C8090DE07C1E5D8E0A9
:1031500010E0612F8B2D0E94BF11123011F500235A
:1031600001F1AA2019F02CE03EEF02C023E83FEF66
:10317000992019F0280F391F04C0AC01421B530BD2
:103180009A01442737FD4095542FC701B6010E948C
:1031900049735BE095958795779567955A95D1F733
:1031A000CB01882011F080E090E0BC01660F771F12
:1031B000699379931F5F143061F6611019C0C09153
:1031C0007A0AC7218091200180958C2319F082E032
:1031D0000E949713C09320010BC0F701EE0FFF1F51
:1031E000EA56F24F5080852D807C09F03DCF7ACF92
:1031F000DF91CF911F910F91FF90EF90DF90CF90D3
:10320000BF90AF909F908F907F906F905F904F9006
:103210000895CF92DF92EF92FF920F931F93CF9377
:10322000DF93CDB7DEB728970FB6F894DEBF0FBE99
:10323000CDBF6C018091CD050E9432117C018E01C1
:103240000F5F1F4F88E0F80111928A95E9F7F701A7
:1032500081818370D801A80FB11DA80FB11DCD9237
:10326000DC9261E0C8010E948516F70181818370BC
:10327000F801E80FF11DE80FF11D8081918128967A
:103280000FB6F894DEBF0FBECDBFDF91CF911F9177
:103290000F91FF90EF90DF90CF9008950F931F93C1
:1032A000CF93DF93C1E0D0E00DE01C2F0C9FF00125
:1032B0000D9FF00D1124E651F34F8581882321F0F5
:1032C0000E94D114811105C02196C530D10569F73E
:1032D00010E0812FDF91CF911F910F9108958111FF
:1032E00003C020E030E07EC0982F9150973038F432
:1032F000E82FF0E0EE0FFF1FE453F64F5CC088307C
:1033000009F41DC08C3068F3803168F4682F6C506C
:103310008091650A0E94BF1173E0880F991F7A950A
:10332000E1F70C94ED0C803169F481E00E94D11436
:10333000811156C082E00E94D1148111D2CF20E0C9
:1033400034E050C0873110F48D5003C0833238F41C
:1033500085500E94D114882309F442C0F0CF8B32EB
:10336000C8F4482F50E043525109DA01AA0FBB1F9D
:10337000A153BA4F2D913C91873248F4FA01EE0FD8
:10338000FF1FE257F24F80819181281B390B220FDA
:10339000331F28C08B3338F4E82FF0E0EE0FFF1F07
:1033A000E55EF74F08C0803448F4E82FF0E0EE0FF8
:1033B000FF1FE754F34F2081318114C0803421F482
:1033C0002091450D30E00EC0833408F08ACF98E09C
:1033D000899FF0011124EB50F84F2581368102C0FE
:1033E00020E03CEFC9010895CF93DF93D0E0C0E027
:1033F0008D2F0E944310B6E096958795BA95E1F718
:10340000C80FDF5FD730A1F7D0E18D2F0E946F1971
:10341000C90FDF5FD731C9F78091F2089C2F981B45
:10342000892F992787FD909597FF03C091958195E6
:103430009109029724F0C093F20881E001C080E076
:10344000DF91CF9108958091E00790911C0198172A
:1034500061F180931C010E94F419882349F01092B5
:10346000F1081092F00880918D0D81FD0E9451109D
:1034700080918D0D843069F080911D0190911E0125
:10348000892B39F48091540986FB882780F9817053
:1034900001C081E090911F01992311F091E08927EB
:1034A000882311F0C79A0895C7980895F894209139
:1034B000E0073091E1077894C90108950F931F93B5
:1034C000CF93DF93C9E010E8D0E08091DF0781233C
:1034D00001E009F400E08C2F81500E94931491E0E8
:1034E000811101C090E00917C1F08C2F8450853004
:1034F00018F0911103C007C0992311F0DC2F03C00D
:10350000DC2FD19505C0C43018F4D11101C0D1E031
:103510008091DF0781278093DF071695C150C13066
:10352000A1F60E94561A2091210130912201821B9E
:10353000930B0B9708F0D0E00E94561A909322014B
:10354000809321018D2FDF91CF911F910F910895CD
:10355000E0EBFDE09081982B90830E94561A9093A7
:10356000AF0D8093AE0D08951F93CF93DF93162F69
:10357000EA010E947A11FC01E10FF11D9E013595CF
:103580002795359527952083110F23E030E0012EF4
:1035900001C0220F0A94EAF72095FC01348123230D
:1035A000AE014370552701C0440F1A95EAF7240F66
:1035B000248382E0DF91CF911F910C94A81AE82F09
:1035C000F0E0772767FD7095EE0FFF1FE15DF24F8A
:1035D000808191818617970729F07183608382E04B
:1035E0000C94A81A0895109290008CE089B9599A09
:1035F00008951092900080E189B959980895109229
:10360000900082E289B9599A08951092900089E158
:1036100089B9599A08951092900083E389B9599A0B
:1036200008951092900084E489B9599A08951092EF
:1036300090008FEC89B9599A0895FC0125812333B4
:10364000E1F4848534E6839FC00111246FEF70E0BC
:103650000E94797360939906808591859093830683
:103660008093820682859385909385068093840655
:10367000209386068681809387060895FC018081C9
:10368000682720E1629FC0011124682770E09B0138
:10369000A4E035952795AA95E1F7818190E0282748
:1036A0003927CB01B3E0880F991FBA95E1F7762F40
:1036B000662786279727282739273183208308956F
:1036C000CF93DF931F92CDB7DEB770E090E1899F73
:1036D000600D711D112441E050E0CE0101960E9461
:1036E0003C7489810F90DF91CF910895FF920F93E1
:1036F0001F93CF93DF93F62E1091CD05662311F023
:10370000115001C01F5F8823C9F18091CD050E942F
:103710003211EC01098117FF06C0802F837009F474
:103720006FC08D5F08C01E3059F4802F83708330C6
:1037300009F466C08F5F83700C7F082B09835EC01D
:10374000812F0E943211FC0181818027837019F43E
:1037500080818370D1F58981982F9370FF2029F0A3
:10376000992309F44DC09D5F04C0933009F448C00B
:103770009F5F93708C7F892B898340C08091CD059A
:103780000E942A11EC01088117FF05C0802F8F705D
:10379000B9F1815F07C0103251F4802F8F708F30E4
:1037A00079F18F5F8F70007F082B088327C0812FEE
:1037B0000E942A11FC010F7084818F7341F0808177
:1037C0008F70081304C089E015C084E013C0FF2087
:1037D00021F00023A9F0015F03C00F3089F00F5FD3
:1037E0000F708881807F802B888308C0988120811A
:1037F000299391938150D0F71093CD0581E001C0BA
:1038000080E0DF91CF911F910F91FF9008950F936A
:103810001F93CF93DF93FA017491DA0112963196D8
:10382000E491F0E0379693E0F595E7959A95E1F706
:103830001E2F279F900111242E9FA0012F9F500D16
:103840003E9F500D1124A40FB51F66956695669591
:1038500090E0F0E86F9F800D911D112420E030E092
:1038600060E0472F50E013C0E901C80FD91FCA5DBF
:10387000DE4FFD0103C00491319609930E2F0A1B00
:103880000717C8F3A40FB51F6F5F20583F4F61178C
:1038900058F3DF91CF911F910F91089580E094E04C
:1038A000E6E2F1E0DF019C011D9221503040E1F79A
:1038B00008950F931F93CF93DF9387ED92E0E6E691
:1038C000FAE0DF019C011D9221503040E1F782E0D7
:1038D0000E94A81A10E004E6812F0E942A11EC0130
:1038E000912F9F708881807F892B888309831F5F38
:1038F000812F0E94C7118F739C81907C982B9C8391
:10390000143051F78091390D8F6080618093390DAB
:10391000DF91CF911F910F910895462F50E060E005
:1039200070E00C9435740F931F93CF93DF93062FA1
:1039300010E0882319F1862F0E943211EC01A801B2
:1039400040955095425F5F4F440F551F440F551FE0
:10395000BC0104960E94237464E0CE010E948D1C79
:1039600088818360888390914C08915093708981FD
:103970008C7F892B898384E68A832CC0862F0E94C2
:103980002A11EC01C80180959095809629E0289F26
:10399000A001299F500D1124BE01CE0109960E945D
:1039A000237469E0CE010E948D1C80914C08282F61
:1039B00021502F709881907F922B988385300CF046
:1039C00002C00E94C7118F739C81907C982B9C83AE
:1039D00084E6898382E0DF91CF911F910F910C944F
:1039E000A81ACF93DF93C62FD0E08823A9F0862FA3
:1039F0000E943211AE0140955095425F5F4F440FD7
:103A0000551F440F551FBC016C5F7F4F0E942374EC
:103A100064E08FE19CE016C0862F0E942A119E016F
:103A200020953095205E3F4F69E0629FA001639F23
:103A3000500D1124BC01675F7F4F0E94237469E021
:103A400082E99BE00E948D1C82E0DF91CF910C9473
:103A5000A81AAF92BF92CF92DF92EF92FF920F938C
:103A60001F93CF93DF93F82ED62EE42E80912A0C4D
:103A7000062F112707FD10959801280F311D87FD8E
:103A80003A95213431052CF082E00E94971380E0B2
:103A900086C08F2D0E940712EC01D7FC2EC08F2DFF
:103AA0008F5F0E940712EF2DF0E04F2D5BEF540364
:103AB000900111242D5D3F4F40912A0C240F311DA0
:103AC00047FD3A95ED5DF34F4081241B310947FDD9
:103AD0003395A901BC01800F911F0E942374D7FE6A
:103AE00027C016C0DF01AA0FBB1FAC0FBD1F3C9142
:103AF000EC0FFD1F30832F5F05C020E08E2D99272E
:103B000087FD9095E22FF0E0E817F9075CF3C7CF47
:103B10006D2D6195C8018E56934F0E948D1C08C073
:103B2000EF2DF0E0ED5DF34F80818D0D8083F394F8
:103B300087E08F15A8F7CE2CE7FCC394C594DD244D
:103B4000C7FCD094B12C2E2D332727FD3095890149
:103B50000250110948ECA42E790141E0E41AF10861
:103B600015C0FE01E80FF91FE20FF31FAC014F5F14
:103B70005F4FA49EC001A59E900D11248C0D9D1D2C
:103B8000B7010E94797364566083B3948B2D90E0E3
:103B90008017910734F382E00E94A81A81E0DF9138
:103BA000CF911F910F91FF90EF90DF90CF90BF903A
:103BB000AF9008952F923F924F925F926F927F92B3
:103BC0008F929F92AF92BF92CF92DF92EF92FF922D
:103BD0000F931F93CF93DF93CDB7DEB766970FB6E2
:103BE000F894DEBF0FBECDBF8D83662E0E94811775
:103BF00060E481E998E00E948D1C2FEF3FEF388749
:103C00002F831E82198A3D8134703D8B4D8148700F
:103C10004E8B862D90E0A0E0B0E013E1880F991F55
:103C2000AA1FBB1F1A95D1F78B879C87AD87BE87CC
:103C3000A6E2B5E0B88BAF87812C912C1A86198645
:103C4000E62DF0E0FC8BEB8B8A8AFD81F1110BC035
:103C50002E81211108C0F401EE0FFF1FE45FF74F22
:103C600081818F7B81838A890E942A118C01FC01CA
:103C70007480FFE37F2209F416C3DC012C91822FAC
:103C80008F70E82FF0E04F81588502C05695479518
:103C90008A95E2F740FFFAC25A89552329F019970D
:103CA0008C9182278F7051F0EE0FFF1FEE0FFF1FD8
:103CB000EF56F74F1082118212821382F80183812E
:103CC0008F7141F482818F73BB24B394811104C03E
:103CD000B12C02C0BB24B394A72CAA94F801838111
:103CE0008F7190E00090650A02C0959587950A94BF
:103CF000E2F780FD23C38281880F880F8595859523
:103D00000E94D1148111E5C219C38B3208F00DC392
:103D10008091DF05882309F40FC307C3F3E0FA1588
:103D200008F4B4C222E0A21204C08091770A83FD95
:103D3000ADC23E89311175C0EA2DF0E0EE0FFF1FD4
:103D4000E75AF74FE080F1806EC043E04A1580F0FB
:103D5000D8018C91EA2DF0E0EE0FFF1F85FF03C024
:103D6000EB50F74F02C0E75AF74FE080F1804FC0A9
:103D7000872D0E946F197C01272D2B52203108F0CE
:103D800046C0F801A081AF70EA2FF0E0422F50E06A
:103D9000E417F507E1F181E090E002C0880F991F78
:103DA000AA95E2F7DC0181E090E002C0880F991F3C
:103DB0002A95E2F79C018F8198852823392366276D
:103DC00077276A1B7B0B89859A85682B792B26239D
:103DD0003723232B21F08A2B9B2B9A8789874E1719
:103DE0005F071CF09E81992391F0FA01EE0FFF1FEF
:103DF000EE0FFF1FEF56F74F80819181A281B381B3
:103E0000892F9A2FAB2FBB27A7FDBA957C01B11044
:103E10000CC0C701892F990F990B85958595D82ED0
:103E200004C0E12CF12CDD24D394F401EE0FFF1F2C
:103E3000DF01A35FB74F2C91322F3295307F36FBD5
:103E4000330F330B30F9220F220F26FB220F220BE8
:103E500020F9AD81A11157C0D31609F441C2E45F26
:103E6000F74F80814181942F9370892B09F4232F80
:103E7000F80185813D150CF401C082958F70F40125
:103E8000EE0FFF1FE45FF74F32E3389FC0011124AC
:103E90008083392F33708181807F9D2D9370990F9E
:103EA000990F832B892B922F93709295907F8F7C03
:103EB000892B818315C24B895C89841B950B97FFE5
:103EC00002C080E090E08083937081818C7F892B99
:103ED0008183B11009C0E22EFF24E7FCF094FE2C90
:103EE000EE24FF0CFF0C09C2D110D0C106C29D2DDB
:103EF0009370292F2295207F832F837C990F990F10
:103F0000822B892B8183D11012C0F80186818823EE
:103F100061F08281807C803841F0BB2041F0712CBF
:103F2000811108C0E12CF12C08C0B110AFC1772479
:103F3000739403C0E12CB4E0FB2EFD81F1112FC07E
:103F4000BB2069F0D1100BC0F401EE0FFF1FE45F3E
:103F5000F74F80812181922F9370892B01F1F80115
:103F60008481982F907C89F08295869586958370C0
:103F700090E0019721E030E002C0220F331F8A95C4
:103F8000E2F7C9013989382B398BF401EE0FFF1F95
:103F9000E45FF74F81814FEF40FB86F98183772003
:103FA000F9F05D8951111CC0F801838185958595D3
:103FB00085958595859587FF03C0282F2095A0C1FD
:103FC00081110EC0F3E0FA1558F02A2D99C1209105
:103FD000780A27FF03C0E81AF90A02C0E80EF91EA2
:103FE000D8018C91F80191819B8386FF02C08FEFED
:103FF00001C080E08C8345EF50E06BE07FEF8B8168
:104000009C810E94DE110E94460F5C01FD81F2300E
:1040100008F086C0F8018681882309F481C0AF8545
:10402000B8892D903D904D905C90BB2757FCBA9578
:10403000A52D942D832D9701281B390B09F470C0F1
:10404000611004C08091EB08811163C0C701AA27E9
:1040500097FDA095BA2FCC24D82EE92EFA2E809168
:10406000EB081216130634F5882309F449C0F80149
:1040700086818F7090E0009709F442C0F2E3F89FC8
:104080009001F99F300D1124442737FD4095542F9E
:104090006B857C858D859E850E948D73220D331DD9
:1040A000441D551D2C153D054E055F054CF5690158
:1040B0007A0126C0882321F1F801868182958F70CC
:1040C00090E00097E9F0F2E3F89F9001F99F300D3E
:1040D0001124442737FD4095542F6B857C858D85B1
:1040E0009E850E948D73D201C101821B930BA40B8C
:1040F000B50BC816D906EA06FB0614F46C017D015F
:10410000AF85B889CD92DD92ED92FC92139716019E
:104110002701BB2757FCBA95A52D942D832D7C0133
:10412000772059F0F8016781662339F0808184FF98
:1041300004C0C7010E94DB127C019701D5010E94D7
:104140001B731B012C01772019F1D8018C91F80108
:10415000908599838095881F8827881F81508A833E
:1041600045EF50E06BE07FEF89819A810E94DE117C
:10417000009771F00E94250FAA2797FDA095BA2FEE
:10418000BA2FA92F982F8827280E391E4A1E5B1E8A
:10419000D801FC90F4FC2AC0F801878144E650E085
:1041A0006CE97FEF992787FD90950E94DE110E94B0
:1041B000620F181619063CF457FE18C0A0E0B1E0D3
:1041C000A81BB90B09C0009789F01214130414043A
:1041D000150464F4DC01B395A20191010E944173BE
:1041E000272E382E492E552447FC5A94D8013C914D
:1041F0003F70F8018281829586958695837090E064
:1042000024E0329FF001112481309105C9F0EF566E
:10421000F74F029779F520823182428253823D81A5
:10422000311134C01A891150103280F5812F0E944B
:104230002A11DC018C918F258F7009F46CC026C087
:10424000552757FC5A95452D342D232DEF56F74F02
:1042500060817181828193810E944973BAE0959552
:10426000879577956795BA95D1F760837183828337
:1042700093830CC080819181A281B381820D931DB3
:10428000A41DB51D80839183A283B383BFEF8B1AD6
:104290009B0AEF85F8893496F88BEF87F0E28F164A
:1042A000910409F0D1CC2E812F5F2E83253021F48B
:1042B00039893093250148C04F81588589859A8571
:1042C0004823592358874F83612C452B09F0A1CCF3
:1042D000EFCFF80184818F73833208F016CD25C0AB
:1042E000F401EE0FFF1FE45FF74F80813181932FC0
:1042F0009370009709F0DFCDFACD7724739420CE28
:10430000E22FEE0FFF0BEF5AF74F808191812230A1
:1043100009F064CE5CCEE12FF0E0EE0FFF1FE45F0A
:10432000F74F81818F7B81837ECFFD81F23008F052
:10433000F5CCDD24D39409CDBB24B3942D81223058
:1043400008F0A4CFD12C01CD66960FB6F894DEBF4D
:104350000FBECDBFDF91CF911F910F91FF90EF90D6
:10436000DF90CF90BF90AF909F908F907F906F9095
:104370005F904F903F902F900895882329F080916F
:104380007E06811110920D0A1092C3061092C40687
:104390008FE3EEE7F6E0DF011D928A95E9F783E609
:1043A0008093910680939B068CE180937F0682E147
:1043B0008093800682E08093810610923D0D1092DA
:1043C0007D061092A605089560E00C94601B809114
:1043D000B40D811116C08091B20D9091B30D892B4F
:1043E00081F48091230A8093B40D8093580A882326
:1043F00041F00E94E4218093230A8091B80D8160EE
:104400003FC08091B80D982F9F70913009F075C012
:1044100081503BC08091B40D811101C00EC09091BC
:10442000B50D9F30C8F01092B50D0E94E4218111A6
:1044300011C06091230A611104C081E08093780962
:1044400060C08091B80D8E5F8093B80D8091B40DDF
:104450000C94342C8093B40D8091B80D982F9F70DC
:10446000923019F09330A9F40FC08091230A809301
:10447000B40D0E94E4218093230A8091B80D8F5FD0
:104480008093B80D0C942C2C83508093B80D60E071
:10449000DDCF6091B50D4FE05091BF0D461B541715
:1044A00008F4452F242F30E08091C00D9091C10D6C
:1044B000820F931F9093C10D8093C00D541B509396
:1044C000BF0D460F4093B50D4091B20D5091B30D05
:1044D000420F531F5093B30D4093B20D4091B40D52
:1044E00070E050E1459F600D711D11246F5F7F4F9B
:1044F000A901821B930B0C940D2C8091BF0D81118F
:1045000089CF80917809813069F48DE398E09093A8
:10451000590D8093580D1092B80D1092BF0D109246
:10452000BD0D08958091610A811102C00C94B522DD
:1045300008956093BF0D9093C10D8093C00D0E94AC
:10454000E7218091610A882341F08091BF0D882383
:1045500021F080917809882391F308958093BE0D0E
:1045600061E08EEB9DE00C949922CF93DF936091F4
:10457000BD0D662389F08091BB0D9091BC0D9C010F
:10458000260F311D3093BC0D2093BB0D1092BD0D35
:10459000DF91CF910C9499222091B90D3091BA0DF1
:1045A0002115310509F464C0E091BB0DF091BC0DFB
:1045B00061E08081811160E041E050E0C0E081E095
:1045C0004217530730F4DF01A40FB51F91E07C912F
:1045D000711190E096130BC08F3309F4C3C0CC2344
:1045E00019F08F3009F4BEC042175307E1F5662376
:1045F000B1F0883080F0482F50E0E40FF51FF093C1
:10460000BC0DE093BB0D241B350B3093BA0D2093EA
:10461000B90D806422C04217530719F5ECCF4C2F17
:1046200050E0E40FF51FF093BC0DE093BB0DBA0111
:10463000680F711D261B370B3093BA0D2093B90DEF
:104640008093BD0DCC2349F09A0144E0220F331F23
:104650004A95E1F720683F6F822BDF91CF910C9450
:10466000AE22C82F80E08F5F4F5F5F4F692FA8CFCA
:104670008091B80D803309F469C030F4803151F075
:10468000803209F072C058C08034E9F0803509F0FA
:104690006CC04BC08091B40D8823A9F00E94E42126
:1046A000C82F81115AC00FC08C2F0E94E421C82F3F
:1046B0008C2F0E94E4218111F7CF80E28093B80D06
:1046C0006D2F8C2F3FC04091580A4093B40D8091BC
:1046D000B10D282F30E0F901EE0FFF1FE20FF31F9D
:1046E000EB5DF54F90819093580A918122812F7054
:1046F0009093590A90915A0A907F922B90935A0A5C
:1047000040839091B20D91832091B30D2F709281CF
:10471000907F922B928320915A0A207F9F70922B38
:10472000928390E59093B80D03C01092B80D81E18B
:10473000DF91CF910C94402C80E38093B80D60E022
:104740008091B40DDF91CF910C94342C80E4809350
:10475000B80DDF91CF910C942C2CD091230A80932B
:10476000230AA6CF911147CF5ACFDF91CF91089559
:1047700001C0A8950E94072C8823D9F381E080937B
:10478000610A8091BF0D882321F0809178098823E8
:1047900049F08091B80D882341F0809178098823F1
:1047A00039F003C00E94E721ECCF1092610A08950E
:1047B0000E94B522EECFEF92FF920F931F93CF93FB
:1047C000DF93EC018B01E42E288130E0F901EE0F3C
:1047D000FF1FE20FF31FEA5DF54F20818181382F23
:1047E0003F7069817A81261B370B642F70E0261792
:1047F000370708F4E22EFE2C14C08B81882399F031
:104800006C816F5F6C830E94601BF80181938F0144
:104810008C818F3028F01C828B810E94E4218B8355
:10482000FA94F110EACF8E2D8F1929813A81280F41
:10483000311D3A832983DF91CF911F910F91FF9012
:10484000EF900895CF93DF93D82FC82F01C0C82FC2
:104850008C2F0E94E4218111FACF6091230A8C2FC2
:104860000E94342CD093230ADF91CF910C942C2CEE
:10487000CF93DF938091230AC0E0D0E003C02F964E
:104880000E94E4218111FBCF2091590A80915A0A9C
:10489000382F3F702C0F3D1F8091890D992787FD80
:1048A00090950196FC01EE0FFF1FE80FF91FEA5DDE
:1048B000F54F80814181942F9F70281B390B37FF62
:1048C00002C020E030E0C901DF91CF9108951F932D
:1048D000CF93DF9310E0C6E2D1E084E00E94FB2B8F
:1048E00080E10E94FB2B812F806B0E94FB2BA998FB
:1048F000AB9AAC98CE0180589F4FFE0121912BBB03
:10490000AD9AAD98E817F907C9F7C058DF4FAB9AD1
:10491000A99A1F5F183009F7DF91CF911F91089571
:10492000CF93C0918A0D81E80E94FB2B8C2FCF91F1
:104930000C94FB2B9F92AF92BF92CF92DF92EF929B
:10494000FF920F931F93CF93DF93B82E162FA42EB1
:10495000902EC0E0D0E0E62EFF24E7FCF094670143
:10496000C20ED11C09C06C2F610F092D2FEF4A2DEB
:104970008B2D0E94492F21969E012E0D3F1D2C1537
:104980003D058CF3DF91CF911F910F91FF90EF9038
:10499000DF90CF90BF90AF909F9008952F923F925D
:1049A0004F925F926F927F928F929F92AF92BF923F
:1049B000CF92DF92EF92FF920F931F93CF93DF93EB
:1049C00000D01F92CDB7DEB7182F662E5B834A83C7
:1049D00022FBAA24A0F8822F8073E82EF12C80E11C
:1049E000E81AF10854E0F594E7945A95E1F7EE2DB2
:1049F0006FEED62ED22223FF03C098EFD90E0CC043
:104A00008A819B8197FF08C09195819591099B832D
:104A10008A837724739401C0712CEE23E9F08A8194
:104A20009B816AE070E00E94657301E02AE030E05B
:104A300005C00F5FCB01B9010E9465736115710557
:104A4000C1F7402F50E02E2F332727FD3095241734
:104A5000350714F00E2D0F5FA11006C0D7FE07C05A
:104A60001E162CF41E5F03C04AE0B42E02C035E0CF
:104A7000B32ED7FE0BC0B09E100D1124772031F05D
:104A8000AA2011F087E001C085E0180F1093CC0533
:104A90001B19A1101F5F8824839422E0922EC12C41
:104AA00068C06AE070E08A819B810E947973282E39
:104AB000362E472E982F905D9983AA20B9F0913316
:104AC00059F4801209C02C2D30E0812F90E00A9615
:104AD000821793070CF41F5FEA81FB81E83EF340E5
:104AE00028F01B5F9BEF592E5D2001C05D2C252D0A
:104AF0004981662D812F0E94980D882D90E0E8163F
:104B0000F90639F58FECD822AA20D9F0822D8250EF
:104B1000823008F49394832D942D6AE070E00E9413
:104B20007973823019F0843009F04DC09981943343
:104B300019F4C12ECA940FC08DEFC82EC10E9394E4
:104B40000AC01250252D4EE2662D812F0E94980D2D
:104B50000CC0AA2051F0EA81FB81E83E23E0F20775
:104B600020F0E031F74208F412501B1983943A8286
:104B70004B82081508F095CFCC2041F0662D635F7D
:104B800000E022E0492D8C2D0E949A247720F9F034
:104B90002D2D4DE2662D812F0F900F900F90DF91FC
:104BA000CF911F910F91FF90EF90DF90CF90BF902A
:104BB000AF909F908F907F906F905F904F903F90BD
:104BC0002F900C94980DC12ECA94CA94C4CF0F9004
:104BD0000F900F90DF91CF911F910F91FF90EF9069
:104BE000DF90CF90BF90AF909F908F907F906F900D
:104BF0005F904F903F902F9008950F9300E00E9498
:104C0000CE240F9108950F931F93CF93DF93D82F46
:104C1000162FC42FB9010E9496312C2F206A85E0EF
:104C2000089FA00111246D2F88E40E94FD25CC234C
:104C300049F04FE0602F812FDF91CF911F910F91AD
:104C40000C94452F802FDF91CF911F910F910895E4
:104C50001F93CF93DF93182FC62FD42F242F462FC7
:104C600050E060E080E80E94FD25CA3010F0CFE6F9
:104C700001C0C5E72D2F4FE260E08C2F0E94980DF8
:104C8000412F50E04F5F5F4F2D2F60E08C2FDF9161
:104C9000CF911F910C94FD256F927F928F929F92DE
:104CA000AF92BF92CF92EF92FF920F931F93CF9349
:104CB000C82FB62E3A01A22EF090510D9090500DB3
:104CC0000115110549F08E2DFE1408F48F2DF80101
:104CD000E80FF11D849001C0812C6114710409F466
:104CE0003BC0F11030C08091DC0981112CC0C4366A
:104CF00059F0C53611F0EB2D14C0BB2011F0EB2D8F
:104D000001C0EA2DE1500DC08B2D90E04A2D50E0FE
:104D100041505109841795071CF4EB2DEF5F01C03A
:104D2000E0E0FF27E7FDF0958B2D90E0E817F9070D
:104D300061F0EE0FFF1FE60DF71D25913491C901BB
:104D40000E940F2E02C040E001C042E01092DC0938
:104D50006A2D8B2D0E942826C03659F188F4C33461
:104D600009F484C030F4C132B1F1C23409F09CC0FE
:104D700055C0C43409F442C0C53409F095C06AC0B6
:104D8000C43609F43EC038F4C23609F44AC0C3360A
:104D900009F08AC06DC0C138D9F0CF3B21F0C536CB
:104DA00009F082C059C08FEF8093CB05912CF12C74
:104DB0007BC06114710419F0FF2009F47CC081E00C
:104DC0009091CB0519160CF480E08093CB056CC054
:104DD0001092CB0510C080E00E9497138091CB0504
:104DE00018161CF41092CB055FC0FF2021F061144F
:104DF000710409F07DC00E941C2E56C0981409F45D
:104E000053C0012B09F450C08091CB0518160CF447
:104E10004BC0981408F045C0939446C0FC1409F4A4
:104E200043C08091CB0518160CF43EC0FC1410F45E
:104E3000F39401C0F12C0115110599F18F2DEF1498
:104E400008F48E2DF801E80FF11DE491EF3F09F011
:104E500051C0ECCF992041F1012B31F18091CB056C
:104E6000181614F19920D9F09A941EC0FF20E1F091
:104E70008091CB051816C4F0FF2011F0FA9401C000
:104E8000FC2C0115110569F08F2DEF1408F48E2DFF
:104E9000F801E80FF11DE491EF3F61F5EDCF982C9B
:104EA00003C0912C01C09E2E672811F047E001C07D
:104EB00046E0F11004C01092CA05F12C14C05091C4
:104EC000CA052F2D30E0852F90E0840F911D8217A9
:104ED00093071CF48F2D841B04C05F1520F08F2DC9
:104EE00081508093CA05F092510D9092500D05C0EB
:104EF000912CE1CF9E16C0F2D6CFCF911F910F918A
:104F0000FF90EF90CF90BF90AF909F908F907F9049
:104F10006F900895CF92EF920F931F93C02EE12CC4
:104F200000E010E00E944C261F910F91EF90CF906F
:104F30000895FF920F931F93CF93DF9300E026E035
:104F400044E651E163E00E948A2783EA99E00E94E7
:104F50008D314CEA59E068E184E50E949331D0E15B
:104F6000C0E0E5E0FE2EC83071F12C2F2695122FFF
:104F7000110F110F110F105E0C2F0170C0FF06C032
:104F80004AE151E1612F84E50E94071C4C2F4A5FE2
:104F9000002311F088E701C08CE6612F0E944630A3
:104FA000C63088F41F2D1C1B00E0212F4EEE5CE064
:104FB0006D2F80E00E949732412F6D2F80E20E947A
:104FC0004630CC23B9F01D2F18514C2F4F5F20E0F5
:104FD000612F80E30E94EE328C2F0E949314811186
:104FE00003C020E040E302C022E041E3612F84E4FB
:104FF0000E94980DCF5FD85FC93009F0B4CFDF9120
:10500000CF911F910F91FF9008950F9300E026E03C
:1050100044E651E162E00E948A2784EB99E00E9415
:105020008D316CEB79E080E10F910C9496311F93F8
:10503000CF93DF93EC01162F22E044E658E060E0C6
:1050400080E00E948631AE0160E08CE30E949331E3
:1050500042E065E0812F0E94282680913D0D1816C0
:1050600014F44AE201C040E260E08AE20E94223188
:1050700080918F06882349F021E041E460E080E3DD
:10508000DF91CF911F910C94980DDF91CF911F91DB
:105090000895EF920F931F93CF93DF938236A1F081
:1050A00030F4803609F440C28136D1F415C083361D
:1050B00029F08F3BA9F41092A70512C08091A70593
:1050C000882351F0815005C08091A705843040F4B9
:1050D0008F5F8093A70504C08AE093E60E940F2E9D
:1050E0008091A705823009F4A3C030F4882359F0D9
:1050F000813009F019C249C0833009F4F7C0843007
:1051000009F012C257C160E08DE498E00E941728B0
:1051100080917E06882309F407C200E024E043E57D
:1051200058E068E086E00E94253180918F06882350
:1051300039F021E048E558E068E08AE20E94253134
:1051400040918A0620E050E068E083E40E94FD255B
:105150004AE558E060E186E00E9493314091940670
:1051600005E020E250E060E183E40E94CE244FE5B8
:1051700058E068E186E00E949331409182065091A8
:10518000830620E068E183E4C8C161E083E598E03C
:105190000E9417284CE658E068E080E00E949331B6
:1051A00020918B0630918C0640918D0650918E0691
:1051B00080918106882319F08130A1F40BC004E0AE
:1051C00043EF5DE060E186E00E94973210E0CDE0C1
:1051D000DAE010C0F901E158F74F04E0208142E71E
:1051E0005EE0F0CF24E041E958E060E186E00E9413
:1051F0008631ECCF4881411102C040E201C02196C6
:1052000060E2812F0E9422311A5F183799F780914E
:105210008F06882309F488C124E049E758E068E252
:1052200086E0DF91CF911F910F91EF900C94863122
:1052300062E08FE998E00E94172848EA58E068E0A9
:1052400080E00E949331409194062CE250E060E1AE
:1052500083E20E94FD254EEB58E068E183E20E9464
:105260009331409195062CE250E060E18BE40E947E
:10527000FD2540EC58E068E18BE40E9493314091B9
:1052800096062CE050E060E183E70E94FD2542ECA9
:1052900058E068E183E70E94933144EC58E060E213
:1052A00080E00E949331409198062CE050E068E243
:1052B00083E20E94FD254CEC58E060E383E20E940B
:1052C00093318091390D84FF2FC14EEC58E060E29C
:1052D00080E50E9493314091990624E050E068E215
:1052E00083E70E94FD2546ED58E05BC063E088ED52
:1052F00098E00E9417284CED58E068E080E00E949A
:1053000093314091B3065091B4062CE060E183E202
:105310000E94FD2543EE58E060E183E20E94933154
:1053200045EE58E068E080E50E9493314091B9066F
:105330005091BA062CE060E183E70E94FD254DEE16
:1053400058E060E183E70E9493314FEE58E060E25D
:1053500080E00E9493314091BB065091BC062CE046
:1053600068E283E20E94FD2547EF58E068E283E2AD
:105370000E94933149EF58E060E280E50E9493314A
:105380002091AB063091AC064091AD065091AE062F
:10539000F4E0EF2E01E068E283E60E94593042E03B
:1053A00059E060E383E7DF91CF911F910F91EF9078
:1053B0000C94933164E084E099E00E94172800E0A7
:1053C00023E044E059E068E086E00E942531409106
:1053D0009D06423040F426E048E059E068E089E369
:1053E0000E9425310DC003E020E050E068E089E331
:1053F0000E94CE244FE059E068E089E30E94933197
:1054000041E159E068E08EE40E94933140919E06AC
:1054100002E020E050E068E080E70E94CE2445E111
:1054200059E060E186E00E9493312091AF0630910F
:10543000B0064091B1065091B206E12C60E189E3DB
:105440000E9459304AE159E068E186E00E949331B8
:1054500020919F063091A0064091A1065091A2068E
:1054600068E189E30E94593000E023E04EE159E011
:1054700068E18EE40E9425312091A3063091A406B4
:105480004091A5065091A60602E068E180E70E94DF
:10549000593000E023E049EF58E060E286E00E94E6
:1054A00025316091A7067091A8068091A906909178
:1054B000AA060E94D06B20E0AB0160E289E30E9463
:1054C000FD2526E04CED58E068E286E00E9425319B
:1054D0006091B3067091B40680E090E00E941F6C6A
:1054E0009B01AC0102E068E289E30E94593000E0D0
:1054F00021E042E259E060E386E00E9425316091BC
:10550000B5067091B6068091B7069091B8060E94D4
:10551000D06B20E0AB0160E389E3DF91CF911F9175
:105520000F91EF900C94FD25DF91CF911F910F917A
:10553000EF900895552747FD509520E00C94FD25E8
:10554000CF93C82F82E499E00E948D31C13689F053
:10555000C23661F0C03689F48FEF8093E305109274
:10556000E4051092C30D1092C20D07C08EE89BE2B5
:1055700002C08AE093E60E940F2E68E479E088E09A
:105580000E9496314091E405469568E084E50E94CA
:105590009A2A68E579E080E10E9496314091E3051E
:1055A000469560E184E50E949A2A68E679E088E100
:1055B0000E9496314091E40550E08091E305481B3C
:1055C000510957FF02C04F5F5F4F5595479568E1FE
:1055D00084E50E949A2A68E779E080E20E94963189
:1055E0008091C20D9091C30D24E6289FA001299FB0
:1055F000500D1124B4E056954795BA95E1F720E394
:1056000060E284E50E94FD2565E879E088E20E9479
:105610009631E2EDFDE081918535E9F3AF01415D21
:105620005D4028E068E284E50E94FD2543E959E0F9
:1056300069E388E10E94933187E0CF910C94C12FF8
:10564000CF93DF93D62FC22F922F9073903311F404
:1056500020E001C020E22C2B2F7B6D2F0E94FD2526
:10566000C6FD09C02C2F46E56D2F8091CC05DF913A
:10567000CF910C94980DDF91CF910895BF92CF9266
:10568000DF92EF92FF920F931F93CF93DF93D82F68
:10569000162F7A01C22FB02E27FD05C022FF02C0AF
:1056A000DE5201C0DA51F7FE10C0C2FF02C088E02E
:1056B00001C085E02C2F4DE2612F9D2F981B892F73
:1056C0000E94980DF194E194F1086CE370E0C70139
:1056D0000E9479736B017C012C2F206902E0AB01E1
:1056E000612F8D2F0E94CE242B2D2C234AE3612F76
:1056F0008091CC050E94980D2B2D2069A701612F68
:10570000809152090E94CE24DF91CF911F910F9179
:10571000FF90EF90DF90CF90BF9008950F93CF93BD
:10572000C82F84E299E00E948D31C13629F0C3363A
:1057300039F480EA9AE202C08AE093E60E940F2ED2
:105740004AE259E060E086E00E9493314091020A0B
:105750005091030A00E020E068E088E30E943E2BBD
:1057600040910A0A50910B0A20E068E082E60E940C
:105770003E2B4091EC085091ED0820E060E188E379
:105780000E943E2B4091EE085091EF08C4E05695E0
:105790004795CA95E1F720E060E182E60E943E2B42
:1057A0004091F3085091F40820E060E082E60E9406
:1057B0003E2BCF910F910895EDE7F0E080818F7D32
:1057C0008083179AAAE8B0E01C9210928B008AE0BE
:1057D0008C938081886180830895FC01808141FFE2
:1057E00002C0682B06C042FF03C06095682301C059
:1057F000682760830895A998AB98AC988BBBAD9A45
:10580000AD98AB9AA99A0895549A579A0895909191
:105810007C0681E0911180E0089570937B0660938F
:105820007A0690937906809378064F5F40937C06C2
:10583000E39A8091610A811102C00895A8950E949F
:10584000072C8823D9F3089540E450E060E070E02D
:1058500081E29AE00C940D2C41E050E062E070E0AF
:1058600083E29AE00C940D2C6093B80590E1899F37
:10587000B001112441E050E088EB95E00C940D2C30
:1058800093E0899FB00111246C5F7F4F282F30E097
:10589000C901880F991F820F931F43E050E08B5D71
:1058A000954F0C940D2CCF92DF92EF921F93CF93D4
:1058B000DF93162F282F30E0E901CC0FDD1FC20F38
:1058C000D31FCF5DD54F2C813D814E81A62FB0E0F7
:1058D000FD01EE0FFF1FEA0FFB1FEF5DF54FC480C8
:1058E000D580E680CC82DD82EE82248335834683B8
:1058F000C1E6DAE091E098830E94402C812F0E945B
:10590000402C1882DF91CF911F91EF90DF90CF90C4
:105910000895E8EAF5E040E0842F806487B9369A7C
:105920003699FECF24B135B1369A3699FECF84B17F
:1059300095B1820F931F819391934F5F483061F728
:1059400008958F929F92BF92CF92DF92EF92FF9233
:105950000F931F93CF93DF93C82E8091780A85FF12
:1059600003C0C0E0D5E002C0C0E0D4E0CC2039F0F4
:1059700021E0EEE2F6E0C21204C080E103C0E6EEF0
:10598000F5E088E0D090770AD594D594D594D59455
:10599000DD0CD80E4091790A84E64802A00111245A
:1059A000485A5D4F08EC1FEA041B150BA0912B0D04
:1059B000BB27A7FDB09528EE33E00E942F73600F40
:1059C000711F811D911DA1E0CA1204C0B8EFBB2E4A
:1059D000BD0C2BC0B12C29C02B2D30E0220F331F62
:1059E0002352364FD901ED90FC90E814F90424F0CD
:1059F000EC16FD061CF403C0740101C07E01B8E47E
:105A0000EB1AB4EFFB0A8701222717FD2095322FEE
:105A1000601B710B820B930B51834083E41AF50AD0
:105A2000F382E2823496B39404C0882499248C1AB9
:105A30009D0ABD1488F2518340836115710521E0F0
:105A4000820791053CF46832A3E27A07810591054B
:105A500034F009C06FEF7FEF80E090E004C068E2AF
:105A600073E280E090E0DF011496C1100BC0685E25
:105A700073407383628386EE95E090930101809377
:105A8000000109C073836283CB01885E93409093C9
:105A90007706809376061D921C92DF91CF911F911D
:105AA0000F91FF90EF90DF90CF90BF909F908F90DD
:105AB00008958091770A877090917709911184E019
:105AC00090910201981709F463C0809302011EBCF3
:105AD0001DBC1CBC97B7937C97BF90917D009E7FA7
