:100000000C9479010C94A1010C94A1010C94A10110
:100010000C94B8160C94A1010C94A1010C94A101AC
:100020000C94A1010C94A1010C94A1010C94A101C8
:100030000C94A1010C94A1010C94A1010C94A101B8
:100040000C948C330C94A1010C9423250C94AF25B3
:100050000C94A1010C9471170C94A1010C94A101B2
:100060000C94A1010C94A1017F8285888B8F9295BD
:10007000989B9EA1A4A7AAADB0B2B5B8BBBEC0C3A1
:10008000C6C8CBCDD0D2D4D7D9DBDDDFE1E3E5E7FD
:10009000E9EAECEEEFF0F2F3F4F5F7F8F9F9FAFB30
:1000A000FCFCFDFDFDFEFEFEFEFEFEFEFDFDFDFC7C
:1000B000FCFBFAF9F9F8F7F5F4F3F2F0EFEEECEAFD
:1000C000E9E7E5E3E1DFDDDBD9D7D4D2D0CDCBC89A
:1000D000C6C3C0BEBBB8B5B2B0ADAAA7A4A19E9B13
:1000E0009895928F8B8885827F7C7976736F6C6907
:1000F0006663605D5A5754514E4C494643403E3BFF
:10010000383633312E2C2A272523211F1D1B191782
:10011000151412100F0E0C0B0A090706050504032F
:1001200002020101010000000000000001010102C3
:1001300002030405050607090A0B0C0E0F10121422
:100140001517191B1D1F212325272A2C2E31333665
:10015000383B3E404346494C4E5154575A5D6063CC
:1001600066696C6F7376797C0903040D03081503C7
:10017000041903012C03012D03012E03012F030198
:100180001A03062003062603063903033C0306422E
:10019000030648030A530303300301310301050337
:1001A00003520301D20203D50203D80203DB020388
:1001B000DE0203E10203E60206EC0206F20203F8A5
:1001C0000203F50203FB0203E40202FF0201FE0246
:1001D000010103010003015603035903015A0301FE
:1001E0003203013303060203010303010403010880
:1001F00003010903040D03081503041903012C036B
:10020000012D03012E03011A030620030632030108
:100210003303063903033C030642030648030A532B
:100220000303300301520301D20203D50203D802B3
:1002300003DB0203DE0203E10203E60206EC020630
:10024000F20203F80203F50203FB0203E40202FFD9
:100250000201FE02010103010003015603035903D9
:10026000015A03010903040D0308150304190301CE
:100270002C03012D03012E03012F03011A03062075
:1002800003062603063903033C030642030648031C
:100290000A530303300301310301520301D2020365
:1002A000D50203D80203DB0203DE0203E10203E608
:1002B0000206EC0206F20203F80203F50203FB0257
:1002C00003E40202FF0201FE020101030100030137
:1002D0005603035903015A0301320301330306FF96
:1002E000FE0302FFFD0019343D34423462346734AA
:1002F000AA3411241FBECFEFD8E0DEBFCDBF11E07E
:10030000A0E0B1E0E6E6FFE602C005900D92AC3851
:10031000B107D9F716E0ACE8B1E001C01D92A73CE7
:10032000B107E1F712E0C2EFD2E004C02297FE016C
:100330000E946F37C63ED107C9F70E94A5340C94BE
:10034000B1370C9400002D980895259A0E94A301BE
:1003500010928C011092900110928F010895909349
:10036000900180938F0160938E0110928D010E9405
:10037000A301089580918F019091900120918D01AA
:10038000009749F1222309F520918C01222329F0BD
:100390000E94A30110928C0114C02D9A21E0209399
:1003A0008C0101979093900180938F01009749F4FD
:1003B00080912902807C29F08FEF9FEF66E00E94F8
:1003C000AF0180918E0180938D0180918D018150CC
:1003D00080938D010895222379F0215020938D017F
:1003E0002223D1F42D9A80913A0290913B0290936E
:1003F000920180939101089520913A0230913B023D
:1004000080919101909192012817390729F00E945B
:10041000A30186E080938D010895FC01138260831F
:100420008EE082878BEB9CEDAEEFBEE383879487F3
:10043000A587B68749E452E960E070E44787508BAE
:10044000618B728B138A148A158A168A1282118222
:10045000118610860895EF92FF920F931F93CF930A
:10046000DF9310927F0193E5E92E93E0F92E06E9E0
:1004700011E0C1E0D1E0D701ED917D018E2F8150D7
:100480008330E0F4F0E0EE0FFF1FEF5CFE4F808161
:100490009181F8013297918380832091190322235F
:1004A00069F0DC01ED91FC910190F081E02D09955E
:1004B000882321F0F801D083C0937F01CF5F075ECE
:1004C0001F4FC430C1F6DF91CF911F910F91FF9064
:1004D000EF9008950F931F93CF93C0E009E110E0D0
:1004E00018C08C2F90E0809FF001819FF00D909FAD
:1004F000F00D1124ED56FE4F8381882349F0818150
:100500009281DC01ED91FC910480F581E02D09954B
:10051000CF5F80917F01C81720F3CF911F910F917A
:1005200008950F931F93CF93C0E009E110E018C026
:100530008C2F90E0809FF001819FF00D909FF00D37
:100540001124ED56FE4F8381882349F081819281E9
:10055000DC01ED91FC910280F381E02D0995CF5FE4
:1005600080917F01C81720F3CF911F910F910895BB
:1005700008952F923F924F925F926F927F928F9247
:100580009F92AF92BF92CF92DF92EF92FF920F9322
:100590001F93CF93DF93CDB7DEB76D970FB6F89467
:1005A000DEBF0FBECDBFDE011796E0E0F1E082E1D5
:1005B00001900D928150E1F7992452E0252E312CC3
:1005C000CCC0692C772489E190E0689EF001699E97
:1005D000F00D789EF00D1124ED56FE4F8381882397
:1005E00009F4BAC08301000F111FF801E60DF71DD1
:1005F000EE0FFF1F81E090E08C0F9D1FE80FF91FA9
:10060000E680F780C701B1010E941D3770956195A2
:100610007F4F698F7A8F69837A83A084B184C50103
:10062000B1010E941D37709561957F4F6B8F7C8F54
:100630006B837C83C284D384C601B1010E941D37C1
:10064000709561957F4F862E7D8F6D837E83CE0161
:10065000019660E27EE40E94A532882309F460C01E
:1006600000581D4FF80140805180FA82E982BC8217
:10067000AB82DE82CD82CE01019660E27EE40E94F2
:10068000A532882309F44CC0F80160817181641996
:100690007509882777FD8095982F0E94D3359B0197
:1006A000AC0160E070E081EE95E40E943835C62E22
:1006B000D72EE82EF92E462F572F682F792FCB01F2
:1006C000BA0120E030E0A9010E94343587FF06C05E
:1006D000F7FAF094F7F8F09401E001C000E0C701E8
:1006E000B60120E030E040E251E40E94833687FD0D
:1006F00018C0C701B60120E030E04FE753E40E9484
:100700003435181674F022EDA22E22E0B22EA60C7B
:10071000B71CC701B6010E94A535F501678701C066
:1007200000E0F98DF9838A8D8A839B8D9B83EC8D04
:10073000EC838D82FD8DFE83CE01019660E27EE426
:100740000E94A532013041F4F301EE52FD4F81E0E9
:100750009485911180E08487939480917F0198160D
:1007600008F42FCF82ED92E00E94DD120E94FA2B56
:10077000809152030E94492610928F066D960FB603
:10078000F894DEBF0FBECDBFDF91CF911F910F91C7
:10079000FF90EF90DF90CF90BF90AF909F908F90A1
:1007A0007F906F905F904F903F902F9008950F93A0
:1007B0001F93CF93DF93EC01088110E089E190E073
:1007C000089FF001099FF00D189FF00D1124ED56C0
:1007D000FE4F0180F281E02D83818823E9F0CB0177
:1007E000AA2797FDA095BA2F4B895C896D897E89D0
:1007F000840F951FA61FB71F8B8B9C8BAD8BBE8B59
:10080000892F9A2FAB2FBB27A7FDBA952C813D814D
:10081000280F391F388F2F8B89819A81DC01ED9148
:10082000FC91119720853185F801EE52FD4F4485EA
:100830006F8941116195F9010995DF91CF911F9160
:100840000F910895CF93DF93EC0188859985681BFC
:10085000790B882777FD8095982F0E94D3352B85BB
:100860003C854D855E850E9487360E94A0358F8924
:10087000861B992787FD9095860F971F988F8F8BE2
:100880002C813D81821B930BAA2797FDA095BA2F3F
:10089000BA2FA92F982F88278B8B9C8BAD8BBE8B63
:1008A000DF91CF9108951092290280914C04882302
:1008B00019F481E08093290280911A0390911B031F
:1008C000009789F480911C0390911D03009759F4BF
:1008D00080911E0390911F03009729F480912902B3
:1008E00082608093290280912902E3E5F3E090E0A1
:1008F0002191222371F0DF01A957B0402C912223CE
:1009000009F48460DF01A357B0402C91222309F43D
:1009100088609F5F933061F7809329020895FC01FE
:1009200040E050E0BA014083518362837383408783
:1009300051876287738744835583668377834487AF
:1009400055876687778708952F923F924F925F92DF
:100950006F927F928F929F92AF92BF92CF92DF92CF
:10096000EF92FF920F931F93CF93DF9300D00F92DC
:10097000CDB7DEB7082FC92E60918602709187022D
:1009800080E090E00E94D13522EA35E944EA52E362
:100990000E9487366B83372E282E998389E9482E4B
:1009A00081E0582E602E7C2C1A82D2016D917C91B0
:1009B000882777FD8095982F0E94D33527EA32E962
:1009C0004BEA5FE30E948736862E972EA82EB92E1B
:1009D000F301C084D184E284F384C701B60120E02E
:1009E00030E0A9010E948336A701960118160CF089
:1009F0005058B7FAB094B7F8B094C701B6010E9446
:100A000087369B01AC01C501B4010E94CF349B0124
:100A1000AB01BC01D3014D935D936D937D933D017B
:100A2000582F492F822F932FA52FB42FBC01CD0112
:100A3000FB8149810F2F132D222D342FA9019801FD
:100A40000E9487369B01AC01C701B6010E94D034D9
:100A5000DC01CB01F30184839583A683B783FA81FC
:100A6000FF5FFA8389E190E0480E591EF23009F0E9
:100A70009CCF0F900F900F90DF91CF911F910F910E
:100A8000FF90EF90DF90CF90BF90AF909F908F90AE
:100A90007F906F905F904F903F902F90089580913E
:100AA0003003882319F088B1806302C088B18F7C3D
:100AB00088B91092B9008CE08093B80084E08093EC
:100AC000BC008AE090E00E94E23310923B02109258
:100AD0003A0208959AEC0FC0915069F41092BC004C
:100AE00020913A0230913B022F5F3F4F30933B02FF
:100AF00020933A0204C02091BC0027FFEDCF9091D3
:100B0000B900981749F080913A0290913B02019602
:100B100090933B0280933A020895CF93C82F84EAC2
:100B20008093BC00C0FF0AC080E10E946A05C093A8
:100B3000BB0084E88093BC0080E409C088E00E9488
:100B40006A05C093BB0084E88093BC0088E10E94E2
:100B50006A05CF91089584E98093BC00089580933D
:100B6000BB0084E88093BC0088E20E946A05089577
:100B7000CF93C82F882329F084EC8093BC0080E5B4
:100B800004C084E88093BC0088E50E946A058091D7
:100B9000BB00CC2319F494E99093BC00CF91089545
:100BA000CF92DF92EF92FF920F931F93CF93DF9339
:100BB00000D0CDB7DEB76A01E0903A02F0903B0278
:100BC000880F816069837A830E948D056981062F71
:100BD0007A81172F0DC00894C108D10881E0C11493
:100BE000D10409F480E00E94B805F80181938F01D7
:100BF000C114D10481F781E020913A0230913B0287
:100C0000E216F30609F080E00F900F90DF91CF918C
:100C10001F910F91FF90EF90DF90CF900895CF92AA
:100C2000DF92FF920F931F93CF93DF930F92CDB775
:100C3000DEB7F82E6A018901880F69830E948D054D
:100C40006981862F0E94AF058F2DB601A8010E94F1
:100C5000D0050F90DF91CF911F910F91FF90DF9002
:100C6000CF900895CF93DF930F92CDB7DEB7AE014B
:100C70004F5F5F4F21E030E00E940F0689810F90A7
:100C8000DF91CF9108950F931F93CF93DF9300D0FF
:100C9000CDB7DEB700913A0210913B02880F4A832C
:100CA00069830E948D056981862F0E94AF054A8164
:100CB000842F0E94AF0584E98093BC0081E02091DD
:100CC0003A0230913B020217130709F080E00F90BF
:100CD0000F90DF91CF911F910F9108950F931F9364
:100CE000CF93DF9300D00F92CDB7DEB700913A02D9
:100CF00010913B02880F2B834A8369830E948D05E4
:100D00006981862F0E94AF054A81842F0E94AF051A
:100D10002B81822F0E94AF0584E98093BC0081E083
:100D200020913A0230913B020217130709F080E04C
:100D30000F900F900F90DF91CF911F910F91089519
:100D4000CF92DF92EF92FF920E94A3339093890299
:100D50008093880260914D0470914E04882777FD3E
:100D60008095982F0E94D335DC01CB0180935002EF
:100D700090935102A0935202B09353020F2EF0E0D1
:100D8000CF2EF0E0DF2EF0E0EF2EF0E0FF2EF02D82
:100D9000C0928A02D0928B02E0928C02F0928D0275
:100DA00060914F0470915004882777FD8095982FAB
:100DB0000E94D335DC01CB018093540290935502FD
:100DC000A0935602B0935702C0928E02D0928F0227
:100DD000E0929002F092910260915104709152045D
:100DE000882777FD8095982F0E94D335DC01CB01B1
:100DF0008093580290935902A0935A02B0935B02D9
:100E0000C0929202D0929302E0929402F0929502E4
:100E100084EF91E090933D0280933C02FF90EF902D
:100E2000DF90CF9008958230B8F0682F70E080E0B6
:100E300090E00E94D33520E030E040EA51E40E9487
:100E400087369B01AC0160E070E080E89FE30E9480
:100E50003835362F272F04C03DEC2CEC8CE49DE375
:100E6000D901F82FE92F4B2F522F682F792F40935C
:100E70009602509397026093980270939902B90179
:100E8000872F922FAF2FBE2FBC01CD012FE632E16D
:100E900043E05AE30E948736DC01CB0180939A023B
:100EA00090939B02A0939C02B0939D0208952F9271
:100EB0003F924F925F926F927F928F929F92AF92EA
:100EC000BF92CF92DF92EF92FF920F931F93CF9337
:100ED000DF93CDB7DEB7E0970FB6F894DEBF0FBE55
:100EE000CDBF4091530450915404662757FD60953F
:100EF000762F80919E0290919F02A091A002B091C6
:100F0000A102840F951FA61FB71F80939E02909386
:100F10009F02A093A002B093A1024091550450916A
:100F20005604662757FD6095762F8091A202909116
:100F3000A302A091A402B091A502840F951FA61F41
:100F4000B71F8093A2029093A302A093A402B09330
:100F5000A5024091570450915804662757FD6095AB
:100F6000762F8091A6029091A702A091A802B0913D
:100F7000A902840F951FA61FB71F8093A602909306
:100F8000A702A093A802B093A902E091C606F0E0E0
:100F9000EF57FE4F8081813019F40E94552180C5A2
:100FA000893009F0D3C180918F06843009F478C567
:100FB000FDE4EF2EF4E0FF2EAAE48A2EA2E09A2EA2
:100FC000BAEA6B2EB2E07B2E20E532E03A8F298F11
:100FD00084E492E09E8F8D8F2C01190100E067015F
:100FE000D601ED90FD906D01F401819191914F0139
:100FF000E80EF91ED301ED92FD923D01F1016191E0
:101000007191819191911F010E94A035DC01CB016A
:101010009701281B390BD2012D933D932D010F5FB2
:101020000330F1F6C0903C02D0903D02C114D104CF
:10103000A9F100E0ED8DFE8D61917191FE8FED8F34
:10104000882777FD8095982F0E94D3352FE832ECC2
:1010500045EF5CE30E9487369B01AC01A98DBA8DF8
:101060006D917D918D919C910E94D034DC01CB01DA
:10107000E98DFA8D81939193A193B193FA8FE98FC2
:101080000F5F0330B9F60894C108D108D0923D0231
:10109000C0923C0280E090E0DC019BC28091500253
:1010A00090915102A0915202B091530289A39AA348
:1010B000ABA3BCA36091AE027091AF02882777FD0D
:1010C0008095982F0E94D3354B015C018091580286
:1010D00090915902A0915A02B0915B028DA39EA3F8
:1010E000AFA3B8A76091AA027091AB02882777FDE1
:1010F0008095982F0E94D33569A77AA78BA79CA7C4
:1011000069A17AA18BA19CA1A50194010E948736B7
:101110006B017C016DA17EA18FA198A529A53AA59F
:101120004BA55CA50E9487369B01AC01C701B601A7
:101130000E94CF34DC01CB018D879E87AF87B88BAF
:1011400040905402509055026090560270905702A1
:101150006091AC027091AD02882777FD8095982F41
:101160000E94D3356B017C01C301B201A50194013A
:101170000E9487364B015C016DA17EA18FA198A5CD
:10118000A70196010E9487369B01AC01C501B401FD
:101190000E94CF34DC01CB01898B9A8BAB8BBC8B4B
:1011A000C301B20129A53AA54BA55CA50E948736CB
:1011B0004B015C0169A17AA18BA19CA1A7019601B9
:1011C0000E9487369B01AC01C501B4010E94CF3457
:1011D000DC01CB018D8B9E8BAF8BB88F209096025C
:1011E00030909702409098025090990280919A0214
:1011F00090919B02A0919C02B0919D028DA79EA709
:10120000AFA7B8ABEAE86E2EE2E07E2EDE011D96B7
:10121000BEA3ADA3E6E2F3E0FAA7E9A729E534E02F
:101220003AA329A300E0AD8DBE8D6D917D91BE8F57
:10123000AD8F882777FD8095982F0E94D335A20126
:1012400091010E9487369B01AC01E98DFA8D608186
:101250007181828193810E94D034DC01CB01E98DC0
:10126000FA8D80839183A283B383D3018D909D9067
:10127000AD90BC90EDA1FEA1C190D190E190F19014
:10128000FEA3EDA3C701B60120E030E44CE955EC24
:101290000E94343587FD15C0C701B60120E030E457
:1012A0004CE955E40E9483361816ACF40F2EF0E09A
:1012B000CF2EF0E4DF2EFCE9EF2EF5E4FF2EF02D2B
:1012C0000AC00F2EF0E0CF2EF0E4DF2EFCE9EF2E67
:1012D000F5ECFF2EF02DC701B6012DA53EA54FA5BB
:1012E00058A90E9487369B01AC01C501B4010E9438
:1012F000D0349B01AB01BC01D3014D935D936D9341
:101300007D933D01E9A5FAA5E190F190FAA7E9A73F
:10131000582F492F822F932FA52FB42FBC01CD0119
:101320000E94A035DC01CB018E0D9F1DA9A1BAA1A1
:101330008D939D93BAA3A9A30F5FE98DFA8D34967F
:10134000FA8FE98F033009F06ECFAAC3863009F017
:1013500049C10E94A3332091880230918902BC01C7
:10136000621B730B709387026093860290938902CD
:101370008093880280E090E00E94D13520913A0469
:1013800030913B0440913C0450913D040E948736CB
:10139000562E472EF82EE92E3E010894611C711C32
:1013A0008EE9882E82E0982E93E0C92ED4016D91AB
:1013B0007D918D919C910E94D335052D142D2F2D5B
:1013C0003E2DA90198010E948736DC01CB01F30173
:1013D00081939193A193B1933F01D4011D921D92EA
:1013E0001D921D924D01CA9409F780905002909071
:1013F0005102A0905202B0905302C0905402D0907B
:101400005502E0905602F090570289819A81AB8193
:10141000BC81898F9A8FAB8FBC8F8091580290913D
:101420005902A0915A02B0915B028D8F9E8FAF8FAF
:10143000B8A389859A85AB85BC8589A39AA3ABA3FC
:10144000BCA3698D7A8D8B8D9C8D2D8D3E8D4F8D9E
:1014500058A10E9487362B013C0169A17AA18BA17A
:101460009CA1A70196010E9487369B01AC01C30194
:10147000B2010E94CF349B01AC01C501B4010E94AE
:10148000D034DC01CB018093500290935102A093A1
:101490005202B09353024D805E806F807884C30106
:1014A000B2012D8D3E8D4F8D58A10E9487366DA3C0
:1014B0007EA38FA398A769A17AA18BA19CA1A50166
:1014C00094010E9487369B01AC016DA17EA18FA182
:1014D00098A50E94D0349B01AC01C701B6010E94BF
:1014E000D034DC01CB018093540290935502A09339
:1014F0005602B0935702C301B201A70196010E94A0
:1015000087366B017C01698D7A8D8B8D9C8DA50151
:1015100094010E9487369B01AC01C701B6010E946D
:10152000D0349B01AC016D8D7E8D8F8D98A10E9472
:10153000CF34DC01CB018093580290935902A093E1
:101540005A02B0935B02698D7A8D8B8D9C8D2091B0
:1015500060023091610240916202509163020E94E8
:1015600087366B017C01C301B20120915C0230918E
:101570005D0240915E0250915F020E9487369B019E
:10158000AC01C701B6010E94CF346B017C0169A197
:101590007AA18BA19CA120916402309165024091B7
:1015A0006602509167020E9487369B01AC01C70119
:1015B000B6010E94D0349B01AC016091B0027091E1
:1015C000B1028091B2029091B3020E94D034DC014A
:1015D000CB018093B0029093B102A093B202B0937A
:1015E000B3025EC2833009F0A0C020915402309152
:1015F00055024091560250915702C0905802D09027
:101600005902E0905A02F0905B02CA01B9010E94AF
:1016100087364B015C01C701B601A70196010E9404
:1016200087369B01AC01C501B4010E94D0349B01F7
:10163000F82FE92F462F532F682F792F4093B402AC
:101640005093B5026093B6027093B702822F932F26
:10165000AF2FBE2FBC01CD010E94BB0DDC01CB0121
:101660008093B8029093B902A093BA02B093BB02E0
:1016700060915402709155028091560290915702E8
:101680000E94A0356B017C01609158027091590253
:1016900080915A0290915B020E94A035AB01BC017F
:1016A000C601BA010E94690D909383028093820261
:1016B00060915002709151028091520290915302B8
:1016C0000E94A0356B017C0160E070E080E89FE340
:1016D0002091B8023091B9024091BA025091BB02F8
:1016E0000E9438350E94A035AB01BC01C601BA0189
:1016F0000E94690D90938102809380026091B002F4
:101700007091B1028091B2029091B3022CE43DE35A
:101710004FE054E40E9487360E94A035DC01CB01E3
:10172000E0E8F2E095838483BBC1843009F017C1FF
:101730002091500230915102409152025091530237
:10174000CA01B9010E9487362091B4023091B502D6
:101750004091B6025091B7020E94D0340E94BB0D56
:101760006B017C016093120170931301809314014B
:10177000909315018091580290915902A0915A02BC
:10178000B0915B02898F9A8FAB8FBC8F8090B8022B
:101790009090B902A090BA02B090BB02BC01CD01FA
:1017A000A50194010E948736362E272E89A39DA37A
:1017B000A101382F292F852F942FA32FB22F80938B
:1017C0006C0290936D02A0936E02B0936F028091B1
:1017D000540290915502A0915602B09157028D8FFC
:1017E0009E8FAF8FB8A3BC01CD019058A501940185
:1017F0000E948736762E672E582E492EA30192011D
:10180000852F942FA32FB22F809370029093710293
:10181000A0937202B0937302698D7A8D8B8D9C8D2B
:10182000F10159A14DA10F2F1E2F252F342FA901F2
:1018300098010E9487364B015C016D8D7E8D8F8DE6
:1018400098A1F301A2010F2F1E2F252F342FA901DC
:1018500098010E9487369B01AC01C501B4010E942A
:10186000CF34A70196010E948736DC01CB0180931B
:10187000740290937502A0937602B09377028090E1
:10188000500290905102A0905202B0905302C501B4
:10189000B401A201252F342FA90198010E94873697
:1018A000A70196010E948736DC01CB018093780264
:1018B00090937902A0937A02B0937B02C501B401A0
:1018C0009058F10159A14DA10F2F1E2F252F342F14
:1018D000A90198010E948736A70196010E948736C8
:1018E000DC01CB0180937C0290937D02A0937E0269
:1018F000B0937F02C501B401A70196010E9487360B
:10190000DC01CB0180935C0290935D02A0935E02A8
:10191000B0935F026D8D7E8D8F8D98A1A70196018A
:101920000E948736DC01CB018093600290936102B4
:10193000A0936202B0936302698D7A8D8B8D9C8D2A
:10194000A70196010E948736DC01CB0180936402D7
:1019500090936502A0936602B0936702A1C08A309B
:1019600009F09EC08091FE02882309F499C08091FD
:101970008F06882309F08DC08AE292E00E94A404B9
:10198000C0902A02D0902B02E0902C02F0902D0201
:1019900080902E0290902F02A0903002B0903102E1
:1019A000C701B60120917402309175024091760210
:1019B000509177020E9487362B013C01C501B4018A
:1019C000209168023091690240916A0250916B0245
:1019D0000E9487369B01AC01C301B2010E94D03442
:1019E0000E94A035DC01CB0190934B0280934A0208
:1019F000C701B601209178023091790240917A02B4
:101A000050917B020E9487362B013C01C501B40135
:101A100020916C0230916D0240916E0250916F02E4
:101A20000E9487369B01AC01C301B2010E94D034F1
:101A30000E94A035DC01CB0190934D0280934C02B3
:101A4000C701B60120917C0230917D0240917E0257
:101A500050917F020E9487366B017C01C501B40161
:101A60002091700230917102409172025091730284
:101A70000E9487369B01AC01C701B6010E94D03499
:101A80000E94A035DC01CB0190934F0280934E025F
:101A900007C086E0EAE4F2E0DF011D928A95E9F7EB
:101AA000E0960FB6F894DEBF0FBECDBFDF91CF91A9
:101AB0001F910F91FF90EF90DF90CF90BF90AF906C
:101AC0009F908F907F906F905F904F903F902F905E
:101AD0000895CF92DF92EF92FF920F931F93CF93CF
:101AE000DF936C01EB018C0197FF04C000271127E5
:101AF000081B190B7E01E00EF11ED7FD17C0C01B9D
:101B0000D10BBE01882777FD8095982F2EE33EEFFD
:101B10004FEF5FEF0E94EA369701442737FD40956B
:101B2000542F0E9452372E533E4F16C0B7018827BC
:101B300077FD8095982F2EE33EEF4FEF5FEF0E94E9
:101B4000EA360C1B1D0B9801442737FD4095542F96
:101B50000E9452372A5B3A4FD7FE03C03095219539
:101B60003F4FC901DF91CF911F910F91FF90EF90EF
:101B7000DF90CF900895CF92DF92EF92FF920F9374
:101B80001F938B019C01359527951795079556E86E
:101B9000C52E5AE5D52E57E3E52E5FE5F52EC01A82
:101BA000D10AE20AF30A20E030E040E05FE30E945D
:101BB0008736A70196010E948736A70196010E94E9
:101BC00087369B01AC0160E070E080EC9FE30E94EF
:101BD000CF349B01AC01C701B6010E948736462F66
:101BE000572F682F792FCB01BA011F910F91FF90CA
:101BF000EF90DF90CF90089560917C0090917A00F3
:101C000020E030E080E077EC422F406440937C009D
:101C100070937A0040917A0046FDFCCF40917800A5
:101C200050E041705070022E02C0440F551F0A94BC
:101C3000E2F7842B2F5F3F4F2830310529F760935F
:101C40007C0090937A000895FC01CB016AE070E07B
:101C50000E940937668B262F30E0C901880F991F33
:101C600073E0220F331F7A95E1F7820F931F958B54
:101C7000848B08952F923F924F925F926F927F9242
:101C80008F929F92AF92BF92CF92DF92EF92FF928C
:101C90000F931F93CF93DF9300D000D0CDB7DEB763
:101CA000FC01653608F064E6678B70E084E690E03E
:101CB0009C01261B370B289FA001299F500D389FA0
:101CC000500D11245A834983848995892C016624F7
:101CD00077248F01CC24DD24760180E090E01B0185
:101CE000A0EA8A2EA6E89A2EA1E0AA2EB12C9C8307
:101CF0008B838B819C81889F9001899F300D989F59
:101D0000300D1124229DC001239D900D329D900D18
:101D10001124A981BA818A0F9B1FBC0180E090E049
:101D2000A70196010E94EA36A50194010E9430376E
:101D3000F801219331938F012B813C812F5F3F4F1D
:101D40003C832B83C40CD51CE61CF71C2A303105C0
:101D500081F60F900F900F900F90DF91CF911F9110
:101D60000F91FF90EF90DF90CF90BF90AF909F903A
:101D70008F907F906F905F904F903F902F9008953D
:101D8000CF92DF92EF92FF920F931F93CF93DF9347
:101D9000EC017B018F89882309F457C09B0177FFF1
:101DA00004C022273327261B370B0E8910E0C901F8
:101DB000B8010E940937AC016930F8F0EA89FB8963
:101DC000C80143E0880F991F4A95E1F7800F911FE2
:101DD000A901481B590B8C899D898E1B9F0B489F1D
:101DE0009001499F300D589F300D1124C901B80151
:101DF0000E9409376E0F7F1F20C0862F90E0FC01E4
:101E0000EE0FFF1FEC0FFD1FC080D180FC0131964B
:101E1000EE0FFF1FEC0FFD1F808191818C199D0932
:101E2000849F9001859F300D949F300D1124C9012E
:101E3000B8010E9409376C0D7D1DF7FE05C0EE2428
:101E4000FF24E61AF70A01C07B01C701DF91CF9199
:101E50001F910F91FF90EF90DF90CF9008950E9417
:101E60006A02F894249A2C9828E088E190E00FB652
:101E7000F894A895809360000FBE20936000FFCF78
:101E800024982C9A8AE090E00E94FD3381E01C990E
:101E900080E08093BE020895863028F4843090F468
:101EA000813028F114C0873081F0873028F08830E5
:101EB000E1F08930E1F403C00E94EB1F08950E9415
:101EC0006D2308950E94BE170AC00E942F0F682F2D
:101ED000615082ED92E00E9464140E94FA2B82E02D
:101EE00090E06FE00E94AF0108950E946E1908957E
:101EF0008091BF029091C0021C9B31C00097A1F05D
:101F00008091BE02882329F48091C1028F5F809363
:101F1000C1021092BE021092C0021092BF02109233
:101F2000C3021092C2020895E091C102EE2321F192
:101F30008091C2029091C30201969093C302809354
:101F4000C20287399105C0F0E73030F4F0E0EF5B72
:101F5000FC4F80810E944C0F1092C102089501969F
:101F60009093C0028093BF0221E08139920720F054
:101F7000809147030E944C0F0895CF9384B18E60E7
:101F800084B98AB188668AB985B1817F85B98BB1F8
:101F900087798BB910928B0010928A001092890079
:101FA000109288001092B4001092B30018BC17BCB5
:101FB00080918000C091B000C0728078C82B809161
:101FC0001601813051F480938000809381008093CA
:101FD000B0008093B10084BD12C089E0809380007E
:101FE00088E08093810080918100826080938100ED
:101FF00093E09093B00082E08093B10094BD85BDE2
:1020000045B5309181002091B10015BC109281003E
:102010001092B10016BC82E090E09093850080930E
:10202000840084E08093B20045BD3093810020930A
:10203000B1000E940434CC2391F080918000806A2A
:10204000809380008091B00080688093B000809180
:10205000B00080628093B00084B5806A84BDCF9167
:10206000089590911601891721F0809316010E941E
:10207000BD0F089581E00895FC018481882389F4CF
:102080001092880010928A001092B3008091800014
:10209000806A809380008091B00080688093B00057
:1020A0000CC01092B40018BC17BC8091B0008062C4
:1020B0008093B00084B5806A84BD81E083830895F5
:1020C000FC018481882359F4809180008F7580936E
:1020D00080008091B0008F778093B00008C080911D
:1020E000B0008F7D8093B00084B58F7584BD13825E
:1020F0000895FC0162830895CF93CCE380E163E00F
:102100000E943206863861F084E190E00E94E2335A
:10211000C150A1F710923B0210923A0280E001C038
:1021200081E0CF910895CF93DF93EC01462F80E1BA
:1021300062E00E94430680918D068F3F51F48B81AF
:10214000882311F04A8101C040E080E161E00E94F3
:102150004306DF91CF910895DC0114969C9114976A
:10216000E62FF0E012968C911297E859FF4FE49118
:10217000E89FF0011124992341F5EF2FFF0FFF0B8A
:10218000E0938800E62FEB5AF0E0E859FF4FE49126
:1021900012968C911297E89FF0011124EF2FFF0FF8
:1021A000FF0BE093B3006655E62FF0E0E859FF4FD0
:1021B000E49112968C911297E89FF0011124EF2F71
:1021C000FF0FFF0BE0938A0008958F2F8095809377
:1021D000B400E62FEB5AF0E0E859FF4FE491129675
:1021E0008C911297E89FF00111248F2F809587BD65
:1021F0006655E62FF0E0E859FF4FE49112968C9176
:102200001297E89FF00111248F2F809588BD0895C3
:10221000FC018DE391E09183808313821282089503
:10222000FC01138212828BE191E0918380836483AD
:102230000895FC011382128289E291E091838083E8
:102240000895CF93DF93D62FC5E680E161E04D2F4F
:102250000E944306882371F080E162E040E00E9422
:102260004306882339F080E162E041E00E944306A2
:10227000882339F4C15029F08AE090E00E94E233CB
:10228000E4CFDF91CF910895FC0162830E94211178
:102290000895FC01138260E00E9421110895FC0161
:1022A00081E08383CF0162810E9421110895089506
:1022B000CF92DF92EF92FF920F931F93CF93DF9312
:1022C00000D00F92CDB7DEB7C62E8C01DD24EE24F0
:1022D000FF240DC0CE010196B80143E050E00E94FA
:1022E00073378B81E80EF11CD3940D5F1F4FDC1404
:1022F00089F7C7010F900F900F90DF91CF911F9139
:102300000F91FF90EF90DF90CF900895CF92DF92E2
:10231000EF92FF920F931F93CF93DF9300D00F9212
:10232000CDB7DEB7062F7A016C0110E01DC0CE01DB
:102330000196B60143E050E00E947337F7016081D7
:1023400071814B8189819A8150E00E9499372B815C
:10235000F70180819181820F911D918380831F5F9E
:1023600083E090E0C80ED91E101709F70F900F9068
:102370000F90DF91CF911F910F91FF90EF90DF9021
:10238000CF900895CF92DF92EF92FF920F931F9319
:10239000CF93DF9300D00F92CDB7DEB7062F7A012F
:1023A0006C0110E01DC0CE010196B60143E050E083
:1023B0000E947337F701608171814B8189819A8115
:1023C00050E00E9489372B81F70180819181820F33
:1023D000911D918380831F5F83E090E0C80ED91E1A
:1023E000101709F70F900F900F90DF91CF911F9169
:1023F0000F91FF90EF90DF90CF900895DC01D7967A
:102400001D921D921D921C92DA979C01255C3F4FF4
:10241000F90128E0DF011D922A95E9F7FC01ED5B47
:10242000FF4F1082118212821382895B9F4FFC0141
:102430001082089507C06150FC01E60FF11D208154
:10244000222321F46623B9F781E0089580E00895FE
:102450000F931F93CF93DF939C01BC01EC01CF57E7
:10246000DF4FDC0180E092E300E113E04C91433365
:1024700008F09C9313964C911397433318F01396DE
:102480009C93139716964C911697433318F0169613
:102490009C93169790964C919097433020F4909689
:1024A0001C93909705C0413118F090960C9390972B
:1024B0004881443008F018834881442361F410C0F7
:1024C000FA01EF57FF4FF081E881FE1709F41882F7
:1024D0004F5F5F4F01C0A901E42FE21BE81780F3B3
:1024E0008F5F11962196833009F6F901E05AFF4F6C
:1024F0009081F901EB59FF4FD901AA59BF4F923092
:1025000041F0808384E08C93992329F080E098E067
:1025100023C010821C9240E054E0D901AA59BF4F59
:10252000E901CB59DF4FC901840F911DFC01EF591F
:10253000FF4F6081653008F050838F599F4FFC0139
:102540008081833011F4188203C0843009F41C9216
:102550004F5F443041F70CC0FB01EF59FF4F408102
:10256000493008F090838F5F6F5F7F4F8430A1F711
:10257000F901E058FF4F8081833010F082E08083C2
:10258000F90187A5823010F081E087A7F901E857AB
:10259000FF4F8081853610F084E68083F901E35A8D
:1025A000FF4F8081823010F081E08083F90113AA0F
:1025B000DF91CF911F910F910895CF92DF92EF920B
:1025C000FF920F931F93CF93DF9300D0CDB7DEB769
:1025D0008C010E9428121A82198281E791E060E042
:1025E00070E041E050E00E94993789819A8101961C
:1025F0009A83898388E691E064E1AE014F5F5F4F83
:102600000E948611C980DA8024EAE22E21E0F22EAF
:10261000C7016AE10E945811F801E058FF4F20817C
:1026200030E0AC01429FC001439F900D529F900D3E
:1026300011248C0D9D1D9A838983C7016AE1AE0127
:102640004F5F5F4F0E9486118AE090E064E00E9435
:10265000AF010F900F90DF91CF911F910F91FF90DD
:10266000EF90DF90CF900895FC01E659FF4F118263
:102670001082FC01E85BFF4F11821082FC01E25BDB
:10268000FF4F11821082FC01EC5AFF4F1182108221
:10269000FC01E459FF4F11821082FC01E65BFF4F01
:1026A00011821082FC01E05BFF4F11821082FC015D
:1026B000EA5AFF4F11821082FC01E259FF4F11824A
:1026C0001082FC01E45BFF4F11821082FC01EE5A84
:1026D000FF4F11821082885A9F4FFC011182108295
:1026E000109231030895CF92DF92FF920F931F93C0
:1026F000CF93DF93EC010E943413DE01CE0163E03F
:102700005AE035E0F32E02E31EE02EE33EEF42EC0A
:10271000C42E41E0D42E73E05C9313965C93139720
:102720001696FC92169719960C9319971C961C9264
:102730001C971F961C931F97FC01358B248BD38EFF
:10274000C28E43E090967C93909796965C93969772
:1027500093961C92939799961C929997D3961C9254
:10276000D397FD01EC57FF4F1082615011960296EE
:10277000662391F61A8A1B8AFE01E05AFF4F1082E7
:10278000FE01EF59FF4F21E02083FE01EE59FF4F7C
:1027900032E03083FE01ED59FF4F1082FE01EC590B
:1027A000FF4F1082FE01EB59FF4F4083FE01EA59B3
:1027B000FF4F84E08083CE0189599F4FDC01842F35
:1027C0001D928A95E9F7FE01E059FF4F86E0DF018F
:1027D000982F1D929A95E9F78083FE01EB58FF4FE1
:1027E00087E08083FE01EA58FF4F11821082FE01CC
:1027F000E858FF4F11821082FE01E658FF4F118208
:102800001082FE01E458FF4F11821082FE01E2584F
:10281000FF4F11821082FE01E45AFF4F1082FE0129
:10282000E35AFF4F108284E68DA7FE01E25AFF4F64
:102830001082FE01E15AFF4F10821CA61EA61FA6A1
:10284000FE01E65AFF4F4083FE01E55AFF4F208309
:10285000FE01EF57FF4F2083FE01EE57FF4F3083FD
:10286000FE01ED57FF4F1082FE01E957FF4F8FE049
:102870008083FE01E857FF4F108218AA82E389ABDC
:102880001AAA1EAADF91CF911F910F91FF90DF909E
:10289000CF9008950F931F93CF93DF938C01C0E0E7
:1028A000D0E088EE9DEF0E94FD330E94FC0DF80100
:1028B000EC0FFD1F87AB2196C430D10591F7DF9156
:1028C000CF911F910F910895AF92BF92CF92DF9257
:1028D000EF92FF920F931F93CF93DF9300D00F924D
:1028E000CDB7DEB78C01E62E1B821A82CE0101968F
:1028F00060E070E041E050E00E9489378A819B816E
:1029000001969B838A838981982F9150973008F094
:102910005AC0873019F0C8010E947313898190E072
:102920000197FC01EE0FFF1FE80FF91FEE0FFF1FCD
:10293000E95BFE4F808191816281A380B480F58044
:10294000662369F0AE014E5F5F4F0E94C211F8012D
:10295000E058FF4F8081833010F082E08083FF20B9
:1029600041F1E7FC08C0F801E058FF4F8E2D83309D
:102970000CF082E08083CA80DB80C5016F2D0E944D
:102980005811F801E058FF4F208130E0AC01429F20
:10299000C001439F900D529F900D11248C0D9D1DE1
:1029A0009B838A83C5016F2DAE014E5F5F4F0E94EE
:1029B000C2118981873019F0C8010E943413C801FF
:1029C0000E9428120DC0F801E058FF4F1082C80184
:1029D0000E947313C8010E944A14C8010E94DD12AC
:1029E000C801C79664E00E941A12882319F0C80132
:1029F0000E944A14F801E95BFF4F81E080830F9049
:102A00000F900F90DF91CF911F910F91FF90EF905A
:102A1000DF90CF90BF90AF900895EF92FF920F9309
:102A20001F93CF93DF938C017B01CB9668E00E94CC
:102A30001A12882381F5F801ED5BFF4F80819181A7
:102A4000A281B3810196A11DB11D80839183A283D0
:102A5000B383E80120E030E045EE80819181A281DE
:102A6000B381022E04C0B695A795979587950A94D1
:102A7000D2F748278CAD9BAD89278427D7018D934A
:102A80007D01285F3F4F22962032310531F7C80182
:102A90000E94DD1205C0F70110821182128213829A
:102AA000DF91CF911F910F91FF90EF900895DC017E
:102AB000DB96FB0128E001900D922150E1F70E9486
:102AC000DD1208952F923F924F925F926F927F9204
:102AD0008F929F92AF92BF92CF92DF92EF92FF922E
:102AE0000F931F93CF93DF9300D000D0CDB7DEB705
:102AF00080913203823098F5813031F482E0809306
:102B000002041092030406C082E08093020481E074
:102B10008093030488E08093040484E08093050498
:102B200088B18F6088B980916C00807F80936C0041
:102B3000E2E0F4E080E090E034E640916C00219126
:102B4000242B20936C00DC01A35ABC4F3C930196CC
:102B50008430910591F782E08093680006C088B1C7
:102B6000807F88B98FE080937E00289A80EF98ED6F
:102B70009093F5038093F4039093F7038093F60307
:102B80009093F9038093F8039093FB038093FA03E7
:102B90009093FD038093FC039093FF038093FE03C7
:102BA00052EBE52E53E0F52E67E0862E64E0962E7C
:102BB00078EB672E73E0772EE8EF4E2EE2E05E2E84
:102BC000FCEA2F2EF3E03F2EACE3CA2EA3E0DA2E70
:102BD000B0E8AB2EB2E0BB2E29E733E03A8329837D
:102BE00000E010E080910203823041F0023041F4B5
:102BF00081E09091FD02191624F002C081E001C02D
:102C000080E0E981FA818193FA83E983002309F462
:102C100043C08823D9F189E190E0089F9001099F82
:102C2000300D189F300D11242D563E4F3C832B83C1
:102C3000F50160817181C9010E942204809106041E
:102C40008823F1F0EB81FC816789708D882777FDFF
:102C50008095982F0E94D335EB81FC8127853089A0
:102C6000418952890E9487360E94A035DC01CB0140
:102C70009C01EB81FC8180859185280F391F02C062
:102C800020E030E0F701318320830CC080910604FE
:102C9000882311F0F50101C0F60180819181F701CF
:102CA00091838083F701619171917F01882777FD7E
:102CB0008095982F0E94D335DC01CB01F4018193DC
:102CC0009193A193B1934F01F801EE0FFF1FE00F15
:102CD000F11FEE0FFF1FE254FC4F15821482108289
:102CE000118212821382F301119211923F01F201BB
:102CF00021912F0130E0C901880F991F880F991F7A
:102D0000820F931FF101819391931F010F5F1F4F5A
:102D100022E030E0C20ED31EA20EB31E0330110516
:102D200009F060CF84E993E060915A030E943A0E63
:102D30008CE793E0609104030E943A0E81E0809357
:102D400006040F900F900F900F90DF91CF911F917D
:102D50000F91FF90EF90DF90CF90BF90AF909F903A
:102D60008F907F906F905F904F903F902F9008953D
:102D70001F920F920FB60F9211240F931F932F9350
:102D80003F934F935F936F937F938F939F93AF93F3
:102D9000BF93CF93EF93FF93C6B10E94A3338C01EF
:102DA000309100043C277894C09300048091320352
:102DB0008130D1F480910204932F982381F18C23E8
:102DC00071F18091130490911404A801481B590BD0
:102DD000CA0110931404009313045BE0893B950728
:102DE00028F010921B041BC020E01AC0AC0145580B
:102DF0005340E5E043315E0768F4E0911B04E8309E
:102E000048F4F0E0EE0FFF1FEF59FC4F91838083F1
:102E100010925D0380911B048F5F80931B0422E05E
:102E2000A22FB0E0FD01EE5FFB4F8081982F93232E
:102E300019F18C23AD01440F551F8823C1F4FA0109
:102E4000ED5EFB4F80819181B801681B790BCB014E
:102E5000855F9140F7E08F3C9F0770F44F585C4FBF
:102E6000FA0171836083A35ABC4F1C9205C04D5E6A
:102E70005B4FFA01118300832F5F243088F2FF91AA
:102E8000EF91CF91BF91AF919F918F917F916F9172
:102E90005F914F913F912F911F910F910F900FBE16
:102EA0000F901F90189580910104813071F08091EE
:102EB0000104882361F080910104833051F08091F6
:102EC0000104823069F483E005C080E003C081E042
:102ED00001C082E0806480937C008FEC80937A0054
:102EE000089578941F920F920FB60F9211242F938A
:102EF0003F934F935F936F937F938F939F93AF9382
:102F0000BF93EF93FF93E0910104F0E0809178008C
:102F100090917900392F20E090E0822B932B8452FE
:102F20009C4FEE0FFF1FEF58FC4F91838083E09181
:102F30000104F0E0E35AFC4F1082809101048F5F9E
:102F400080930104843010F40E945317FF91EF9195
:102F5000BF91AF919F918F917F916F915F914F91B1
:102F60003F912F910F900FBE0F901F901895FC016D
:102F7000DB0180819C9190838C930895CF93C82F1F
:102F800090917F01A2EBB3E0ECE3F3E080E005C0B9
:102F90002D913D91219331938F5F8917C9F782ED70
:102FA00092E00E94DD12C43019F0C53091F409C0DE
:102FB00080913303909134039093330380933403CF
:102FC00008C080913303909135039093330380932D
:102FD0003503CF91089580918F06813069F48091F7
:102FE000900690919106009739F081E090E09093DF
:102FF000910680939006089581E080938F0680E18A
:1030000097E2909391068093900690917F01E2EB76
:10301000F3E080E003C0119211928F5F8917D9F716
:103020008FEF9FEF64E10E94AF0108952F923F92CE
:103030004F925F926F927F928F929F92AF92BF92C8
:10304000CF92DF92EF92FF921F93CF93DF93CDB792
:10305000DEB72C970FB6F894DEBF0FBECDBF209120
:103060009006309191063E832D8387E22031380708
:1030700009F040C08091AA019091AB0190931D048A
:1030800080931C048091FC039091FD039093210494
:103090008093200480E090E0DC01809324049093EE
:1030A0002504A0932604B093270410922D041092B7
:1030B0002C041092E4022091C3013091C40130939A
:1030C0001F0420931E042091FE033091FF033093D0
:1030D0002304209322048093280490932904A0932E
:1030E0002A04B0932B0410922F0410922E041092F5
:1030F000E502D3C0ACEFB3E0BA87A98770E2672ED0
:1031000074E0772EECE2AE2EE4E0BE2EE4EEF2E0C8
:10311000FA83E98314E2812E14E0912E2AEA31E049
:103120003C832B838CE1482E84E0582E14E0A98543
:10313000BA85ED91FD91BA87A987F887EF83D3010E
:103140008D919C911197AF01481B590BCA0157FFF4
:1031500004C088279927841B950B853691050CF4AC
:103160004CC0EB81FC8120803180D2018D919C91FB
:10317000F101E81BF90BCF01AA2797FDA095BA2F03
:1031800066E0880F991FAA1FBB1F6A95D1F7BC0183
:10319000CD014B875C870E94D3356B017C014B8549
:1031A0005C85BA01882777FD8095982F0E94D335DA
:1031B0009B01AC01C701B6010E9438359B01AC01EF
:1031C000D4016D917D918D919C910E94D034DC0150
:1031D000CB01F40180839183A283B383D5018D91C8
:1031E0009C91119701968D939C93F20131822082DC
:1031F000EF81F885D301ED93FC93D5016D917C911E
:1032000011976B307105F8F080E090E00E94D135A5
:103210009B01AC01F40160817181828193810E94E4
:1032200038350E94A035DC01CB01FFEF81389F07C4
:1032300034F08038910524F08FE790E001C081E8F8
:10324000A981BA818C931F5FE2E0F0E06E0E7F1ED1
:10325000AE0EBF1E29813A812F5F3F4F3A832983EB
:1032600084E090E0880E991EAB81BC815996BC83A6
:10327000AB834E0E5F1E163009F059CFED81FE81F3
:10328000E130F10551F482ED92E00E94DD1280916F
:1032900052030E94492610928F06809190069091C9
:1032A0009106019790939106809390062C960FB605
:1032B000F894DEBF0FBECDBFDF91CF911F91FF907D
:1032C000EF90DF90CF90BF90AF909F908F907F90C6
:1032D0006F905F904F903F902F90089580918F0650
:1032E000823069F48091900690919106009739F0B0
:1032F00081E090E09093910680939006089582E09B
:1033000080938F068AE992E09093910680939006CD
:10331000809184029091850290935C0380935B037B
:103320000E946A028FEF9FEF64E10E94AF0108954F
:10333000BF92CF92DF92EF92FF920F931F93CF93A2
:10334000DF9380919006909191068130910509F06C
:103350004EC0B0907F0192ECE92E93E0F92E27E069
:10336000C22E24E0D22EC0E0D0E000E010E034C055
:10337000882331F0F801E758FC4F8081882309F554
:10338000FE01E058FD4F60817181F70180819181DC
:10339000680F791FFE01E45CFC4F71836083FE01BE
:1033A000EE54FC4F71836083882777FD8095982FBA
:1033B0000E94D335DC01CB01F60180839183A28387
:1033C000B3830F5F1F4F229686E090E0E80EF91E50
:1033D000E4E0F0E0CE0EDF1E802F0B1548F282ED08
:1033E00092E00E94DD120E94910210928F0680915D
:1033F0009006909191060197909391068093900684
:10340000DF91CF911F910F91FF90EF90DF90CF90C0
:10341000BF9008952F923F925F926F927F928F920A
:103420009F92AF92BF92CF92DF92EF92FF920F9353
:103430001F93CF93DF93E091C606F0E0EF57FE4F66
:103440008081823009F097C353E3C52E53E0D52E17
:1034500004EF13E0EE24FF2460EFA62E68EDB62EF5
:10346000D601ED916D01EE2309F48EC0E1508091FB
:103470003203813021F5B3E0BE1508F180915D0380
:103480008436C8F42FB7F894F0E0EE0FFF1FEF5921
:10349000FC4F80819181F801918380832FBF8081CF
:1034A00091818C5D95409183808380915D038F5FD6
:1034B00080935D0325C0F801B182A08221C0F0E0B5
:1034C000DF01A35ABC4F8C918436B0F42FB7F89427
:1034D000EE0FFF1FEF58FC4F80819181F80191831F
:1034E00080832FBF808191818C5D95409183808303
:1034F0008C918F5F8C9304C0F2E0FE1528F444C0D9
:10350000B2E0BE1508F444C0F80140815181F8EDE5
:10351000403F5F07E9F1F701EA5AFC4F208133276A
:1035200027FD3095240F351FD8012D933C93E701DB
:10353000CC0FDD1FCE0DDF1DCC0FDD1FC053DC4FC8
:10354000F601E254F040E0818C819D81A901481B85
:10355000590BCA01AA2797FDA095BA2F4881598116
:103560006A817B81840F951FA61FB71F888399836B
:10357000AA83BB8304C0B595A79597958795EA95CF
:10358000D2F79D838C8304C0D8011196BC92AE9271
:103590000894E11CF11C0E5F1F4FB6E0EB16F1041E
:1035A00009F05ECFFCEFAF2EF3E0BF2EACEEEA2EBB
:1035B000A3E0FA2EB4EECB2EB2E0DB2E00E010E05A
:1035C000C9E18C2E912CC8010496F501219131910D
:1035D0005F01F8ED203F3F0709F462C0FC01EE0FE8
:1035E000FF1FE80FF91FEE0FFF1FE053FC4F848110
:1035F0009581A901481B590BCA01AA2797FDA095DF
:10360000BA2F4081518162817381840F951FA61F5B
:10361000B71F80839183A283B383D4E0B595A79528
:1036200097958795DA95D1F795838483089DE00176
:10363000099DD00D189DD00D1124CD56DE4FD70118
:103640008D919C91FC01BF01882777FD8095982F73
:10365000D6012C91332727FD3095432F532F0E94FD
:10366000EA36DC01CB01E6E0B595A79597958795FD
:10367000EA95D1F79D838C83FC01BF01882777FDF4
:103680008095982F0E94D3352F85388949895A898A
:103690000E9487360E94A035DC01CB019F838E8378
:1036A0000F5F1F4F26E030E0E20EF31E0894C11CAE
:1036B000D11C0230110509F086CF80918F06813030
:1036C00019F40E94161825C2823009F019C20E940E
:1036D00098191FC231E03A1508F473C080910203B3
:1036E000813009F06EC00A2D10E0029DF001039DAB
:1036F000F00D129DF00D1124ED56FE4F668177817D
:10370000882777FD8095982FF801EE52FD4F21A56F
:10371000332727FD3095432F532F0E94EA36DC01D3
:10372000CB01E6E0B595A79597958795EA95D1F7F2
:103730009C01E801CC0FDD1FC00FD11FCC0FDD1F96
:10374000C254DC4F6091030370E0621773072CF4DE
:10375000A901461B570BBA010CC088279927861B65
:10376000970B281739071CF4620F731F02C060E023
:1037700070E08CE793E00E94C00EF801EE52FD4F1E
:10378000E0A12C813D81DC01A21BB30B9D01C9018D
:10379000AA2797FDA095BA2F488159816A817B811C
:1037A000840F951FA61FB71F88839983AA83BB83A5
:1037B00004C0B595A79597958795EA95D2F79D830F
:1037C0008C83CA2CDD24E601CC0FDD1FFE01EC50FA
:1037D000FC4F80819181B8ED803F9B0709F48EC139
:1037E00086010E521D4FF80183A1813009F050C1AE
:1037F000609186027091870280E090E00E94D1354E
:1038000020913604309137044091380450913904A6
:103810000E948736B62E772E682E592ECC0DDD1DD0
:10382000CC0FDD1FC053DC4F2C813D8160915903CB
:1038300070E0621773072CF4A901461B570BBA01FD
:103840000CC088279927861B970B281739071CF46B
:10385000620F731F02C060E070E084E993E00E9491
:10386000C00ED80196962C91969730E0829FE00189
:10387000839FD00D929FD00D112443E0D595C7951D
:103880004A95E1F7F601EE0FFF1FEA51FD4FE08088
:10389000F180F601EE0FFF1FE451FD4F0081118111
:1038A0004601880C991C880C991C0E151F050CF4F8
:1038B00069C0B1E0BA1508F43FC0F401E95FFB4FFD
:1038C00060817181828193810E94A035DC01CB01EE
:1038D000A701481B590BF601EE0FFF1F1416150622
:1038E0009CF4E455FC4F20813181429FC001439FED
:1038F000900D529F900D112463E0969587956A95DF
:10390000E1F7C80FD91F18C0AC01401B510B1416AA
:10391000150694F4E455FC4F20813181429FC0018B
:10392000439F900D529F900D112403E0969587952B
:103930000A95E1F7C81BD90BF601EE0FFF1FE854FB
:10394000FC4FD183C08317E0E12E14E0F12EE80C88
:10395000F91CBE01882777FD8095982F0E94D335EA
:103960000B2D172D262D352DA90198010E94873684
:103970009B01AC01F70160817181828193810E947A
:10398000D0346CC0F1E0FA1508F43FC0F401E95FEF
:10399000FB4F60817181828193810E94A035DC019F
:1039A000CB01A801481B590BF601EE0FFF1F14169F
:1039B00015069CF4E455FC4F20813181429FC001E3
:1039C000439F900D529F900D112473E0969587951B
:1039D0007A95E1F7C81BD90B18C0AC014E195F09E5
:1039E0001416150694F4E455FC4F20813181429F52
:1039F000C001439F900D529F900D112463E0969556
:103A000087956A95E1F7C80FD91FF601EE0FFF1FE2
:103A1000E854FC4F882799278C1B9D0B918380834A
:103A200027E0E22E24E0F22EE80CF91CBE018827E4
:103A300077FD8095982F0E94D3350B2D172D262DBD
:103A4000352DA90198010E9487369B01AC01D70151
:103A50006D917D918D919C910E94CF34DC01CB01C1
:103A6000F70180839183A283B383E601CC0FDD1F2E
:103A7000CE54DC4FF401E95FFB4F6081718182819C
:103A800093810E94A035DC01CB019983888336C0E5
:103A9000F601EE0FFF1FEA51FD4F0081118152EB3D
:103AA000E52E53E0F52EEC0EFD1ECC0DDD1DCC0FEA
:103AB000DD1FC053DC4F6C817D816C507E4F8827A9
:103AC00077FD8095982FE601CC0FDD1FC451DD4FA7
:103AD00028813981201B310B442737FD4095542F15
:103AE0000E94EA3628EE33E040E050E00E94523770
:103AF000200F311FD70111963C932E93A39404C03D
:103B0000AA2439E1232E312C80917F01A81608F4D4
:103B1000E1CD8091FA039091FB03B8ED803F9B07C4
:103B2000D1F0EFEF88339E072CF0893C910524F00B
:103B3000E2E003C0E0E001C0E1E080917201E8173B
:103B400051F0E0937201FF27E7FDF095E75CFC4F31
:103B500080810E944C0F80913203823021F41092B8
:103B600001040E945317189902C080E002C080919E
:103B700001030E943110DF91CF911F910F91FF90AF
:103B8000EF90DF90CF90BF90AF909F908F907F90FD
:103B90006F905F903F902F90089560918202709196
:103BA00083028CEA91E00E9422046091C30170912B
:103BB000C401882777FD8095982F0E94D3352091E6
:103BC000BB013091BC014091BD015091BE010E94EA
:103BD00087360E94A0358091820290918302861BD5
:103BE000970B6AE070E00E941D3760930603772709
:103BF00067FD7095CB01880F991FF3E0660F771F63
:103C0000FA95E1F7860F971F9093B5018093B40161
:103C10001092B5031092B40382ED92E00E94DD127F
:103C2000809152030E94492608950F931F93CF93CA
:103C3000DF9324E030E0281B31096AEF70E002C016
:103C4000660F771F2A95E2F7882777FD8095982FD2
:103C50000E94D3358B01D82FC92F9E01862F912F1B
:103C6000A32FB22FBC01CD012BED3FE049E450E47E
:103C70000E94873629EF37EA4BEA54E50E9438352F
:103C800020E030E040E251E40E943835DC01CB0115
:103C900080933A0490933B04A0933C04B0933D047A
:103CA0009E01802F912FA32FB22FBC01CD0120E0C8
:103CB00030E040E251E40E94873628E132E244EFEE
:103CC00050E50E943835DC01CB0180933604909397
:103CD0003704A0933804B0933904DF91CF911F913A
:103CE0000F9108954F925F926F927F928F929F9261
:103CF000AF92BF92CF92DF92EF92FF920F931F93FA
:103D0000CF93DF93CDB7DEB729970FB6F894DEBF18
:103D10000FBECDBFDE01119699E0FD0111929A957B
:103D2000E9F78E01095F1F4F6D01E1E0F0E07727B1
:103D300067FD709544275527461B570BFF24FA94BF
:103D4000EE24E394992787FD909522273327281B9B
:103D5000390B6E177F0719F4D601EC9205C04E1788
:103D60005F0711F4D601FC928E179F0719F4D80152
:103D7000EC9205C02E173F0711F4D801FC92319642
:103D80000F5F1F4F0894C11CD11CE430F10509F7E7
:103D900038855B8199858A81539F202D1124899FC5
:103DA000402D1124241B2C8329814F81299F902D84
:103DB0001124459F502D1124951B9D83489F802DD4
:103DC0001124239F302D1124831B8E8383E3A82E7F
:103DD00084E0B82E90E3892E94E0992E60E070E0A4
:103DE000F5011082D4011C92FB01E152FD4FF490C9
:103DF000FB01EE51FD4FB49120E030E040E050E097
:103E00000F2D112707FD109566247724601A710A7B
:103E1000CB2EDD24C7FCD094442455244C185D08D7
:103E2000A42FAF5FC80117FDC3010197FC01EE0F7E
:103E3000FF1FE80FF91FE40FF51F81E090E08C0FE2
:103E40009D1FE80FF91F9081A99F902D11241F1429
:103E500014F481E001C08FEF989F802D1124280F6A
:103E6000C601D7FCC2010197FC01EE0FFF1FE80F4E
:103E7000F91FE40FF51F81E090E08C0F9D1FE80F04
:103E8000F91F8081A89FA02D11241B1614F481E036
:103E900001C08FEFA89F802D1124380F4F5F5F4F17
:103EA0004330510509F0BCCFD5012D935D01F401DC
:103EB00031934F01222311F0332389F483E394E0FB
:103EC0006FED72E043E050E00E94733780E394E0CE
:103ED00062EE72E043E050E00E94733706C06F5F0D
:103EE0007F4F6330710509F07BCF29960FB6F894A8
:103EF000DEBF0FBECDBFDF91CF911F910F91FF901D
:103F0000EF90DF90CF90BF90AF909F908F907F9079
:103F10006F905F904F900895CF93DF93EB01DA019C
:103F20002C91E22FFF27E7FDF095121644F431970C
:103F3000EE0FFF1FE80FF91F208131810BC0E095C4
:103F4000F095EE0FFF1FE80FF91F208131813095AA
:103F500021953F4F3983288311962C911197E22F99
:103F6000FF27E7FDF095121644F43197EE0FFF1F7F
:103F7000E80FF91F208131810BC0E095F095EE0F1D
:103F8000FF1FE80FF91F20813181309521953F4FA8
:103F90003B832A8312962C911297E22FFF27E7FD8D
:103FA000F095121644F43197EE0FFF1FE80FF91F3A
:103FB000808191810BC0E095F095EE0FFF1FE80F17
:103FC000F91F80819181909581959F4F9D838C836E
:103FD000DF91CF91089584E080938F068FEF9FEF5C
:103FE00064E10E94AF010E946A0288EE93E00E94A1
:103FF000E23384EF91E090939106809390060895C8
:1040000090914C04992349F0482F873008F046E0FE
:1040100080914B046AE10E9443060895CF93DF9399
:10402000C0E0D0E0FE01E170F070EC58FE4F8081FE
:1040300080934B0465E70E9432068E778836F9F448
:1040400010923B0210923A0280914B046BE640E8DA
:104050000E9443068AE090E00E94E23380914B0484
:104060006BE643E00E94430680914B046BE148E11C
:104070000E94430680E00E94002081E005C0219656
:10408000C436D10579F680E0DF91CF910895CF93C2
:10409000DF93CDB7DEB72C970FB6F894DEBF0FBE17
:1040A000CDBF80914B0463E4AE01495F5F4F26E0D2
:1040B00030E00E940F06882311F13F8120E08885BF
:1040C00090E0822B932B9A838983398520E08A851F
:1040D00090E0822B932B9C838B833B8520E08C8507
:1040E00090E0822B932B9E838D83CE0101966FE50A
:1040F00074E040E354E00E948C1F81E001C080E046
:104100002C960FB6F894DEBF0FBECDBFDF91CF91D6
:104110000895CF93DF930E944720882309F442C07B
:1041200080912F038823A1F4EFE5F4E0A9E5B4E042
:10413000C3E5D4E043E0819191912D913D91821BA3
:10414000930B95958795899399934150A1F72AC030
:1041500080915F04909160042091590430915A0439
:10416000821B930B909354048093530480916104B9
:104170009091620420915B0430915C04821B930B4C
:104180009093560480935504809163049091640445
:1041900020915D0430915E04821B930B9093580430
:1041A00080935704DF91CF91089580914B048093C1
:1041B0004A046CE140E10E94430681E008951092B8
:1041C0004C0410924B0410924A0480912C0360918D
:1041D0002D030E94721E80912F030E94151E0E94C3
:1041E0000E20882339F00E94D520882319F081E021
:1041F00080934C04A9E5B4E0E6E2F3E086E00190A8
:104200000D928150E1F70895CF93DF93CDB7DEB7DC
:104210002C970FB6F894DEBF0FBECDBF80914A0435
:104220006BE3AE01495F5F4F26E030E00E940F066E
:10423000882389F13F8120E0888590E0822B932BB1
:1042400063E0959587956A95E1F79A838983398527
:1042500020E08A8590E0822B932B73E095958795DB
:104260007A95E1F79C838B833B8520E08C8590E0F9
:10427000822B932BE3E095958795EA95E1F79E8352
:104280008D83CE0101966FE574E043E354E00E9414
:104290008C1F81E001C080E02C960FB6F894DEBF41
:1042A0000FBECDBFDF91CF9108958F929F92AF92B5
:1042B000BF92CF92DF92EF92FF920F931F93CF9313
:1042C000DF930E940421882309F4FAC180918F06AC
:1042D000843009F0B8C1809190069091910621E058
:1042E000843F9207D9F580911A0390911B030097A0
:1042F00031F480911C0390911D03009771F03FE50C
:10430000C32E34E0D32E4AE1842E43E0942E01E004
:1043100010E053E0E52EF12C7EC080911E039091B9
:104320001F03009761F782E0809373011092650488
:104330001092660410926704109268041092690447
:1043400010926A0410926B0410926C0410926D0427
:1043500010926E0410926F041092700440915F04EA
:1043600050916004662757FD6095762F8091650413
:1043700090916604A0916704B0916804840F951F22
:10438000A61FB71F8093650490936604A0936704EB
:10439000B09368044091610450916204662757FD10
:1043A0006095762F8091690490916A04A0916B04C6
:1043B000B0916C04840F951FA61FB71F80936904EA
:1043C00090936A04A0936B04B0936C0440916304CF
:1043D00050916404662757FD6095762F80916D0497
:1043E00090916E04A0916F04B0917004840F951F9A
:1043F000A61FB71F80936D0490936E04A0936F0463
:10440000B09370048091900690919106813091054F
:1044100009F010C15CC0402F4150F601C191D1910B
:104420006F01F401819191914F01C81BD90BD7FF06
:1044300003C0D095C195DF4FC801B7010E941D3759
:10444000992787FD9095FC01EE0FFF1FE15AFB4F66
:10445000DC01AA0FBB1FA65EBC4F208131818D916C
:104460009C911197281B390B37FF03C0309521957C
:104470003F4F2C173D0724F5C8010196B7010E9454
:104480001D37992787FD9095FC01EE0FFF1FE15A1C
:10449000FB4FDC01AA0FBB1FA65EBC4F2081318100
:1044A0008D919C911197281B390B37FF03C03095D4
:1044B00021953F4F2C173D071CF44093730136CFD5
:1044C0000F5F1F4F0430110509F0A5CF2FCF0091CA
:1044D0007301E02EFF246701CC0CDD1CCC0CDD1C2D
:1044E000F601EB59FB4F608171818281938111E06C
:1044F00016161706180619060CF410E0E701CC0F83
:10450000DD1FC10FD11DCC0FDD1FCF58DB4F24EFB6
:1045100031E040E050E00E94523739832883F601B1
:10452000EF58FB4FC080D1801C141D043CF5228144
:10453000338137FF23C0F701EE0FFF1FE65EFC4F0C
:10454000C601820F931F62E070E00E941D377183E5
:104550006083E701CC0FDD1FC05EDC4FC21AD30AB7
:104560009601442737FD4095542F60E070EA8FE0B4
:1045700090E00E943037398328834AC0023009F026
:1045800047C0112309F044C060916504709166042E
:104590008091670490916804C4EFCC2EC1E0DC2EBA
:1045A000E12CF12CA70196010E94523730931B0396
:1045B00020931A0310922103109220036091690442
:1045C00070916A0480916B0490916C04A70196012C
:1045D0000E94523730931D0320931C031092230333
:1045E0001092220360916D0470916E0480916F04AB
:1045F00090917004A70196010E94523720503240DA
:1046000030931F0320931E0310922503109224035E
:1046100082ED92E00E94DD12809129028D7F8093CD
:1046200029020E9491020E94A00681E40E94332682
:1046300010928F0680919006909191060197909329
:10464000910680939006FFE5EF2EF4E0FF2ECAE17D
:10465000D3E0ADE4CA2EA4E0DA2E10E0B8EE8B2E43
:10466000B3E09B2EA12CB12C4E815F81F70180819C
:10467000918128813981821B930B4115510599F055
:104680009C01B901882777FD8095982F9A0140E019
:1046900050E00E94EA36A50194010E945237F601CB
:1046A0003183208303C0F601918380831F5F22E062
:1046B00030E0E20EF31E2296C20ED31E1330A1F696
:1046C000DF91CF911F910F91FF90EF90DF90CF90EE
:1046D000BF90AF909F908F900895CF92DF92EF920E
:1046E000FF920F931F93CF93DF93CDB7DEB72C9735
:1046F0000FB6F894DEBF0FBECDBF19821A821B829F
:104700001C821D821E821F82188619861A861B86AD
:104710001C860E946A028FEF9FEF64E10E94AF0146
:1047200000E010E0CC24DD246AE0E62EF12C0E94AB
:104730004720882309F444C08BE0093B180708F49C
:104740003FC040915F0450916004662757FD60951B
:10475000762F89819A81AB81BC81840F951FA61F1A
:10476000B71F89839A83AB83BC83409161045091C6
:104770006204662757FD6095762F8D819E81AF81FB
:10478000B885840F951FA61FB71F8D839E83AF83A7
:10479000B8874091630450916404662757FD609583
:1047A000762F89859A85AB85BC85840F951FA61FBA
:1047B000B71F89879A87AB87BC870894C11CD11C17
:1047C000C801B7010E940937009721F40E94BA017D
:1047D0000E947F2B82EC91E00E94FD330F5F1F4F00
:1047E00087E10037180709F0A2CFC114D10409F4FA
:1047F00040C0EE24FF2469817A818B819C81A701CE
:1048000096010E94523789019A0110932703009361
:10481000260310935A04009359046D817E818F8181
:104820009885A70196010E94523789019A01109339
:1048300029030093280310935C0400935B046985AB
:104840007A858B859C85A70196010E945237890144
:104850009A0110932B0300932A0310935E04009394
:104860005D0482ED92E00E94DD120E9455210E94BB
:10487000A0060E9491028AE090E064E00E94AF01ED
:104880002C960FB6F894DEBF0FBECDBFDF91CF914F
:104890001F910F91FF90EF90DF90CF900895FC0152
:1048A0008081DF01AE57BF4F2C91982F9F5F8217F9
:1048B00040F4DF01A80FB11D12968C9112979083DE
:1048C0000895908380E008951F93CF93DF93EC01C8
:1048D0000E944F24182FCE010E944F24382F20E031
:1048E000C901810F911DDF91CF911F910895EF9222
:1048F000FF920F931F93CF93DF9300D0CDB7DEB716
:104900008C017B010AC0C80149836A830E944F243D
:10491000F70181937F016A8149818E2D861B84175F
:1049200090F30F900F90DF91CF911F910F91FF9017
:10493000EF900895FC01EE57FF4F208127FD0EC038
:10494000DC01A20FB11D12966C9312972F5F20838A
:10495000FC01ED57FF4F8081860F808308950F93F0
:104960001F93CF93DF93EC010DE714E0C8016C2F88
:104970000E949A246D2F772767FD7A95C8010E94BF
:104980009A24DF91CF911F910F910895CF92DF92DA
:10499000FF920F931F93CF93DF930F92CDB7DEB7A4
:1049A0008C01F62EC62ED72E08C0F60161916F013C
:1049B000C80149830E949A2449818C2D8F1984173C
:1049C000A0F30F90DF91CF911F910F91FF90DF9097
:1049D000CF9008950F931F9380930506E82FE15021
:1049E000E43050F4F0E0EE0FFF1FEA58FE4F208154
:1049F000318140E050E004C020E032EC41E050E082
:104A000082E08093C00060E079E08DE390E00E9456
:104A1000303789019A0101501040204030403695CE
:104A2000279517950795BB27A32F922F812F80934A
:104A3000C5000093C4008091C10088698093C100C3
:104A40001F910F9108951F920F920FB60F9211248C
:104A50002F938F939F93EF93FF939091C600809134
:104A600083058F5F8F7720918405821741F0E09155
:104A70008305F0E0EB57FA4F908380938305FF9115
:104A8000EF919F918F912F910F900FBE0F901F90DC
:104A90001895E0918405F0E0EB57FA4F8081209162
:104AA000840590918305291751F0909184059F5FAB
:104AB00090938405909184059F7790938405089541
:104AC000CF930E944925C82F0E944925382F20E006
:104AD000C9018C0F911DCF9108958091830590910C
:104AE0008405891B8F77089580918405E5E8F5E0BA
:104AF000E80FF11D8081089590918205E1E0F5E0D5
:104B0000E90FF11D8083809182058F5F809382057C
:104B1000809182058F7780938205E1ECF0E08081BF
:104B2000806280830895CF93DF930F92CDB7DEB775
:104B300099830E947C259981892F0E947C250F9062
:104B4000DF91CF9108958091820590918105891B15
:104B50008F7708950E94A3258823E1F708951F9277
:104B60000F920FB60F9211248F939F93EF93FF93A1
:104B70009091820580918105981791F0E0918105CF
:104B8000F0E0EF5FFA4F80818093C600809181054D
:104B90008F5F80938105809181058F778093810558
:104BA0009091810580918205981729F48091C10028
:104BB0008F7D8093C100FF91EF919F918F910F9016
:104BC0000FBE0F901F9018950E946D25882359F0F5
:104BD000E0918405F0E0EB57FA4F80818E3319F0B5
:104BE0000E944925F1CF0895FF920F931F93CF9311
:104BF000DF93EC018EE30E947C2589810E947C2555
:104C00008E010E571F4FF80180810E947C25F8010C
:104C100090818981890F0E947C25FF2407C0FE01B5
:104C2000EF0DF11D82810E947C25F394F8018081B3
:104C3000F816A8F3CD57DF4F88810E947C25DF91BD
:104C4000CF911F910F91FF90089580937E04109251
:104C5000FF048EE794E0FC011292CF011092000550
:104C60000E94F4250895CF93DF93682F83E4809307
:104C70007E041092FF04CEE7D4E01A921092000551
:104C8000CE010E949A24CE010E94F425DF91CF919B
:104C900008954F925F926F927F928F929F92AF9200
:104CA000BF92CF92DF92EF92FF920F931F93CF9319
:104CB000DF93182F833008F060C182E580937E0473
:104CC0001092FF0410927D04109200058DE794E08D
:104CD000612F0E949A248FB6F89490905203191570
:104CE00029F082ED92E0612F0E946414C2EDD2E0BF
:104CF00063E0E62EF12CEC0EFD1E76E0C72ED12CE3
:104D0000CC0EDD1EE9E0AE2EB12CAC0EBD1EFCE0DB
:104D10006F2E712C6C0E7D1EAFE04A2E512C4C0E66
:104D20005D1E00E069918DE794E00E949A24F701EE
:104D300061917F018DE794E00E949A24F6016191D0
:104D40006F018DE794E00E949A24F50161915F0163
:104D50008DE794E00E949A24F30161913F018DE771
:104D600094E00E949A24F20161912F018DE794E072
:104D70000E949A240F5F0330A9F68DE794E06091BA
:104D8000E4020E949A248DE794E06091E5020E947B
:104D90009A24C2EDD2E0B3E2EB2EF12CEC0EFD1E14
:104DA00020E2C22ED12CCC0EDD1E36E2A32EB12C79
:104DB000AC0EBD1E49E2642E712C6C0E7D1E5AE0B5
:104DC000452E512C8C899D89B2010E941D37CB0143
:104DD0000E94AF248A8D9B8DB2010E941D37CB01AA
:104DE0000E94AF24F70161917F018DE794E00E945A
:104DF0009A24F60161916F018DE794E00E949A2454
:104E0000F50161915F018DE794E00E949A24F3011E
:104E100061913F018DE794E00E949A24015022960F
:104E2000002381F68DE794E06091FF020E949A24AE
:104E30008DE794E06091FE020E949A248DE794E051
:104E4000609101030E949A248DE794E06091000331
:104E50000E949A248DE794E066E573E043E00E94A7
:104E6000C6248DE794E0609159030E949A248DE74F
:104E700094E060915A030E949A248DE794E0609137
:104E800032030E949A248DE794E063E373E044E0E8
:104E90000E94C6248DE794E0609102030E949A2448
:104EA0008DE794E0609103030E949A248DE794E0DB
:104EB000609104030E949A248DE794E065E073E01A
:104EC00043E00E94C6248DE794E060912C030E9489
:104ED0009A248DE794E060912D030E949A248DE737
:104EE00094E060912E030E949A248DE794E06091F3
:104EF0002F030E949A248DE794E0609130030E9472
:104F00009A248DE794E0609131030E949A248DE702
:104F100094E069E373E043E00E94C6248DE794E0E7
:104F200062E473E046E00E94C6248DE794E063E506
:104F300073E043E00E94C6248DE794E0609108038B
:104F40000E949A24C9E08DE794E060E00E949A24D0
:104F5000C150C9F78DE794E0692D0E949A249116FB
:104F600029F082ED92E0692D0E9464148FBE0E94A8
:104F7000AA258DE794E00E94F425DF91CF911F913F
:104F80000F91FF90EF90DF90CF90BF90AF909F90E8
:104F90008F907F906F905F904F9008952F923F92E7
:104FA0004F925F926F927F928F929F92AF92BF9239
:104FB000CF92DF92EF92FF920F931F93CF93DF93E5
:104FC000CDB7DEB72D970FB6F894DEBF0FBECDBFBD
:104FD0002C01FC0101810F3409F4C0C20035B0F48A
:104FE000063409F49AC2073438F4013409F483C250
:104FF000043409F06BC35DC0083409F4B5C2083449
:1050000008F485C20C3409F061C32EC3073509F4D6
:10501000C3C0083548F4023509F4B9C0063571F04B
:10502000003509F053C393C2073609F46AC2023748
:1050300009F44AC3013609F049C3BFC200937E0494
:105040001092FF0410927D041092000580917F0160
:10505000833011F465E601C064E68DE794E00E94B8
:105060009A248DE794E066E10E949A248DE794E00B
:1050700062E00E949A248DE794E060E00E949A2406
:105080008DE794E060917F010E949A248DE794E07F
:1050900069E073E044E00E94C6248DE794E06DE08F
:1050A00073E048E00E94C6248DE794E06091190304
:1050B00067C000937E041092FF0410927D0410924A
:1050C00000050DE414E0E3E5EE2EE4E0FE2EF3E04F
:1050D000CF2EF801819191918F010E94AF24F701A9
:1050E000819191917F010E94AF2480E090E00E9425
:1050F000AF24CA9471F780E090E00E94AF2480E072
:1051000090E00E94AF2480E090E00E94AF2480E015
:1051100090E00E94AF2404EF13E076E0E72EF80160
:10512000819191918F0184529A4F0E94AF24EA9409
:10513000B1F780918002909181020E94AF2480910A
:105140008202909183020E94AF2480918402909108
:1051500085020E94AF2480918602909187026AE0C6
:1051600070E00E940937CB010E94AF2480913A027F
:1051700090913B020E94AF248DE794E06091290258
:105180000E949A248DE794E00E94F4259FC20E9419
:105190004F240E9449269AC2209052030E944F2415
:1051A000833008F093C2FFB7FD87F89402ED12E058
:1051B00093E0E92EF12CE00EF11E26E0C22ED12C58
:1051C000C00ED11E39E0A32EB12CA00EB11E4CE0B2
:1051D000842E912C800E911E5FE0652E712C600E46
:1051E000711E63E0362EC2010E944F24F8018193A4
:1051F0008F01C2010E944F24F70181937F01C201F8
:105200000E944F24F60181936F01C2010E944F2436
:10521000F50181935F01C2010E944F24F401819343
:105220004F01C2010E944F24F30181933F013A9440
:10523000D1F6C2010E944F248093E402C2010E9471
:105240004F248093E50202ED12E0E3E2CE2ED12C52
:10525000C00ED11EF0E2AF2EB12CA00EB11EA6E200
:105260008A2E912C800E911EB9E26B2E712C600E4D
:10527000711E83E0E82EC2010E9464249C01880F05
:10528000991F53E0220F331F5A95E1F7820F931FA6
:10529000F801958B848BC2010E9464249C01880FC5
:1052A000991F73E0220F331F7A95E1F7820F931F46
:1052B000F801938F828FC2010E944F24F6018193DF
:1052C0006F01C2010E944F24F50181935F01C20169
:1052D0000E944F24F40181934F01C2010E944F2488
:1052E000F30181933F01EA940E5F1F4FEE2019F600
:1052F000C2010E944F248093FF02C2010E944F24EA
:105300008093FE02C2010E944F2480930103C201D8
:105310000E944F2480930003C20166E573E043E0DE
:105320000E947724C2010E944F2480935903C20136
:105330000E944F2480935A03C2010E944F248093FD
:105340003203C20163E373E044E00E947724C201A8
:105350000E944F2480930203C2010E944F24809335
:105360000303C2010E944F2480930403C20165E03D
:1053700073E043E00E947724C2010E944F24182F5B
:10538000C2010E944F2490912C03191721F490918F
:105390002D038917F1F010932C0380932D031092A5
:1053A0001B0310921A0310922103109220031092F3
:1053B0001D0310921C0310922303109222031092DB
:1053C0001F0310921E03109225031092240301E084
:1053D00001C000E0C2010E944F2480932E03C2014D
:1053E0000E944F2480932F03C2010E944F2490916A
:1053F0003003891719F08093300301E0C2010E9445
:105400004F2480933103C20169E373E043E00E94BB
:105410007724C20162E473E046E00E947724C2016F
:10542000BE016B5F7F4F43E00E947724CE0105965B
:1054300063E573E043E050E00E947C37009751F051
:10544000A3E5B3E0FE01359683E001900D92815013
:10545000E1F701E0C2010E944F248093080319E0A4
:10546000C2010E944F241150D9F7C2010E944F245B
:1054700080935203833018F082E080935203F2014C
:10548000EE57FF4F9081F2018081981729F482ED49
:1054900092E00E94DD120AC080912902806280930E
:1054A000290282ED92E0622D0E946414FD85FFBF07
:1054B000F201EE57FF4F9081F2018081981709F0B9
:1054C00005C187E50E943326002329F088EE93E08A
:1054D0000E94FD33F9C00E94FA2B80910003909145
:1054E0000506891709F4F2C00E94EA2488EE93E0C9
:1054F0000E94E233EBC081E40E9433260E94EB1F3E
:10550000E5C087E60E9433260E946D23DFC087E452
:105510000E9433260E94EB17D9C00E944F2480932B
:105520005203833018F082E08093520382ED92E0C0
:105530000E94731382ED92E00E94DD12809152036B
:105540000E94492684E690E00E94E233BDC080E5D7
:105550000E94332683E080938F06B8C08FE40E94B8
:1055600033260E94CD1DB2C0BE016F5F7F4F44E065
:105570000E947724CE01019669E073E044E050E098
:105580000E947C37009709F0A1C000937E0410921E
:10559000FF0410927D041092000582ED92E0BE019E
:1055A0006B5F7F4F0E940D158DE794E0BE016B5F2E
:1055B0007F4F44E00E94C624E5CDBE016F5F7F4F60
:1055C00044E00E947724C2010E944F24082FC201A8
:1055D0000E944F24E82EC2010E944F24C82EC2010F
:1055E0000E944F24A82ECE01019669E073E044E0AA
:1055F00050E00E947C37009799F58E2D90E0A0E056
:10560000B0E0BA2FA92F982F8827800F911DA11DD8
:10561000B11DDD24EE24FF247601DD24CC248C0D85
:105620009D1DAE1DBF1D4A2D50E060E070E0742F3F
:10563000662755274427840F951FA61FB71F409143
:105640001503509116036091170370911803841786
:105650009507A607B70721F481E08093190302C0DC
:105660001092190381E627C0BE016F5F7F4F44E0AF
:105670000E947724C201BE016B5F7F4F48E00E9409
:105680007724F201EE57FF4F9081F2018081981745
:10569000A9F4CE01019669E073E044E050E00E9475
:1056A0007C37009799F482ED92E0BE016B5F7F4FEB
:1056B0000E9457158CE40E94332608C0809129026D
:1056C00080628093290202C00E942F0F2D960FB690
:1056D000F894DEBF0FBECDBFDF91CF911F910F9128
:1056E000FF90EF90DF90CF90BF90AF909F908F9002
:1056F0007F906F905F904F903F902F9008951F93F1
:10570000CF93DF930E946D25882309F46FC08091A9
:105710000606882381F4E0918405F0E0EB57FA4F08
:1057200080818E3331F40E94492581E08093060602
:1057300002C00E94E425809106068130F9F40E949F
:105740006D258330D8F00E944925D82F0E94492525
:10575000C82F80930706182F1D0F0E944925181780
:10576000E9F5C138D8F5D093090610928A0610924F
:10577000080610928B0682E080930606809106064A
:105780008230A1F5C09107060E946D252C2F30E0D4
:1057900090E02817390744F029C00E944925682F56
:1057A00088E096E00E949A2480918A068C17A8F3DC
:1057B000C0918B060E94492590912902C81741F497
:1057C0009F7D9093290288E096E00E94CE2703C037
:1057D0009062909329021092060608C080912902D7
:1057E00080628093290210920606C8CFDF91CF9184
:1057F0001F9108958F929F92AF92BF92CF92DF92A6
:10580000EF92FF921F93CF93DF9310E079E1872E01
:10581000912C58C0812F90E0889DE001899DD00D8A
:10582000989DD00D1124CD56DE4F2B81222309F4F3
:1058300048C022EDA22E22E0B22EA80EB91ED5013C
:105840001F966C916A8770E080E090E00E94D335EB
:105850006B017C0124EB32EA41E15DE30E94873673
:10586000DC01CB018B879C87AD87BE8760E070E051
:1058700081EE91E4A70196010E943835DC01CB014D
:105880008F87988BA98BBA8B89819A81DC01ED91E6
:10589000FC910680F781E02DD50119966C91099550
:1058A000F50123A9332727FD3095C901880F991FDA
:1058B00063E0220F331F6A95E1F7820F931F9987E8
:1058C00088871F5F80917F01181708F4A3CF80910C
:1058D0002F030E94151E80E00E9400200E94621586
:1058E000809101030E9431108091FF020E941307F2
:1058F0000E9453040E949102DF91CF911F91FF906B
:10590000EF90DF90CF90BF90AF909F908F900895D1
:105910000F931F93CF93DF93A89582ED92E06FEFE3
:105920000E946414809101030E94311078940E94B7
:105930004F050E942B02809100030E94EA240E94DE
:10594000400F0E94A501809131038823A9F4C0E093
:10595000D0E00AE010E08EEE92E00E94FD33CE012E
:10596000B8010E940937009711F40E947F2B2196FD
:105970008FE0C03AD80779F70E94DF200E945304D5
:105980008091290280FD17C080913103882311F492
:105990000E946D230E9455210E94A0060E94FA2BAE
:1059A0000E945304809129028E7029F48AE090E0CD
:1059B00064E00E94AF0180912902882329F08FEFD3
:1059C0009FEF66E00E94AF01DF91CF911F910F9191
:1059D0000895CF93DF930E94A333EC0120918D06AD
:1059E00030918E06C9016AE070E00E940937809309
:1059F000C6062F5F3F4F30938E0620938D060E9480
:105A000089200E9457070E940A1A0E947F2BE0916A
:105A1000C606F0E0EF57FE4F8081883021F40E94E7
:105A2000BA010E94780F0E94A3339E01281B390BF4
:105A3000C90182519D4F1816190614F40E94FD33B6
:105A4000DF91CF910895CF93DF93C0918202D091DF
:105A500083026091C3017091C401882777FD80950E
:105A6000982F0E94D3352091BB013091BC01409109
:105A7000BD015091BE010E9487360E94A0358091E1
:105A8000B4019091B501680F791FCE01861B970B69
:105A9000D7FF03C0D095C195DF4F23E0C438D207AC
:105AA00088F428E532E02C1B3D0B309393062093BD
:105AB000920637FD1DC041E02D323407ECF02CE298
:105AC00031E00EC020EB34E02C1B3D0B30939306ED
:105AD000209392064EEF243D34073CF424ED3EEF34
